:020000040800F2
:1000000000000220191C0008B51B0008B71B0008DF
:10001000B91B0008BB1B0008BD1B00080000000046
:10002000000000000000000000000000BF1B0008EE
:10003000C11B000800000000C31B0008C51B00080E
:10004000691C0008691C0008691C0008691C00087C
:10005000691C0008691C0008691C0008691C00086C
:10006000691C0008691C0008691C0008691C00085C
:10007000691C0008691C0008691C0008691C00084C
:10008000691C0008691C0008691C0008691C00083C
:10009000691C0008691C0008691C0008691C00082C
:1000A000691C0008691C0008691C0008691C00081C
:1000B000691C0008691C0008691C0008691C00080C
:1000C000691C0008691C0008691C0008691C0008FC
:1000D000691C0008691C0008691C0008691C0008EC
:1000E000691C0008691C0008691C0008691C0008DC
:1000F000691C0008691C0008691C0008691C0008CC
:10010000691C0008691C0008691C0008691C0008BB
:10011000691C0008691C0008691C0008691C0008AB
:10012000691C0008691C0008691C0008691C00089B
:10013000691C00080000000000000000691C0008A5
:10014000691C0008691C0008691C0008691C00087B
:10015000691C0008691C0008691C0008691C00086B
:10016000691C0008691C0008691C0008691C00085B
:10017000691C0008691C0008691C000800000000D8
:1001800000000000691C00080000000000000000E2
:10019000691C00080000000000000000691C000845
:1001A000000000000000000000000000691C0008C2
:1001B000691C0008691C0008691C0008691C00080B
:0401C000691C0008AE
:1001C40010B5054C237833B9044B13B10448AFF38D
:1001D40000800123237010BD0C00002000000000EB
:1001E400C41C000808B5034B1BB103490348AFF313
:1001F400008008BD0000000010000020C41C00089E
:1002040053B94AB9002908BF00281CBF4FF0FF3179
:100214004FF0FF3000F072B9ADF1080C6DE904CE77
:1002240000F006F8DDF804E0DDE9022304B07047CD
:100234002DE9F047089E04468846002B4BD18A429C
:10024400154667D9B2FA82F24AB1C2F1200701FA1F
:1002540002F320FA07F7954047EA030894404FEA6F
:10026400154E230CB8FBFEF71FFA85FC0EFB17880E
:1002740043EA084307FB0CF1994209D9EB1807F14B
:10028400FF3080F01B81994240F21881023F2B44D9
:100294005B1AA4B2B3FBFEF00EFB103344EA034432
:1002A40000FB0CFCA44509D92C1900F1FF3380F0A4
:1002B4000781A44540F2048102382C4440EA0740F7
:1002C400A4EB0C0400271EB1D4400023C6E900436C
:1002D4003946BDE8F0878B4209D9002E00F0EB8047
:1002E4000027C6E9000138463946BDE8F087B3FA6D
:1002F40083F7002F47D18B4202D3824200F2FA8067
:10030400841A61EB030301209846002EE0D0C6E96D
:100314000048DDE702B9FFDEB2FA82F2002A40F0BB
:100324008F80491B4FEA154E1FFA85F80127B1FB50
:10033400FEFC230C0EFB1C1143EA014308FB0CF1E9
:10034400994207D9EB180CF1FF3002D2994200F21E
:10035400CD808446591AA3B2B1FBFEF00EFB1014F3
:1003640043EA044408FB00F8A04507D92C1900F11E
:10037400FF3302D2A04500F2B6801846A4EB08046D
:1003840040EA0C409FE7C7F1200CBB4022FA0CFE68
:100394004EEA030E01FA07F420FA0CF521FA0CF3E5
:1003A4004FEA1E482543B3FBF8F92C0C08FB19331C
:1003B4001FFA8EFA44EA034309FB0AF49C4202FA48
:1003C40007F200FA07F10BD91EEB030309F1FF3022
:1003D40080F087809C4240F28480A9F10209734432
:1003E4001B1BADB2B3FBF8F008FB103345EA034422
:1003F40000FB0AFAA24508D91EEB040400F1FF33FE
:100404006BD2A24569D90238744440EA0940A0FB82
:100414000289A4EB0A044C45C2464B4654D351D03E
:10042400002E69D0B1EB0A0564EB030404FA0CFC5A
:10043400FD40FC404CEA0505C6E90054002747E7A7
:10044400C2F1200320FA03F7954001FA02F021FAE1
:1004540003F34FEA154E3843010CB3FBFEF71FFAC2
:1004640085F80EFB173341EA034107FB08F38B427F
:1004740004FA02F407D9691807F1FF3C2FD28B4222
:100484002DD9023F2944CB1A81B2B3FBFEF00EFBF7
:10049400103341EA034100FB08F38B4207D9691882
:1004A40000F1FF3C17D28B4215D902382944C91AEE
:1004B40040EA07473BE73746304609E70746E7E6A1
:1004C4001846FBE64145ABD2B8EB020A69EB0E02D3
:1004D40001381346A4E76046E9E7184695E76746FE
:1004E400D1E781467CE702382C4447E7ACF1020CA3
:1004F4002B442FE7384608E73746E9E6704700BF44
:1005040010B504460E4B18784FF47A73B3FBF0F32E
:100514000C4A1068B0FBF3F000F088F868B90F2CAF
:1005240001D901200AE0002221464FF0FF3000F0FB
:1005340049F8034B5C60002000E0012010BD00BFBF
:10054400000000200800002008B50B4B1A6842F494
:1005540000721A601A6842F480621A601A6842F4DF
:1005640080721A60032000F01BF80020FFF7C8FF18
:1005740001F082FA002008BD003C0240034A1168E1
:10058400034B1B780B441360704700BF2800002006
:1005940000000020014B1868704700BF28000020AD
:1005A400074AD36823F4E0631B041B0C000200F425
:1005B400E060184340F0BF6040F40030D060704702
:1005C40000ED00E030B4174BDB68C3F30223C3F142
:1005D4000704042C28BF04241D1D062D18D9033B31
:1005E4004FF0FF3505FA04F421EA0401994005FAB5
:1005F40003F322EA0303194300280BDB0901C9B200
:1006040000F1604000F5614080F8001330BC704791
:100614000023E5E700F00F000901C9B2024B1954A9
:10062400F4E700BF00ED00E014ED00E00138B0F1A4
:10063400807F0AD2064B5860064AF02182F82310C4
:100644000020986007221A6070470120704700BF9D
:1006540010E000E000ED00E070B110B5044603794D
:1006640033B102232371002020610123237110BDC3
:10067400437101F01DFAF4E7012070474379012B1F
:100684001FD070B4012545710223037106683368D5
:1006940040F6FE74944023EA04040B6849680B4353
:1006A40093402343336004682368C02101FA02F2B3
:1006B40023EA02022260057100234371184670BCCC
:1006C400704702207047000000230F2B00F2D180F6
:1006D400F0B482B039E0062200E00022B2403A438E
:1006E4000234644E46F82420634A1468EA4302EA5A
:1006F40004064F6817F4803F01D045EA04065E4CB7
:100704002660646802EA04064F6817F4003F01D0CB
:1007140045EA0406584C6660A46802EA04064F6879
:1007240017F4801F01D045EA0406534CA660E46820
:1007340022404E6816F4001F01D045EA04024E4CD4
:10074400E26001330F2B00F2918001229A400C6881
:1007540004EA0205AA42F4D14C68022C01D0122CFE
:1007640010D1DE08083650F826C003F00704A700AD
:100774000F24BC402CEA040C0C69BC4044EA0C0471
:1007840040F8264004685F000326BE40F64306EAAC
:10079400040C4C6804F00304BC4044EA0C040460F8
:1007A4004C6804F1FF3CBCF1010F03D9112C01D0BA
:1007B400122C10D1846806EA040CCC68BC4044EACC
:1007C4000C048460446824EA02024C68C4F30014F4
:1007D4009C4014434460C26816408A68BA4032435D
:1007E400C2604A6812F0805FABD000220192234AB3
:1007F400546C44F480445464526C02F48042019278
:10080400019A9C08A61C1B4A52F8267003F00302A6
:1008140096000F22B24027EA0207194A90423FF499
:100824005CAF02F58062904216D002F5806290427D
:1008340014D002F58062904212D002F58062904298
:1008440010D002F5806290420ED002F58062904290
:100854003FF441AF072241E701223FE702223DE78F
:1008640003223BE7042239E7052237E702B0F0BC54
:100874007047704700380140003C01400038024096
:100884000000024012B90904816170478161704718
:10089400002800F0928038B5044690F841300BB33C
:1008A400022284F841202168CB6923F47B6323F07E
:1008B4000F03CB6123681A626369934275D0E368BE
:1008C400BBB91025A368202B00D86D0023683C4ACF
:1008D400934210D002F5806293420CD0022000F0C3
:1008E40001FC0BE080F84030364B436301F014F90F
:1008F400D6E72025E6E7012000F0F4FB2369B3F5F1
:10090400007F3AD0B0FBF5F000EB80004300626951
:10091400B3FBF2F305332C4AA2FB0323DB0803F0F9
:1009240001029B1A5B081202991EFD293FD8216916
:100934000A43216813430B622168CB6923F47B6368
:1009440023F00F036268A0680243E0680243A069D1
:100954000243134343F40063CB61A368302B01D0FB
:10096400B02B04D12268D36943F48053D3610020AF
:100974006064012384F8413038BDE36853B1AD00AD
:10098400B0FBF5F000EB800043006269B3FBF2F3C7
:100994000533C0E7ED00B0FBF5F000EB8000430049
:1009A4006269B3FBF2F30533B5E70022BCE7636C7D
:1009B40043F0100363640120DEE70120704700BFA9
:1009C40000380040430A0008CDCCCCCC704708B5B1
:1009D400426A03681288DA60436A02334362438DD1
:1009E400013B9BB24385438D9BB203B108BD0268B2
:1009F400536823F0A0035360012380F84130FFF7CC
:100A0400E5FFF3E7704708B50368DA68C36A1A803C
:100A1400C36A0233C362438E013B9BB24386438E57
:100A24009BB203B108BD0268536823F060035360AE
:100A3400012380F84130FFF7E5FFF3E7704710B575
:100A440084B0044602689368039390F84130DBB2A3
:100A5400042B06D094F84130DBB2032B2CD004B025
:100A640010BD039B13F0010F03D0536813F0400F24
:100A74001FD1039B13F0400FECD023685A6812F087
:100A8400200FE7D05A6822F060025A6000230193D5
:100A94002368DA6801929B680193019B012384F81F
:100AA4004130636C43F0020363642046FFF7C6FFE2
:100AB400D0E7FFF7A8FFDCE7039B13F0020F04D095
:100AC40023685B6813F0800F1DD1039B13F0080F9C
:100AD400C5D023685A6812F0200FC0D05A6822F09B
:100AE400A0025A600023029323689B680293029B2E
:100AF400012384F84130636C43F0040363642046AB
:100B0400FFF79CFFABE72046FFF761FFDDE700003E
:100B1400002800F09D8070B504464F4B1B6803F01D
:100B24000F038B4209D2CBB24B4A1370136803F004
:100B34000F038B4201D0012070BD236813F0020F14
:100B440017D013F0040F04D0444A936843F4E053DD
:100B54009360236813F0080F04D0404A936843F469
:100B6400604393603D4A936823F0F003A068034315
:100B740093600D46236813F0010F32D06368012B94
:100B840021D09A1E012A25D9344A126812F0020F84
:100B940060D032498A6822F0030213438B60FFF766
:100BA400F9FC06462D4B9B6803F00C036268B3EB1B
:100BB400820F16D0FFF7EEFC801B41F28833984277
:100BC400F0D90320B8E7254A126812F4003FE0D1B7
:100BD4000120B1E7214A126812F0007FD9D1012027
:100BE400AAE71D4B1B6803F00F03AB4209D9EAB215
:100BF400194B1A701B6803F00F03AB4201D001209C
:100C04009AE7236813F0040F06D0144A936823F478
:100C1400E053E1680B439360236813F0080F07D097
:100C24000E4A936823F46043216943EAC103936045
:100C340000F0D6FB094B9B68C3F30313084AD35C4B
:100C4400D840084B18600020FFF75AFC002073E7D7
:100C54000120704701206FE7003C02400038024049
:100C6400DC1C000808000020F0B583B004460368CB
:100C740013F0010F0CD0964AD2F88C3023F0C063E5
:100C8400816B0B43C2F88C30836B3BB3002600E0CE
:100C94000026236813F0020F0BD08D4AD2F88C3053
:100CA40023F0C053E16B0B43C2F88C30E36B03B900
:100CB4000126236813F0040F14D0854AD2F88C302F
:100CC40023F44013216B0B43C2F88C30236BB3F530
:100CD400801F05D0002B7BD0002504E00126D8E737
:100CE4000126F7E70025236813F0080F0ED0784A91
:100CF400D2F88C3023F44003616B0B43C2F88C3080
:100D0400636BB3F5800F65D003B90125236813F035
:100D1400200F61D1236813F0100F03D094F85820EA
:100D24006C4B1A60236813F0800F08D0684AD2F81D
:100D3400943023F44003E16C0B43C2F894302368ED
:100D440013F0400F08D0624AD2F8943023F0806345
:100D5400A16C0B43C2F89430236813F4807F0DD048
:100D64005B4AD2F8943023F00063616D0B43C2F800
:100D74009430636DB3F1006F00F09580236813F431
:100D8400007F08D0524AD2F8943023F08053616C2B
:100D94000B43C2F89430236813F4806F0CD04C4A90
:100DA400D2F8943023F00053216D0B43C2F89430F1
:100DB400236DB3F1005F78D0002E76D12368B3F5AC
:100DC400006F72D0002D40F02281002003B0F0BDEE
:100DD400012588E7012697E7002301933C4B1A6C11
:100DE40042F080521A641B6C03F080530193019B00
:100DF400394A136843F480731360FFF7CBFB07464B
:100E0400354B1B6813F4807F06D1FFF7C3FBC01B6F
:100E14000228F5D90320D9E72D4B1B6F13F4407337
:100E240012D0226C02F440729A420DD0284B1A6FF1
:100E340022F44072294901200860002008601A67E2
:100E44001B6F13F0010F12D1236C03F44072B2F53F
:100E5400407F1DD01E4A936823F4F81393601C4905
:100E64000B6F226CC2F30B0213430B6752E7FFF7BD
:100E740091FB0746164B1B6F13F0020FE4D1FFF7EB
:100E840089FBC01B41F288339842F3D903209DE7C4
:100E94000F498A6822F4F81223F0704323F4407354
:100EA40013438B60DBE7012568E70D4B00221A60D2
:100EB400FFF770FB0646064B1B6813F0006F11D05A
:100EC400FFF768FB801B0228F5D903207EE700BFEB
:100ED40000380240E011474200700040400E474293
:100EE40068004742236813F0010F01D0A26B22B1BE
:100EF40013F0020F15D0E36B9BB9774AD2F8840044
:100F0400D2F884106368A66843EA861300F440307C
:100F1400034301F070610B43616943EA0173C2F852
:100F24008430236813F0040F03D0226BB2F5801FC2
:100F340006D013F0080F20D0636BB3F5800F1CD1DB
:100F4400654AD2F88400D2F884106368A66843EA3C
:100F5400861300F440300343206943EA006301F040
:100F6400E0410B43C2F88430D2F88C3023F01F03E5
:100F7400A16A01390B43C2F88C30236813F4806FE3
:100F840003D0236DB3F1005F28D0236813F4006FFE
:100F940011D06368A26843EA8213E2685208013AF6
:100FA40043EA0243226943EA0263626943EA027341
:100FB400494AC2F88430494B01221A60FFF7EAFA21
:100FC4000646454B1B6813F0006F7FF4FBAEFFF73A
:100FD400E1FA801B0228F4D90320F7E63E48D0F852
:100FE4008430C3F301435A1CD0F884606368A16859
:100FF40043EA8113E1684908013943EA014343EABA
:10100400426306F0E0421343C0F88430BDE7344B3A
:1010140000221A60FFF7BEFA05462F4B1B6813F037
:10102400005F06D0FFF7B6FA401B0228F5D903206B
:10103400CCE6236813F0040F01D0226B22B113F025
:10104400080F1AD0636BC3B9234AD2F88810A36976
:10105400E06943EA801301F440310B43616A43EAD7
:101064000163C2F88830D2F88C3023F4F853E16A73
:10107400013943EA0123C2F88C30236813F4807FDA
:1010840003D0636DB3F1006F11D0154B01221A60C8
:10109400FFF780FA0446104B1B6813F0005F18D169
:1010A400FFF778FA001B0228F5D903208EE60A48D8
:1010B400D0F88810A369E26943EA8213226A5208CD
:1010C400013A43EA024301F070621343C0F88830E6
:1010D400DBE700207AE600BF0038024068004742A0
:1010E400700047420138072800F26381DFE810F0FE
:1010F400A2000301610108006101610161010800AE
:10110400B34BD3F88C3003F47003B3F5401F00F0F5
:10111400528108D8B3F5801F16D0B3F5001F69D0EB
:10112400A3B300207047B3F5000F63D0B3F5400FAD
:1011340007D1A74B5B6813F4800F40F03E81A548AC
:101144007047B3F5800FECD1A14B5B6813F4800FAB
:1011540047D19F4BD3F8843003F03F039D48B0FB45
:10116400F3F09B4BD3F88420C2F30362D3F88410CA
:10117400C1F3881100FB01F0B0FBF2F0D3F88C301E
:1011840003F01F030133B0FBF3F07047904B5B682F
:1011940013F4800F1CD18E4BD3F8883003F03F0337
:1011A4008C48B0FBF3F08A4BD3F88820C2F3036277
:1011B400D3F88810C1F3881100FB01F0B0FBF2F002
:1011C400D3F88C30C3F304230133B0FBF3F070473E
:1011D4007F4BD3F8883003F03F037F48B0FBF3F034
:1011E400E1E77B4BD3F8843003F03F037A48B0FB4C
:1011F400F3F0B6E7764B5B6813F4800F12D1744BAF
:101204005B6803F03F037348B0FBF3F0704A536824
:10121400C3F302735268C2F3881200FB02F0B0FBFE
:10122400F3F070476A4B5B6803F03F036A48B0FB16
:10123400F3F0EBE7664BD3F88C3003F0C063B3F103
:10124400007F2DD00ED9B3F1806F34D0B3F1C06FCD
:1012540040F0B5805E4B5B6813F4800F00F0B18002
:101264005D487047002B40F0AA80594B5B6813F42B
:10127400800F17D0564BD3F8843003F03F03564801
:10128400B0FBF3F0524AD2F88430C3F3881300FB66
:1012940003F0D2F88430C3F30273B0FBF3F0704769
:1012A4004E4870474A4BD3F8843003F03F03494813
:1012B400B0FBF3F0E6E7464B5B6813F4800F12D003
:1012C400434B5B6803F03F034348B0FBF3F0404AF1
:1012D4005368C3F3881300FB03F05368C3F302732A
:1012E400B0FBF3F070473A4B5B6803F03F033948B7
:1012F400B0FBF3F0EBE7364BD3F88C3003F0C0537C
:10130400B3F1006F2AD00CD9B3F1805F31D0B3F1BF
:10131400C05F58D12E4B5B6813F4800F55D02E4814
:101324007047002B4FD12A4B5B6813F4800F17D002
:10133400274BD3F8843003F03F032748B0FBF3F086
:10134400234AD2F88430C3F3881300FB03F0D2F8A5
:101354008430C3F30273B0FBF3F070471F48704747
:101364001B4BD3F8843003F03F031A48B0FBF3F06F
:10137400E6E7174B5B6813F4800F12D0144B5B68DD
:1013840003F03F031448B0FBF3F0114A5368C3F36E
:10139400881300FB03F05368C3F30273B0FBF3F04C
:1013A40070470B4B5B6803F03F030A48B0FBF3F054
:1013B400EBE7002070470948704707487047002052
:1013C400704704487047002070470248704700BFC8
:1013D400003802400024F40040787D010080BB0006
:1013E4002DE9F04B444B9B6803F00C03082B06D00B
:1013F4000C2B42D0042B7CD04048BDE8F08B3E4BF4
:101404005A6802F03F025B6813F4800F12D03A4B23
:101414005968C1F3881100233948A1FB0001FEF784
:10142400EFFE354B5B68C3F3014301335B00B0FB54
:10143400F3F0E2E7304B5B68C3F388131E460027E2
:101444005C010025E41A65EB0705A90141EA9461F2
:10145400A001001B61EB0501CB0043EA5073C400FB
:10146400A01943EB07018B0243EA90538402204600
:1014740019460023FEF7C4FED3E71F4B5A6802F057
:101484003F025B6813F4800F10D01B4B5968C1F303
:10149400881100231A48A1FB0001FEF7B1FE164B88
:1014A4005B68C3F30273B0FBF3F0A6E7124B5B680F
:1014B400C3F388131E4600275C010025E41A65EB7C
:1014C4000705A90141EA9461A001001B61EB050134
:1014D400CB0043EA5073C400A01943EB07018B020D
:1014E40043EA90538402204619460023FEF788FEFF
:1014F400D5E7034881E700BF003802400024F40028
:1015040040787D0170B582B00446036813F0010F82
:1015140041D0A64B9B6803F00C03042B32D0A34BA1
:101524009B6803F00C03082B27D0A04B9B6803F0A7
:101534000C030C2B59D06368B3F5803F5BD0B3F533
:10154400A02F5ED0994B1A6822F480321A601A6870
:1015540022F480221A606368002B5CD0FFF71AF82B
:101564000546924B1B6813F4003F14D1FFF712F8A1
:10157400401B6428F5D903209DE18C4B5B6813F470
:10158400800FD2D0894B1B6813F4003F03D06368EB
:10159400002B00F08D81236813F0020F67D0834B7A
:1015A4009B6813F00C0F4AD0804B9B6803F00C032C
:1015B400082B3FD07D4B9B6803F00C030C2B48D0C9
:1015C400E368002B74D07A4B01221A60FEF7E2FF25
:1015D4000546764B1B6813F0020F60D1FEF7DAFF65
:1015E400401B0228F5D9032065E1704B5B6813F4B6
:1015F400800FA0D0C6E76D4A136843F480331360AC
:10160400A9E76A4B1A6842F480221A601A6842F405
:1016140080321A609FE7FEF7BDFF0546634B1B68E7
:1016240013F4003FB7D0FEF7B5FF401B6428F5D98B
:10163400032040E15D4B5B6813F4800FBAD15B4B30
:101644001B6813F0020F0AD0E368012B07D00120B6
:1016540031E1564B5B6813F4800FB1D1EFE7534A85
:10166400136823F0F803216943EAC1031360236874
:1016740013F0080F40D0636963B34E4B01221A6024
:10168400FEF788FF0546494B5B6F13F0020F33D119
:10169400FEF780FF401B0228F5D903200BE1434AE3
:1016A400136823F0F803216943EAC1031360DEE7FA
:1016B4003F4B00221A60FEF76DFF05463B4B1B684B
:1016C40013F0020FD3D0FEF765FF401B0228F5D9B3
:1016D4000320F0E0374B00221A60FEF75BFF05465B
:1016E400324B5B6F13F0020F06D0FEF753FF401B23
:1016F4000228F5D90320DEE0236813F0040F79D023
:101704002A4B1B6C13F0805F33D100230193274BCA
:101714001A6C42F080521A641B6C03F080530193DC
:10172400019B0125244B1B6813F4807F23D0A368FD
:10173400012B34D0052B41D01C4B1A6F22F001022F
:101744001A671A6F22F004021A67A368002B3FD0AD
:10175400FEF720FF0646154B1B6F13F0020F48D10E
:10176400FEF718FF801B41F288339842F3D9032017
:10177400A1E00025D6E7104A136843F48073136090
:10178400FEF708FF06460C4B1B6813F4807FCED18E
:10179400FEF700FF801B0228F5D903208BE0034AE3
:1017A400136F43F001031367CFE700BF0038024013
:1017B40000004742800E474200700040404B1A6FC1
:1017C40042F004021A671A6F42F001021A67BCE77A
:1017D400FEF7E0FE06463A4B1B6F13F0020F08D0EB
:1017E400FEF7D8FE801B41F288339842F3D90320D8
:1017F40061E0E5B9A369002B5CD0314A926802F03C
:101804000C02082A59D0022B17D02E4B00221A6042
:10181400FEF7C0FE04462A4B1B6813F0007F45D038
:10182400FEF7B8FE001B0228F5D9032043E0244A42
:10183400136C23F080531364DCE7224B00221A60FC
:10184400FEF7A8FE05461E4B1B6813F0007F06D06A
:10185400FEF7A0FE401B0228F5D903202BE0E36924
:10186400226A1343626A43EA8213A26A5208013A63
:1018740043EA0243E26A43EA0263226B43EA0273E5
:101884000F4A53600F4B01221A60FEF783FE044691
:101894000B4B1B6813F0007F06D1FEF77BFE001B89
:1018A4000228F5D9032006E0002004E0002002E02D
:1018B400012000E0002002B070BD0120FBE700BF62
:1018C400003802406000474230B589B000240394D8
:1018D40004940594069407940094184B1A6B42F0F0
:1018E40001021A631A6B02F001020092009A019439
:1018F4001A6B42F004021A631A6B02F0040201929A
:10190400019A02941A6B42F002021A631B6B03F0F1
:1019140002030293029B0A4D012202212846FEF78C
:10192400B1FF02230393012304930594069403A9AE
:101934002846FEF7C9FE09B030BD00BF003802409A
:101944000004024030B583B0002400940194074D94
:10195400074B2B602846FEF77FFE00940194224635
:1019640069462846FEF78AFE03B030BD2C000020ED
:101974000074004008B50B480B4B03604FF44073F0
:101984004360302383600023C3604FF4007202611C
:101994004FF4FA52426108228261C3610362FEF786
:1019A40077FF08BD4000002000300140F0B5ADB025
:1019B400342200211FA800F07BF900241A941B9400
:1019C4001C941D941E945C22214603A800F070F917
:1019D4000194214B1A6C42F080521A641B6C03F080
:1019E40080530193019B02941C4A136823F44043DF
:1019F40043F480431360136803F440430293029B4F
:101A040002251F95012622961023239325952694BB
:101A1400082727974823289329952A952B951FA8AB
:101A2400FFF770FD0F231A931B9590231C931D94AD
:101A34001E9421461AA8FFF76BF8039532230593E9
:101A440006950497089507950D96129403A8FFF739
:101A54000BF92DB0F0BD00BF00380240007000400B
:101A640008B5FEF771FDFFF7A1FFFFF72DFFFFF7A4
:101A740069FFFFF77FFFFEE782B0002100910B4B67
:101A84005A6C42F480425A645A6C02F480420092C6
:101A9400009A01911A6C42F080521A641B6C03F094
:101AA40080530193019B02B0704700BF003802408D
:101AB40000B589B000230393049305930693079319
:101AC4000268134B9A4202D009B05DF804FB00216E
:101AD400019103F5E2331A6C42F000521A641A6C55
:101AE40002F000520192019A02911A6B42F0010233
:101AF4001A631B6B03F001030293029B10230393ED
:101B04000323049303A90348FEF7DEFDDCE700BFCB
:101B1400007400400000024070B588B000230393B5
:101B2400049305930693079302681E4B9A4201D0CF
:101B340008B070BD0024009403F584335A6C42F459
:101B440080525A645A6C02F480520092009A0194B2
:101B54001A6B42F001021A631A6B02F0010201923D
:101B6400019A02941A6B42F004021A631B6B03F08D
:101B740004030293029B48F2A003039302260496F3
:101B84000525079503A90848FEF79EFD1023039336
:101B9400049605940694079503A90448FEF794FD5A
:101BA400C6E700BF003001400000024000080240C8
:101BB4007047FEE7FEE7FEE7FEE7704770477047B1
:101BC40008B5FEF7DBFC08BD0F49D1F8883043F4B3
:101BD4007003C1F888300D4B1A6842F001021A6094
:101BE400002098601A6822F0847222F480321A600D
:101BF400074A5A601A6822F480221A60D8604FF0AB
:101C040000638B60704700BF00ED00E000380240C5
:101C140010300024DFF834D0002103E00C4B5B5873
:101C2400435004310B480C4B42189A42F6D30B4AEA
:101C340002E0002342F8043B094B9A42F9D3FFF730
:101C4400C3FF00F011F8FFF70BFF704700000220FC
:101C5400041D0008000000200C0000200C000020DF
:101C640088000020FEE7000070B50D4E0D4CA41B4B
:101C7400A4100025A54209D10B4E0C4C00F020F80D
:101C8400A41BA4100025A54205D170BD56F825302B
:101C940098470135EEE756F8253098470135F2E7C5
:101CA400FC1C0008FC1C0008FC1C0008001D0008AB
:101CB40002440346934200D1704703F8011BF9E73D
:101CC400F8B500BFF8BC08BC9E467047F8B500BF25
:081CD400F8BC08BC9E467047F5
:101CDC0000000000000000000102030406070809D0
:081CEC000000000001020304E6
:081CF40040E5FF7F0100000044
:041CFC00E9010008F2
:041D0000C501000811
:0C1D040001000000100000000024F400AA
:0400000508001C19BA
:00000001FF
