:100000000C942A000C948B060C9447000C94470027
:100010000C9447000C9447000C9447000C94441037
:100020000C9447000C9447000C9447000C94470034
:100030000C9447000C9447000C9447000C94470024
:100040000C9447000C9447000C9447000C94470014
:100050000C94470011241FBECFE5D8E0DEBFCDBF12
:1000600010E0A0E6B0E0E4E5FBE302C005900D92ED
:10007000A638B107D9F713E0A6E8B0E001C01D9299
:10008000AD36B107E1F70E94A3050C94A81D0C94AE
:100090000000EF92FF920F931F937B018C0120E0F1
:1000A00030E040E05FE40E94490388238CF0C801FF
:1000B000B70120E030E040E05FE40E94C1010E940F
:1000C000A9039B01AC01205030404040504806C07D
:1000D000C801B7010E94A9039B01AC01B901CA0183
:1000E0001F910F91FF90EF900895A0E0B0E0EBE733
:1000F000F0E00C94521DDC012B01FA019C9192302E
:1001000008F439C1EB018881823008F433C194309E
:1001100069F4843009F02FC111969C91119789815F
:10012000981709F428C1ABE7B0E025C1843009F481
:1001300021C18230A9F4923009F01DC19A01AD01AC
:1001400088E0EA010990AE01E90109929E0181501F
:10015000C1F7E201898111969C918923818308C1AD
:10016000923009F407C112962D903C901397EB0141
:100170008A819B811496AD90BD90CD90DC901797AD
:10018000EC80FD800E811F819101281B390BB90184
:1001900037FF04C066277727621B730B6032710537
:1001A0000CF061C0121613066CF537014801062EDB
:1001B00004C096948794779467940A94D2F721E0C8
:1001C00030E040E050E004C0220F331F441F551FB1
:1001D0006A95D2F721503040404050402E213F21B7
:1001E00040235123211531054105510521F021E01E
:1001F00030E040E050E079018A01E628F72808293C
:1002000019293CC0232BD1F1260E371E350146019A
:10021000062E04C096948794779467940A94D2F734
:1002200021E030E040E050E004C0220F331F441FC3
:10023000551F6A95D2F721503040404050402A2146
:100240003B214C215D21211531054105510521F04E
:1002500021E030E040E050E059016A01A628B728CB
:10026000C828D9280BC0821593052CF01C01AA249C
:10027000BB24650103C0EE24FF24870111969C91E5
:10028000D20111968C91981709F445C0992339F041
:10029000A80197012A193B094C095D0906C0A6016E
:1002A00095012E193F09400B510B57FD08C01182D3
:1002B0003382228224833583468357831DC081E0A5
:1002C00081833382228288279927DC01821B930B4A
:1002D000A40BB50B84839583A683B7830DC0220F2F
:1002E000331F441F551F24833583468357838281E0
:1002F000938101979383828324813581468157813D
:10030000DA01C9010197A109B1098F5F9F4FAF4F72
:10031000BF4328F30BC0918333822282EA0CFB1C7B
:100320000C1D1D1DE482F5820683178383E0808304
:10033000248135814681578157FF1AC0C901AA27F8
:1003400097FDA095BA2F81709070A070B0705695EF
:10035000479537952795822B932BA42BB52B848318
:100360009583A683B7838281938101969383828349
:10037000DF0101C0D201CD01CDB7DEB7E2E10C94BF
:100380006E1DA0E2B0E0E7ECF1E00C945E1D698325
:100390007A838B839C832D833E834F835887E9E048
:1003A000EE2EF12CEC0EFD1ECE010196B7010E943F
:1003B000D2048E010F5E1F4FCE010596B8010E9438
:1003C000D2048A8991E089278A8BC701B801AE01DE
:1003D000475E5F4F0E9475000E94FD03A096E6E015
:1003E0000C947A1DA0E2B0E0E8EFF1E00C945E1D01
:1003F00069837A838B839C832D833E834F835887C5
:10040000F9E0EF2EF12CEC0EFD1ECE010196B701A6
:100410000E94D2048E010F5E1F4FCE010596B801D7
:100420000E94D204C701B801AE01475E5F4F0E942F
:1004300075000E94FD03A096E6E00C947A1DA0E2F0
:10044000B0E0E5E2F2E00C94521D69837A838B837D
:100450009C832D833E834F835887CE010196BE0136
:10046000675F7F4F0E94D204CE010596BE016F5E8A
:100470007F4F0E94D2049985923088F0898982301A
:10048000C8F0943019F4823051F404C0843029F457
:10049000923081F48BE790E0C6C0923049F420E0BE
:1004A0009A858A89981321E02A87CE010996BBC0D4
:1004B000823049F420E09A858A89981321E02A8BBA
:1004C000CE014196B0C02D843E844F8458886D88FB
:1004D0007E888F88988CEE24FF248701AA24BB2471
:1004E000650140E050E060E070E0E0E0F0E0C10174
:1004F00081709070892BE9F0E60CF71C081D191D1E
:100500009A01AB012A0D3B1D4C1D5D1D80E090E062
:10051000A0E0B0E0E614F7040805190520F481E036
:1005200090E0A0E0B0E0BA01A901480F591F6A1F8E
:100530007B1FAA0CBB1CCC1CDD1C97FE08C081E0F5
:1005400090E0A0E0B0E0A82AB92ACA2ADB2A3196B6
:10055000E032F10549F0660C771C881C991C569412
:10056000479437942794C3CFFA85EA892B893C892D
:100570008B859C85280F391F2E5F3F4F17C0CA01FE
:1005800081709070892B61F016950795F794E79428
:1005900080E090E0A0E0B0E8E82AF92A0A2B1B2BC3
:1005A00076956795579547952F5F3F4F77FDE7CF36
:1005B0000CC0440F551F661F771F17FD4160EE0CDE
:1005C000FF1C001F111F21503040403090E05907A0
:1005D00090E0690790E4790760F32B8F3C8FDB0193
:1005E000CA018F779070A070B07080349105A1051A
:1005F000B10561F447FD0AC0E114F10401051105DC
:1006000029F0405C5F4F6F4F7F4F40781A8EFE1786
:1006100011F081E08A8F4D8F5E8F6F8F78A383E01A
:10062000898FCE0149960E94FD03A096E2E10C94C9
:100630006E1DA8E1B0E0EFE1F3E00C945E1D69836C
:100640007A838B839C832D833E834F83588789E0F5
:10065000E82EF12CEC0EFD1ECE010196B7010E9492
:10066000D2048E010F5E1F4FCE010596B8010E9485
:10067000D2048985823040F08989823028F0C70110
:10068000B8010E944A0501C08FEF6896E6E00C941D
:100690007A1DA8E1B0E0EFE4F3E00C945E1D6983FD
:1006A0007A838B839C832D833E834F83588789E095
:1006B000E82EF12CEC0EFD1ECE010196B7010E9432
:1006C000D2048E010F5E1F4FCE010596B8010E9425
:1006D000D2048985823040F08989823028F0C701B0
:1006E000B8010E944A0501C08FEF6896E6E00C94BD
:1006F0007A1DA8E1B0E0EFE7F3E00C945E1D69839A
:100700007A838B839C832D833E834F83588789E034
:10071000E82EF12CEC0EFD1ECE010196B7010E94D1
:10072000D2048E010F5E1F4FCE010596B8010E94C4
:10073000D2048985823040F08989823028F0C7014F
:10074000B8010E944A0501C081E06896E6E00C9479
:100750007A1DACE0B0E0EFEAF3E00C94621D69832F
:100760007A838B839C83CE010196BE016B5F7F4FA2
:100770000E94D2048D81823061F1823050F1843048
:1007800021F48E81882351F12EC02F81388537FDC9
:1007900020C06E812F3131051CF06623F9F023C093
:1007A0008EE190E0821B930B29853A854B855C8511
:1007B00004C056954795379527958A95D2F76623B5
:1007C000B1F050954095309521953F4F4F4F5F4F79
:1007D0000EC020E030E040E050E009C02FEF3FEFD6
:1007E0004FEF5FE704C020E030E040E050E8B9019F
:1007F000CA012C96E2E00C947E1DDF92EF92FF92EC
:100800000F931F93FC01E480F58006811781D1804E
:100810008081823048F480E090E0A0E1B0E0E82AF6
:10082000F92A0A2B1B2BA5C0843009F49FC0823003
:1008300021F4EE24FF24870105C0E114F104010531
:10084000110519F4E0E0F0E096C0628173819FEF3A
:10085000623879070CF05BC022E83FEF261B370BAC
:100860002A3131052CF020E030E040E050E02AC091
:10087000B801A701022E04C0769567955795479554
:100880000A94D2F781E090E0A0E0B0E004C0880FC5
:10089000991FAA1FBB1F2A95D2F70197A109B10979
:1008A0008E219F21A023B1230097A105B10521F03E
:1008B00081E090E0A0E0B0E09A01AB01282B392B59
:1008C0004A2B5B2BDA01C9018F779070A070B07052
:1008D00080349105A105B10539F427FF09C0205CDA
:1008E0003F4F4F4F5F4F04C0215C3F4F4F4F5F4F13
:1008F000E0E0F0E02030A0E03A07A0E04A07A0E402
:100900005A0710F0E1E0F0E079018A0127C0603871
:10091000710564F5FB01E158FF4FD801C7018F77DE
:100920009070A070B07080349105A105B10539F4C4
:10093000E7FE0DC080E490E0A0E0B0E004C08FE3EB
:1009400090E0A0E0B0E0E80EF91E0A1F1B1F17FFA1
:1009500005C016950795F794E794319687E01695AC
:100960000795F794E7948A95D1F705C0EE24FF2404
:100970008701EFEFF0E06E2F679566276795902F60
:100980009F77D794DD24D7948E2F8695492F462BB9
:10099000582F5D29B701CA011F910F91FF90EF9069
:1009A000DF900895FC01DB01408151812281622F9B
:1009B0006F7770E0221F2227221F9381892F880FD3
:1009C000822B282F30E0991F9927991F11969C930D
:1009D000119721153105A9F54115510561057105DD
:1009E00011F482E037C082E89FEF13969C938E93B8
:1009F00012979A01AB0167E0220F331F441F551F66
:100A00006A95D1F783E08C930DC0220F331F441FEA
:100A1000551F12968D919C911397019713969C9355
:100A20008E931297203080E0380780E0480780E4FA
:100A3000580758F314962D933D934D935C93179755
:100A400008952F3F310579F4411551056105710570
:100A500019F484E08C93089564FF03C081E08C93C3
:100A600012C01C9210C02F57304013963C932E9307
:100A7000129783E08C9387E0440F551F661F771F02
:100A80008A95D1F7706414964D935D936D937C9322
:100A9000179708951F93DC01FB019C91923008F495
:100AA00047C08081823008F443C0943051F41196DD
:100AB0001C91843099F58181682F70E0611B710968
:100AC0003FC0843021F0923031F48230B9F181811D
:100AD000882389F12DC011961C9111978230F1F075
:100AE00081811817D9F412962D913C911397828128
:100AF00093818217930794F028173907BCF0149656
:100B00008D919D910D90BC91A02D248135814681C0
:100B10005781281739074A075B0718F4112341F05A
:100B20000AC082179307A407B50740F4112319F0F0
:100B300061E070E005C06FEF7FEF02C060E070E041
:100B4000CB011F910895AF92BF92CF92DF92EF92A7
:100B5000FF920F93DF93CF93CDB7DEB7A1E3B0E061
:100B6000E1E3F0E080818B7F8C93A2E3B0E0E2E3ED
:100B7000F0E0808184608C93A5E5B0E0E5E5F0E0ED
:100B800080818C7F8C93ABE5B0E0EBE5F0E0808179
:100B900080648C93AFE5B0E0EFE5F0E080818068A1
:100BA0008C930E94070B81E060E00E94F01090930C
:100BB0006C0380936B0320E630E08BEF95E0B90186
:100BC00045E550E020E030E002E0EE24FF24CC24B4
:100BD000DD24AA24BB240E94E7140E943F1880E071
:100BE00090E0CF91DF910F91FF90EF90DF90CF9049
:100BF000BF90AF900895DF93CF93CDB7DEB76097E6
:100C00000FB6F894DEBF0FBECDBF988B8F87809153
:100C10006B0390916C0360E070E04FEF5FEF20E0BA
:100C20000E94FA1185E690E00E94FE0B80E090E0C1
:100C3000AAE7B4E48B879C87AD87BE876B857C85EC
:100C40008D859E8520E030E84BE355E40E941F022D
:100C5000DC01CB018F839887A987BA876F8178855C
:100C600089859A8520E030E040E85FE30E947903BF
:100C700088232CF481E090E09E838D833FC06F81B8
:100C8000788589859A8520E03FEF4FE757E40E94F9
:100C9000190318164CF56B857C858D859E8520E0A3
:100CA00030E040E251E40E941F02DC01CB01BC01B4
:100CB000CD010E944900DC01CB019E838D830FC0D2
:100CC0008CE291E09C838B838B819C810197F1F76F
:100CD0009C838B838D819E8101979E838D838D81E3
:100CE0009E81009769F714C06F81788589859A8500
:100CF0000E944900DC01CB019E838D838D819E8102
:100D00009A83898389819A810197F1F79A838983EC
:100D10000E94F40B7CCF1F920F920FB60F921124FA
:100D20002F933F934F935F936F937F938F939F93F3
:100D3000AF93BF93EF93FF93DF93CF93CDB7DEB71E
:100D400080916B0390916C0360E070E040E050E0B4
:100D500020E00E94AD11CF91DF91FF91EF91BF9103
:100D6000AF919F918F917F916F915F914F913F9143
:100D70002F910F900FBE0F901F901895DF93CF9378
:100D8000CDB7DEB727970FB6F894DEBF0FBECDBF45
:100D90009D838C836E834F838AE190E00E94960945
:100DA0009A83898389819A81009709F46FC0809121
:100DB000860090918700009741F489819A819093F1
:100DC0008700809386000E9425098E81823010F072
:100DD00081E08E83E981FA81118E108EE981FA819A
:100DE0008E81868BE981FA818F81878BE981FA81F7
:100DF0008C819D819183808389819A8102960E9452
:100E0000630C89819A810C960E94630CE981FA81B6
:100E100089819A8191878087E981FA8189819A8184
:100E2000938B828B8E81282F30E082E090E0821BB2
:100E3000930BE981FA8195878487E981FA81968904
:100E400080918800891728F4E981FA818689809346
:100E50008800E981FA818689282F30E0C901880F4E
:100E6000991F880F991F880F991F820F931FAC013C
:100E700041575F4F89819A819C012E5F3F4FCA0184
:100E8000B9010E94730C81E08B8302C08FEF8B83CA
:100E90008B8127960FB6F894DEBF0FBECDBFCF91E2
:100EA000DF910895DF93CF9300D000D000D0CDB76D
:100EB000DEB79C838B837E836D8320918900309184
:100EC0008A008B819C81820F931F9A8389838091F2
:100ED00086009091870002960E942B0DE09186007B
:100EE000F091870089819A81938382832091890080
:100EF00030918A0089819A818217930770F48091DA
:100F0000B5009091B60020918600309187002E5F49
:100F10003F4FB9010E94BF0C0DC08091B30090916A
:100F2000B40020918600309187002E5F3F4FB901B9
:100F30000E94BF0C8D819E81009761F08091860098
:100F4000909187009C01245F3F4F8D819E81B90164
:100F50000E94BF0C26960FB6F894DEBF0FBECDBF21
:100F6000CF91DF910895DF93CF9300D0CDB7DEB757
:100F70003AC0F894E091BC00F091BD008681978161
:100F80009A83898389819A810C960E942B0D78948B
:100F900089819A8102960E942B0DE981FA819689B6
:100FA00080918800891728F4E981FA8186898093E5
:100FB0008800E981FA818689282F30E0C901880FED
:100FC000991F880F991F880F991F820F931FAC01DB
:100FD00041575F4F89819A819C012E5F3F4FCA0123
:100FE000B9010E94730C8091B700882309F0C1CF2A
:100FF0000F900F90CF91DF910895DF93CF9300D0A2
:1010000000D0CDB7DEB70E94181920918B00309127
:101010008C00821B930B90938E0080938D0085C073
:101020008091890090918A00019690938A00809324
:10103000890080918D0090918E00019790938E0091
:1010400080938D008091890090918A00009709F02B
:1010500064C08091B3009091B4009A838983809199
:10106000B5009091B6009093B4008093B30089814D
:101070009A819093B6008093B5004FC0E091B30081
:10108000F091B4000580F681E02D868197819C83E4
:101090008B83EB81FC812281338180918900909147
:1010A0008A008217930708F440C0F8948B819C81D2
:1010B00002960E942B0DEB81FC8184899589009713
:1010C00029F08B819C810C960E942B0D7894EB81EA
:1010D000FC81968980918800891728F4EB81FC8136
:1010E000868980938800EB81FC818689282F30E0F7
:1010F000C901880F991F880F991F880F991F820FA8
:10110000931FAC0141575F4F8B819C819C012E5FE7
:101110003F4FCA01B9010E94730CE091B300F091F6
:10112000B4008081882309F0A9CF80918D0090912F
:101130008E00009709F074CF8091890090918A0009
:1011400090938C0080938B000F900F900F900F90D6
:10115000CF91DF910895DF93CF9300D0CDB7DEB765
:101160000E94B3070E94FD070AC08091880088236F
:1011700009F466C080918800815080938800809136
:101180008800282F30E0C901880F991F880F991F08
:10119000880F991F820F931FFC01E157FF4F808139
:1011A000882319F380918800282F30E0C901880F27
:1011B000991F880F991F880F991F820F931F8157BE
:1011C0009F4F9A838983E981FA810180F281E02D22
:1011D00082819381E981FA8192838183E981FA8115
:1011E0002181328189819A8103962817390759F420
:1011F000E981FA810180F281E02D82819381E98188
:10120000FA8192838183E981FA810180F281E02D64
:10121000868197819093870080938600E091860075
:10122000F0918700408151818091860090918700E4
:10123000E0918600F09187002789622FFA010995D5
:101240000F900F90CF91DF910895DF93CF930F927E
:10125000CDB7DEB7198213C08981282F30E0C901CC
:10126000880F991F880F991F880F991F820F931F4E
:1012700081579F4F0E94390C89818F5F89838981B3
:10128000823050F381EA90E00E94390C8AEA90E0C3
:101290000E94390C87EB90E00E94390C81EA90E0C3
:1012A0009093B4008093B3008AEA90E09093B600E4
:1012B0008093B5000F90CF91DF910895DF93CF9386
:1012C00000D000D00F92CDB7DEB79D838C83EC8128
:1012D000FD810580F681E02D868197819B838A833D
:1012E0008A819B810C960E942B0D8A819B819C0197
:1012F000245F3F4F87EB90E0B9010E94730CEA81B5
:10130000FB819689E0918600F09187008689981785
:1013100018F081E0898301C0198289810F900F90B4
:101320000F900F900F90CF91DF910895DF93CF939F
:1013300000D000D0CDB7DEB79C838B831A82198290
:101340000E9482188091C0009091C1002B813C8145
:10135000820F931F22E08835920718F52091C00074
:101360003091C1008B819C81280F391F8091C00072
:101370009091C10082179307A0F48091C0009091D2
:10138000C1008E539F4F9A8389832091C000309172
:10139000C1008B819C81820F931F9093C100809329
:1013A000C0000E948E1889819A810F900F900F9033
:1013B0000F90CF91DF910895DF93CF9300D0CDB7F9
:1013C000DEB79A8389830F900F90CF91DF910895B4
:1013D000DF93CF93CDB7DEB71092C1001092C0005B
:1013E000CF91DF910895DF93CF93CDB7DEB72091F2
:1013F000C0003091C10088E592E0821B930BCF9131
:10140000DF910895DF93CF93CDB7DEB76C970FB61A
:10141000F894DEBF0FBECDBFA8E3B0E0E8E3F0E094
:1014200080818B7F8C9380E090E0A0E8BFE3898F80
:101430009A8FAB8FBC8F698D7A8D8B8D9C8D20E0C0
:1014400030E84BE355E40E941F02DC01CB018D8B99
:101450009E8BAF8BB88F6D897E898F89988D20E0A8
:1014600030E040E85FE30E94790388232CF481E0B8
:1014700090E09C8B8B8B3FC06D897E898F89988D86
:1014800020E03FEF4FE757E40E94190318164CF590
:10149000698D7A8D8B8D9C8D20E030E040E251E4A7
:1014A0000E941F02DC01CB01BC01CD010E9449005A
:1014B000DC01CB019C8B8B8B0FC08CE291E09A8B73
:1014C000898B89899A890197F1F79A8B898B8B8906
:1014D0009C8901979C8B8B8B8B899C89009769F7E2
:1014E00014C06D897E898F89988D0E944900DC0126
:1014F000CB019C8B8B8B8B899C89988B8F878F855D
:1015000098890197F1F7988B8F87A8E3B0E0E8E31B
:10151000F0E0808184608C9380E090E0A0ECB0E407
:101520008B879C87AD87BE876B857C858D859E85E7
:1015300020E030E84BE355E40E941F02DC01CB01C0
:101540008F839887A987BA876F81788589859A85DF
:1015500020E030E040E85FE30E94790388232CF428
:1015600081E090E09E838D833FC06F81788589857F
:101570009A8520E03FEF4FE757E40E9419031816C1
:101580004CF56B857C858D859E8520E030E040E2C2
:1015900051E40E941F02DC01CB01BC01CD010E947D
:1015A0004900DC01CB019E838D830FC08CE291E06A
:1015B0009C838B838B819C810197F1F79C838B8328
:1015C0008D819E8101979E838D838D819E81009761
:1015D00069F714C06F81788589859A850E944900D2
:1015E000DC01CB019E838D838D819E819A838983CB
:1015F00089819A810197F1F79A8389836C960FB656
:10160000F894DEBF0FBECDBFCF91DF910895DF9379
:10161000CF93CDB7DEB7E7E3F0E08FEF8083E8E369
:10162000F0E084E0808383E30E94220B82E30E9447
:10163000220B88E20E94220B8CE00E94220BCF91A9
:10164000DF910895DF93CF9300D00F92CDB7DEB72F
:101650008B838B81807F8A838B818295807F898336
:10166000A8E3B0E0E8E3F0E080818E7F8C93A8E30C
:10167000B0E0E8E3F0E080818D7F8C93A8E3B0E0F8
:10168000E8E3F0E080818F708C93A8E3B0E0E8E3BA
:10169000F0E090818A81892B8C930E94020AA8E352
:1016A000B0E0E8E3F0E080818F708C93A8E3B0E0D5
:1016B000E8E3F0E090818981892B8C930E94020AF3
:1016C0000F900F900F90CF91DF910895DF93CF93FC
:1016D00000D00F92CDB7DEB78B83A8E3B0E0E8E38C
:1016E000F0E0808181608C93A8E3B0E0E8E3F0E073
:1016F00080818D7F8C938B81807F8A838B81829583
:10170000807F8983A8E3B0E0E8E3F0E080818F7018
:101710008C93A8E3B0E0E8E3F0E090818A81892B24
:101720008C930E94020AA8E3B0E0E8E3F0E0808135
:101730008F708C93A8E3B0E0E8E3F0E090818981BA
:10174000892B8C930E94020A0F900F900F90CF91DB
:10175000DF910895DF93CF9300D000D00F92CDB7E3
:10176000DEB78A836B8380E889838A81282F30E003
:101770003D832C838C819D8181309105D1F02C811A
:101780003D81223031052CF48C819D81009761F0E0
:1017900020C02C813D812230310591F08C819D81CA
:1017A0008330910591F015C089819B81890F8983D0
:1017B00010C080EC898399818B81890F898309C04E
:1017C00089819B81890F898304C089819B81890FCD
:1017D000898389810E94220B0F900F900F900F90A8
:1017E0000F90CF91DF910895DF93CF93CDB7DEB700
:1017F00081E00E94220BCF91DF910895DF93CF9378
:1018000000D0CDB7DEB79A8389830AC0E981FA8117
:1018100080810E94660B89819A8101969A838983CF
:10182000E981FA818081882389F70F900F90CF9109
:10183000DF910895DF93CF9300D000D000D0CDB7D3
:10184000DEB79A8389837C836B835E834D838B8130
:101850009D81692F0E94AA0B89819A810E94FE0BAB
:1018600026960FB6F894DEBF0FBECDBFCF91DF91A5
:101870000895DF93CF9300D0CDB7DEB79A838983E5
:1018800089819A810396E981FA8192838183E98132
:10189000FA818FEF9FEF9483838389819A810396E6
:1018A000E981FA819683858389819A810396E9810A
:1018B000FA8190878783E981FA8110820F900F90D7
:1018C000CF91DF910895DF93CF9300D0CDB7DEB7EE
:1018D0009A838983E981FA81118610860F900F908F
:1018E000CF91DF910895DF93CF9300D000D000D047
:1018F000CDB7DEB79C838B837E836D83EB81FC81C8
:10190000818192819A838983E981FA81828193819D
:10191000ED81FE8193838283EB81FC8181819281C1
:10192000ED81FE8195838483E981FA810280F381D0
:10193000E02D8D819E81958384838D819E81E981B7
:10194000FA81938382838D819E81EB81FC819283D6
:101950008183ED81FE818B819C8191878087EB81E2
:10196000FC8180818F5FEB81FC81808326960FB69E
:10197000F894DEBF0FBECDBFCF91DF910895DF9306
:10198000CF93CDB7DEB728970FB6F894DEBF0FBE62
:10199000CDBF9E838D8378876F83EF81F8858081AB
:1019A00091819A83898389819A812FEF8F3F920752
:1019B00039F4ED81FE81878190859C838B8318C0EB
:1019C0008D819E8103969C838B8306C0EB81FC8175
:1019D000828193819C838B83EB81FC810280F381E4
:1019E000E02D2081318189819A818217930770F7D8
:1019F000EB81FC8182819381EF81F88593838283DF
:101A0000EF81F8850280F381E02D8F8198859583A1
:101A10008483EF81F8858B819C81958384838F817A
:101A20009885EB81FC8193838283EF81F8858D819A
:101A30009E8191878087ED81FE8180818F5FED811E
:101A4000FE81808328960FB6F894DEBF0FBECDBF0F
:101A5000CF91DF910895DF93CF9300D000D0CDB721
:101A6000DEB79C838B83EB81FC81A281B381EB8108
:101A7000FC818481958115969C938E931497EB81BC
:101A8000FC81A481B581EB81FC81828193811396D5
:101A90009C938E931297EB81FC81808591859A832C
:101AA0008983E981FA81218132818B819C81281788
:101AB000390741F4EB81FC8184819581E981FA81C8
:101AC00092838183EB81FC8111861086E981FA8102
:101AD00080818150E981FA8180830F900F900F906F
:101AE0000F90CF91DF910895DF93CF93CDB7DEB7FD
:101AF00028970FB6F894DEBF0FBECDBF9C838B83B3
:101B00007E836D8358874F83EB81FC8181E18083E5
:101B10008B819C8101979C838B83EB81FC8182E28A
:101B200080838B819C8101979C838B83EB81FC81DB
:101B300083E380838B819C8101979C838B838D8140
:101B40009E819A8389838981EB81FC8180838B814B
:101B50009C8101979C838B8389819A81892F992706
:101B60009A8389838981EB81FC8180838B819C812D
:101B700001979C838B83EB81FC8110828B819C81FC
:101B800001979C838B83EB81FC8180E880838B8130
:101B90009C8101979C838B83EB81FC8110828B81DC
:101BA0009C8101979C838B83EB81FC8182E0808305
:101BB0008B819C8101979C838B83EB81FC8183E0EB
:101BC00080838B819C8101979C838B83EB81FC813B
:101BD00084E080838B819C8101979C838B83EB8144
:101BE000FC8185E080838B819C8101979C838B8322
:101BF000EB81FC8186E080838B819C8101979C83B3
:101C00008B83EB81FC8187E080838B819C810197B2
:101C10009C838B83EB81FC8188E080838B819C811A
:101C200001979C838B83EB81FC8189E080838B818E
:101C30009C8101979C838B83EB81FC8180E1808375
:101C40008B819C8101979C838B83EB81FC8181E15B
:101C500080838B819C8101979C838B83EB81FC81AA
:101C600082E180838B819C8101979C838B83EB81B4
:101C7000FC8183E180838B819C8101979C838B8392
:101C8000EB81FC8184E180838B819C8101979C8323
:101C90008B83EB81FC8185E180838B819C81019723
:101CA0009C838B83EB81FC8186E180838B819C818B
:101CB00001979C838B83EB81FC8187E180838B81FF
:101CC0009C8101979C838B83EB81FC8188E18083DD
:101CD0008B819C8101979C838B83EB81FC8189E1C3
:101CE00080838B819C8101979C838B83EB81FC811A
:101CF00080E280838B819C8101979C838B83EB8125
:101D0000FC8181E280838B819C8101979C838B8302
:101D1000EB81FC8182E280838B819C8101979C8393
:101D20008B83EB81FC8183E280838B819C81019793
:101D30009C838B838F8198859A8389838981EB81AA
:101D4000FC8180838B819C8101979C838B8389811B
:101D50009A81892F99279A8389838981EB81FC81D4
:101D600080838B819C8101979C838B83EB81FC8199
:101D700086E280838B819C8101979C838B83EB819E
:101D8000FC8187E280838B819C8101979C838B837C
:101D9000EB81FC8188E280838B819C8101979C830D
:101DA0008B83EB81FC8189E280838B819C8101970D
:101DB0009C838B83EB81FC8180E380838B819C817E
:101DC00001979C838B83EB81FC8181E380838B81F2
:101DD0009C8101979C838B838B819C8128960FB675
:101DE000F894DEBF0FBECDBFCF91DF910895DF9392
:101DF000CF93CDB7DEB70E94E70FA0911A03B09141
:101E00001B03CD91CDBFDD91DEBFFF91EF91DF913F
:101E1000CF91BF91AF919F918F917F916F915F9182
:101E20004F913F912F911F910F91FF90EF90DF9075
:101E3000CF90BF90AF909F908F907F906F905F906A
:101E40004F903F902F901F900F900FBE0F900895CE
:101E500081E0CF91DF910895DF93CF93CDB7DEB7C7
:101E6000CF91DF9108950F920FB6F8940F921F92C1
:101E700011242F923F924F925F926F927F928F9296
:101E80009F92AF92BF92CF92DF92EF92FF920F9309
:101E90001F932F933F934F935F936F937F938F93F2
:101EA0009F93AF93BF93CF93DF93EF93FF93A09153
:101EB0001A03B0911B030DB60D920EB60D920E943F
:101EC000221AA0911A03B0911B03CD91CDBFDD91D1
:101ED000DEBFFF91EF91DF91CF91BF91AF919F91C5
:101EE0008F917F916F915F914F913F912F911F91B2
:101EF0000F91FF90EF90DF90CF90BF90AF909F90A9
:101F00008F907F906F905F904F903F902F901F9099
:101F10000F900FBE0F9008950F920FB6F8940F9286
:101F20001F9211242F923F924F925F926F927F9255
:101F30008F929F92AF92BF92CF92DF92EF92FF92D9
:101F40000F931F932F933F934F935F936F937F93C1
:101F50008F939F93AF93BF93CF93DF93EF93FF93B1
:101F6000A0911A03B0911B030DB60D920EB60D92FF
:101F70000E944D190E94221AA0911A03B0911B03CE
:101F8000CD91CDBFDD91DEBFFF91EF91DF91CF917C
:101F9000BF91AF919F918F917F916F915F914F9181
:101FA0003F912F911F910F91FF90EF90DF90CF9075
:101FB000BF90AF909F908F907F906F905F904F9069
:101FC0003F902F901F900F900FBE0F900895DF93BA
:101FD000CF9300D000D000D0CDB7DEB780EE9EE228
:101FE000A0E0B0E08B839C83AD83BE838B819C811A
:101FF000AD81BE81072E7AE0B695A7959795879516
:102000007A95D1F7702D8B839C83AD83BE838B81B2
:102010009C81AD81BE810197A109B1098B839C830D
:10202000AD83BE838B8189838B819C81AD81BE8191
:10203000892F9A2FAB2FBB278B839C83AD83BE83C5
:102040008B818A83EBE4F0E08A818083EAE4F0E02C
:10205000898180838DE08983EEE4F0E0898180834B
:10206000E9E5F0E080818983898180618983E9E500
:10207000F0E08981808326960FB6F894DEBF0FBE0C
:10208000CDBFCF91DF9108950E948C0F1895DF93FB
:10209000CF93CDB7DEB728970FB6F894DEBF0FBE4B
:1020A000CDBF8F8368871A8219828F81882309F4B4
:1020B0008CC08FE190E00E9496099E838D838D8174
:1020C0009E81009709F481C08F81282F30E0888598
:1020D000882F90E0AC01249FC001259F900D349F74
:1020E000900D112401969C838B838B819C810E948F
:1020F0009609ED81FE8191838083ED81FE8180814F
:102100009181009709F45DC0ED81FE81408151818C
:102110008F81282F30E08885882F90E0BC01269F92
:10212000C001279F900D369F900D1124840F951F9D
:10213000ED81FE8193838283ED81FE81128EED819C
:10214000FE8180819181ED81FE8195838483ED8183
:10215000FE81408151818F81882F90E09C01215028
:1021600030408885882F90E0BC01269FC001279FC2
:10217000900D369F900D1124840F951FED81FE81E7
:1021800097838683ED81FE818F81838FED81FE8130
:102190008885848FED81FE818FEF858FED81FE81B3
:1021A0008FEF868F8D819E8108960E94390C8D81DC
:1021B0009E8141960E94390C8D819E819A838983EC
:1021C00004C08D819E810E94DC0989819A812896B4
:1021D0000FB6F894DEBF0FBECDBFCF91DF9108954B
:1021E000DF93CF9300D000D0CDB7DEB78B836C8365
:1021F0008B8160E00E9447109A83898389819A814C
:10220000009721F0E981FA818C81828F89819A81FE
:102210000F900F900F900F90CF91DF910895DF9363
:10222000CF93CDB7DEB72C970FB6F894DEBF0FBEB5
:10223000CDBF9E838D8378876F835A8749872B878D
:1022400019820FB6F8940F92ED81FE81928DED8187
:10225000FE81838D9817D8F48D819E812F813885DA
:10226000B9014B850E944A13ED81FE818189882343
:1022700049F08D819E8141960E94D11A813011F4DE
:102280000E94330F0F900FBE81E08C875CC0898560
:102290009A85009721F40F900FBE1C8654C0898147
:1022A000882331F4CE0102960E94391B81E0898394
:1022B0000F900FBE0E9482180FB6F8940F92ED8116
:1022C000FE81858D8F3F19F4ED81FE81158EED81A4
:1022D000FE81868D8F3F19F4ED81FE81168E0F9061
:1022E0000FBECE0102969E01275F3F4FB9010E94AB
:1022F000521B882309F58D819E810E94AE1488238C
:10230000A1F08D819E81089629853A85B9010E94A8
:10231000881A8D819E810E9427140E948E1888231E
:1023200009F08FCF0E94330F8CCF8D819E810E9448
:1023300027140E948E1885CF8D819E810E942714BC
:102340000E948E181C868C852C960FB6F894DEBFE2
:102350000FBECDBFCF91DF910895DF93CF93CDB75F
:10236000DEB729970FB6F894DEBF0FBECDBF9C83B2
:102370008B837E836D8358874F8329871982EB81F6
:10238000FC81928DEB81FC81838D981740F58B81C8
:102390009C812D813E81B90149850E944A13EB81C0
:1023A000FC81868D8F3F89F4EB81FC8181898823B4
:1023B00099F08B819C8141960E94D11A882361F00B
:1023C000EF81F88581E0808307C0EB81FC81868DF9
:1023D0008F5FEB81FC81868F81E08A8301C01A8246
:1023E0008A8129960FB6F894DEBF0FBECDBFCF917C
:1023F000DF910895DF93CF93CDB7DEB72E970FB659
:10240000F894DEBF0FBECDBF98878F837A87698728
:102410005C874B872D871B820FB6F8940F92EF8154
:10242000F885828D882309F43FC0EF81F885868185
:1024300097819A8389838F81988529853A85B90107
:102440000E94DF138D858823B1F4EF81F885828D9A
:102450008150EF81F885828FEF81F8858085882310
:10246000F1F08F81988508960E94D11A8130B9F4D5
:102470000E94330F14C0EF81F88589819A81978378
:102480008683EF81F8858189882349F08F8198853B
:1024900041960E94D11A882311F00E94330F0F90A9
:1024A0000FBE81E08E875CC08B859C85009721F4F0
:1024B0000F900FBE1E8654C08B81882331F4CE014D
:1024C00004960E94391B81E08B830F900FBE0E94FF
:1024D00082180FB6F8940F92EF81F885858D8F3FA3
:1024E00019F4EF81F885158EEF81F885868D8F3F81
:1024F00019F4EF81F885168E0F900FBECE01049669
:102500009E01255F3F4FB9010E94521B882309F5A8
:102510008F8198850E947B148823A1F08F819885F4
:1025200041962B853C85B9010E94881A8F81988538
:102530000E9427140E948E18882309F06DCF0E94F4
:10254000330F6ACF8F8198850E9427140E948E18BE
:1025500063CF8F8198850E9427140E948E181E8653
:102560008E852E960FB6F894DEBF0FBECDBFCF91ED
:10257000DF910895DF93CF93CDB7DEB728970FB6DD
:10258000F894DEBF0FBECDBF9C838B837E836D83AB
:1025900058874F831982EB81FC81828D882371F1EA
:1025A0008B819C812D813E81B9010E94DF13EB81DB
:1025B000FC81828D8150EB81FC81828FEB81FC81DB
:1025C000858D8F3F89F4EB81FC818085882399F08C
:1025D0008B819C8108960E94D11A882361F0EF813B
:1025E000F88581E0808307C0EB81FC81858D8F5F5A
:1025F000EB81FC81858F81E08A8301C01A828A8108
:1026000028960FB6F894DEBF0FBECDBFCF91DF91F5
:102610000895DF93CF9300D00F92CDB7DEB79B83A1
:102620008A830FB6F8940F92EA81FB81828D8983A9
:102630000F900FBE89810F900F900F90CF91DF9177
:102640000895DF93CF9300D00F92CDB7DEB79B8371
:102650008A83EA81FB81828D898389810F900F9023
:102660000F90CF91DF910895DF93CF9300D0CDB736
:10267000DEB79A838983E981FA81808191810E9402
:10268000DC0989819A810E94DC090F900F90CF911B
:10269000DF910895DF93CF9300D000D00F92CDB794
:1026A000DEB79A8389837C836B834D83E981FA81CA
:1026B000848D882309F474C08D81882399F5E9817C
:1026C000FA8164817581E981FA81848D482F50E017
:1026D0002B813C81CB01B9010E94891DE981FA81DE
:1026E00024813581E981FA81848D882F90E0820FE1
:1026F000931FE981FA8195838483E981FA8124819A
:102700003581E981FA81828193812817390708F49C
:1027100047C0E981FA8180819181E981FA819583BD
:1027200084833EC0E981FA8166817781E981FA81FB
:10273000848D482F50E02B813C81CB01B9010E9450
:10274000891DE981FA8126813781E981FA81848DA9
:10275000882F90E0909581959F4F820F931FE9817C
:10276000FA8197838683E981FA8126813781E9811D
:10277000FA81808191812817390790F4E981FA81E3
:1027800022813381E981FA81848D882F90E09095B0
:1027900081959F4F820F931FE981FA8197838683EA
:1027A000E981FA81828D8F5FE981FA81828F0F90B2
:1027B0000F900F900F900F90CF91DF910895DF93BE
:1027C000CF9300D000D0CDB7DEB79A8389837C83C6
:1027D0006B83E981FA8180819181009789F1E98198
:1027E000FA8126813781E981FA81848D882F90E0F2
:1027F000820F931FE981FA8197838683E981FA81A9
:1028000026813781E981FA818281938128173907EE
:1028100040F0E981FA8180819181E981FA81978391
:102820008683E981FA8146815781E981FA81848D25
:10283000282F30E08B819C81BA01A9010E94891D5B
:102840000F900F900F900F90CF91DF910895DF932D
:10285000CF9300D0CDB7DEB79A8389830FB6F894B3
:102860000F9215C0E981FA8181898823A9F08981B5
:102870009A8141960E94D11A882311F00E94B91BB7
:10288000E981FA81868D8150E981FA81868FE9811B
:10289000FA81868D181634F3E981FA818FEF868FDD
:1028A0000F900FBE0FB6F8940F9215C0E981FA8110
:1028B00080858823A9F089819A8108960E94D11A7F
:1028C000882311F00E94B91BE981FA81858D81501E
:1028D000E981FA81858FE981FA81858D181634F3B3
:1028E000E981FA818FEF858F0F900FBE0F900F90C7
:1028F000CF91DF910895DF93CF9300D00F92CDB7A2
:10290000DEB79B838A830FB6F8940F92EA81FB812E
:10291000828D1982882311F481E089830F900FBE84
:1029200089810F900F900F90CF91DF910895DF93E1
:10293000CF9300D00F92CDB7DEB79B838A83EA8115
:10294000FB81828D1982882311F481E0898389813A
:102950000F900F900F90CF91DF910895DF93CF9359
:1029600000D00F92CDB7DEB79B838A830FB6F89461
:102970000F92EA81FB81928DEA81FB81838D19821E
:10298000981711F481E089830F900FBE89810F9011
:102990000F900F90CF91DF910895DF93CF9300D0E8
:1029A0000F92CDB7DEB79B838A83EA81FB81928D3C
:1029B000EA81FB81838D1982981711F481E0898364
:1029C00089810F900F900F90CF91DF910895AF9272
:1029D000BF92CF92DF92EF92FF920F931F93DF93FC
:1029E000CF93CDB7DEB764970FB6F894DEBF0FBEB6
:1029F000CDBF9F838E83798768875B874A873D87B2
:102A00002C870E87F88AEF86DA8AC98ABC8AAB8A55
:102A10008A859B8529893A89B9010E94EC1C9C838F
:102A20008B838B819C81009709F499C0EB81FC8199
:102A30002789308D8A859B850197820F931F9A8302
:102A400089838B819C8128853985EB89FC89AA85BE
:102A5000BB85B9014E859F018D010E94CD1B8981E7
:102A60009A812E813F814C855D85B9010E94740D4C
:102A7000EB81FC81918380838F859889009731F069
:102A8000EF85F8898B819C81918380830FB6F894C0
:102A90000F9280911D038F5F80931D0380911A0315
:102AA00090911B03009769F48B819C8190931B0389
:102AB00080931A0380911D038130A9F40E94241C85
:102AC00012C080912203882371F4E0911A03F091DF
:102AD0001B0396898E85891730F08B819C8190939A
:102AE0001B0380931A03EB81FC819689809120035C
:102AF000891728F4EB81FC818689809320038091DB
:102B000027038F5F80932703EB81FC819689809157
:102B10002103891728F4EB81FC81868980932103A6
:102B2000EB81FC818689282F30E0C901880F991F2D
:102B3000880F991F880F991F820F931FAC01485D62
:102B40005C4F8B819C819C012E5F3F4FCA01B90174
:102B50000E94730C81E08D830F900FBE02C08FEF37
:102B60008D838D81813071F480912203882351F00F
:102B7000E0911A03F0911B0396898E85981710F443
:102B80000E94330F8D8164960FB6F894DEBF0FBE9E
:102B9000CDBFCF91DF911F910F91FF90EF90DF900C
:102BA000CF90BF90AF900895DF93CF9300D000D027
:102BB00000D0CDB7DEB79C838B830FB6F8940F920D
:102BC00020911A0330911B038B819C8182179307FC
:102BD00011F41C821B828B819C81009739F48091B7
:102BE0001A0390911B039E838D8304C08B819C816B
:102BF0009E838D838D819E819A83898389819A8129
:102C000002960E942B0DE981FA81848995890097AB
:102C100029F089819A810C960E942B0D89819A81D5
:102C20009C012E5F3F4F89E593E0B9010E94730C30
:102C300080911C038F5F80931C03809127038F5F1B
:102C4000809327030F900FBE80912203882331F0D9
:102C50008B819C81009711F40E94330F26960FB64A
:102C6000F894DEBF0FBECDBFCF91DF910895DF9303
:102C7000CF93CDB7DEB728970FB6F894DEBF0FBE5F
:102C8000CDBF9E838D8378876F8319820E948218BF
:102C9000ED81FE81208131818F819885820F931F84
:102CA0009C838B83ED81FE812081318180911E0385
:102CB00090911F0382179307A8F4ED81FE81208174
:102CC00031818B819C818217930700F520911E032F
:102CD00030911F038B819C8128173907B8F481E05C
:102CE000898314C0ED81FE81208131818B819C819B
:102CF0008217930748F020911E0330911F038B81A8
:102D00009C812817390710F481E08983ED81FE81C9
:102D10008B819C81918380838981882359F0809164
:102D20001A0390911B0302960E942B0D8B819C81AC
:102D30000E94A31C0E948E188A838A81882311F422
:102D40000E94330F28960FB6F894DEBF0FBECDBF9A
:102D5000CF91DF910895DF93CF9300D000D00F92F1
:102D6000CDB7DEB79D838C8319828C819D810097BE
:102D7000D1F00E94821820911E0330911F038C8194
:102D80009D81820F931F9B838A8380911A03909168
:102D90001B0302960E942B0D8A819B810E94A31C1B
:102DA0000E948E1889838981882311F40E94330F31
:102DB0000F900F900F900F900F90CF91DF9108958B
:102DC000DF93CF9300D000D000D0CDB7DEB79C8387
:102DD0008B830FB6F8940F9220911A0330911B0346
:102DE0008B819C818217930711F41C821B828B813B
:102DF0009C81009739F480911A0390911B039E8364
:102E00008D8304C08B819C819E838D838D819E8167
:102E10009A83898389819A8102960E942B0DE98188
:102E2000FA8184899589009729F089819A810C9685
:102E30000E942B0D89819A819C012E5F3F4F82E673
:102E400093E0B9010E94730C0F900FBE8B819C819F
:102E50000097A1F480912203882319F00E94330F78
:102E60000DC09091620380911D03981729F4109270
:102E70001B0310921A0302C00E94221A26960FB654
:102E8000F894DEBF0FBECDBFCF91DF910895DF93E1
:102E9000CF9300D000D00F92CDB7DEB79D838C8347
:102EA0001B828C819D819A838983E981FA81828545
:102EB000938523E08236920781F4E981FA8184893F
:102EC000958923E08035920741F0E981FA81848970
:102ED0009589009711F481E08B838B810F900F907F
:102EE0000F900F900F90CF91DF910895DF93CF93C4
:102EF00000D000D0CDB7DEB79C838B838B819C81C3
:102F00009A83898389819A81009709F44CC0209122
:102F10001A0330911B0389819A818217930709F460
:102F200042C00FB6F8940F9289819A810E94471788
:102F30008130B9F589819A8102960E942B0DE98131
:102F4000FA81968980912103891728F4E981FA8111
:102F5000868980932103E981FA818689282F30E0D0
:102F6000C901880F991F880F991F880F991F820F19
:102F7000931FAC01485D5C4F89819A819C012E5F53
:102F80003F4FCA01B9010E94730CE981FA81968909
:102F9000E0911A03F0911B038689981710F00E94A4
:102FA000330F0F900FBE0F900F900F900F90CF9197
:102FB000DF910895DF93CF9300D000D00F92CDB76B
:102FC000DEB79D838C831B828C819D819A8389834C
:102FD00089819A810E944717813009F047C080910A
:102FE00023038823C9F5E981FA819689E0911A03C0
:102FF000F0911B0386891B82981710F081E08B8368
:1030000089819A8102960E942B0DE981FA81968925
:1030100080912103891728F4E981FA8186898093B8
:103020002103E981FA818689282F30E0C901880FC0
:10303000991F880F991F880F991F820F931FAC014A
:10304000485D5C4F89819A819C012E5F3F4FCA0188
:10305000B9010E94730C0AC089819A819C01245F86
:103060003F4F80E593E0B9010E94730C8B810F9074
:103070000F900F900F900F90CF91DF910895AF9226
:10308000BF92CF92DF92EF92FF920F93DF93CF9395
:103090000F92CDB7DEB726E730E083EC9BE1B901B4
:1030A00045E550E020E030E000E0EE24FF24CC24B1
:1030B000DD24AA24BB240E94E714898389818130FE
:1030C00051F4F89481E08093220310921F03109230
:1030D0001E030E94F70E0F90CF91DF910F91FF908A
:1030E000EF90DF90CF90BF90AF900895DF93CF9394
:1030F000CDB7DEB7F894109222030E942C0FCF9127
:10310000DF910895DF93CF93CDB7DEB7809123038E
:103110008F5F80932303CF91DF910895DF93CF9347
:1031200000D000D0CDB7DEB71A820FB6F8940F9258
:10313000809123038150809323038091230388236C
:1031400009F06CC080911D03882309F467C01982BF
:1031500041C0E0915503F0915603868197819C838D
:103160008B838B819C810C960E942B0D8B819C8183
:1031700002960E942B0DEB81FC81968980912103A0
:10318000891728F4EB81FC81868980932103EB81E8
:10319000FC818689282F30E0C901880F991F880F8C
:1031A000991F880F991F820F931F885D9C4F2B8159
:1031B0003C812E5F3F4FB9010E94730CEB81FC8173
:1031C0009689E0911A03F0911B038689981710F0F5
:1031D00081E0898380915003882309F0BACF8091E0
:1031E0002403882371F007C00E944D1980912403A5
:1031F000815080932403809124038823A9F781E0E0
:1032000089838981813021F080912503813031F4D7
:1032100081E08A83109225030E94330F0F900FBE26
:103220008A810F900F900F900F90CF91DF910895AA
:10323000DF93CF9300D0CDB7DEB70FB6F8940F92DF
:1032400080911E0390911F039A8389830F900FBE74
:1032500089819A810F900F90CF91DF910895DF932C
:10326000CF9300D00F92CDB7DEB7198280911E03A5
:1032700090911F039B838A838A819B810F900F907B
:103280000F90CF91DF910895DF93CF93CDB7DEB745
:1032900080911D03CF91DF910895DF93CF9300D0EC
:1032A00000D000D0CDB7DEB780912303882309F08A
:1032B000BBC080911E0390911F03019690931F0342
:1032C00080931E0380911E0390911F030097D1F5F8
:1032D00080914C0390914D039C838B8380914E038E
:1032E00090914F0390934D0380934C038B819C816D
:1032F00090934F0380934E03809126038F5F8093BA
:103300002603E0914C03F0914D038081882339F42A
:103310008FEF9FEF909384008093830013C0E09120
:103320004C03F0914D030580F681E02D8681978155
:103330009E838D83ED81FE818281938190938400B1
:103340008093830020911E0330911F03809183009E
:10335000909184002817390708F46BC0E0914C0362
:10336000F0914D038081882339F48FEF9FEF909384
:103370008400809383005DC0E0914C03F0914D0385
:103380000580F681E02D868197819E838D83ED8176
:10339000FE81828193819A83898320911E033091DB
:1033A0001F0389819A812817390738F489819A8106
:1033B00090938400809383003CC08D819E8102960F
:1033C0000E942B0DED81FE8184899589009729F05B
:1033D0008D819E810C960E942B0DED81FE81968938
:1033E00080912103891728F4ED81FE8186898093DD
:1033F0002103ED81FE818689282F30E0C901880FE5
:10340000991F880F991F880F991F820F931FAC0176
:10341000485D5C4F8D819E819C012E5F3F4FCA01AC
:10342000B9010E94730C9ACF809124038F5F80931F
:10343000240326960FB6F894DEBF0FBECDBFCF9102
:10344000DF910895DF93CF9300D0CDB7DEB78091A1
:103450002303882349F081E08093250354C08091A1
:10346000210381508093210380912103282F30E094
:10347000C901880F991F880F991F880F991F820F04
:10348000931FFC01E85DFC4F8081882341F380910C
:103490002103282F30E0C901880F991F880F991F39
:1034A000880F991F820F931F885D9C4F9A83898391
:1034B000E981FA810180F281E02D82819381E981A5
:1034C000FA8192838183E981FA8121813281898124
:1034D0009A8103962817390759F4E981FA81018006
:1034E000F281E02D82819381E981FA819283818347
:1034F000E981FA810180F281E02D868197819093A4
:103500001B0380931A030F900F90CF91DF910895C2
:10351000DF93CF9300D000D000D0CDB7DEB79C832F
:103520008B837E836D834B815C8180911A039091A4
:103530001B039C01245F3F4FCA01B9010E94BF0CCD
:1035400080911A0390911B0302960E942B0D8D818E
:103550009E812FEF8F3F920769F480911A0390911B
:103560001B039C012E5F3F4F82E693E0B9010E944E
:10357000730C0EC020911E0330911F038D819E811C
:10358000820F931F9A83898389819A810E94A31C49
:1035900026960FB6F894DEBF0FBECDBFCF91DF9158
:1035A0000895DF93CF9300D000D00F92CDB7DEB750
:1035B0009D838C83EC81FD810580F681E02D8681E1
:1035C00097819B838A838A819B810C960E942B0D15
:1035D00080912303882361F58A819B8102960E9452
:1035E0002B0DEA81FB81968980912103891728F4AC
:1035F000EA81FB81868980932103EA81FB818689A8
:10360000282F30E0C901880F991F880F991F880F54
:10361000991F820F931FAC01485D5C4F8A819B818B
:103620009C012E5F3F4FCA01B9010E94730C0AC072
:103630008A819B819C01245F3F4F80E593E0B90123
:103640000E94730CEA81FB819689E0911A03F09144
:103650001B038689981718F081E0898301C01982BD
:1036600089810F900F900F900F900F90CF91DF9165
:103670000895DF93CF9300D0CDB7DEB79A838983C7
:1036800080912603E981FA81808380911E039091C5
:103690001F03E981FA81928381830F900F90CF916C
:1036A000DF910895DF93CF9300D000D00F92CDB774
:1036B000DEB79B838A837D836C830FB6F8940F9269
:1036C000EC81FD81808191812FEF8F3F920711F472
:1036D000198244C0EA81FB8190818091260398176A
:1036E00071F0EA81FB812181328180911E039091EA
:1036F0001F038217930718F081E089832FC0209160
:103700001E0330911F03EA81FB8181819281281B76
:10371000390BEC81FD818081918128173907E0F414
:10372000EC81FD8140815181EA81FB8121813281DF
:1037300080911E0390911F03B901681B790BCB0187
:10374000840F951FEC81FD81918380838A819B8109
:103750000E94391B198202C081E089830F900FBE3D
:1037600089810F900F900F900F900F90CF91DF9164
:103770000895DF93CF93CDB7DEB781E08093250323
:10378000CF91DF910895DF93CF9300D0CDB7DEB70F
:103790009A8389830E94651CFDCF0F931F93DF934B
:1037A000CF93CDB7DEB729970FB6F894DEBF0FBE23
:1037B000CDBF9A8389837C836B834D833F832E8324
:1037C0001987088789819A8149962B813C81B901A3
:1037D00048E050E00E94991DE981FA8110A28D8194
:1037E000823010F081E08D83E981FA818D81868BB2
:1037F00089819A8102960E94630C89819A810C9634
:103800000E94630CE981FA8189819A81918780877E
:103810008D81282F30E082E090E0821B930BE981BC
:10382000FA8195878487E981FA8189819A81938BCE
:10383000828B29960FB6F894DEBF0FBECDBFCF9115
:10384000DF911F910F910895DF93CF930F92CDB722
:10385000DEB7198213C08981282F30E0C901880F93
:10386000991F880F991F880F991F820F931F885DDA
:103870009C4F0E94390C89818F5F898389818230B6
:1038800050F38AE393E00E94390C83E493E00E94B2
:10389000390C80E593E00E94390C89E593E00E94A1
:1038A000390C82E693E00E94390C8AE393E090930E
:1038B0004D0380934C0383E493E090934F038093F4
:1038C0004E030F90CF91DF910895DF93CF9300D0F7
:1038D0000F92CDB7DEB780911C03882371F10E944F
:1038E0008218809159031B82882311F481E08B8315
:1038F0000E948E188B81882301F50FB6F8940F92E1
:10390000E0915E03F0915F03868197819A838983BA
:1039100089819A8102960E942B0D80911D0381500E
:1039200080931D0380911C03815080931C030F9092
:103930000FBE89819A810E943C1D0F900F900F90BD
:10394000CF91DF910895DF93CF9300D0CDB7DEB74D
:103950009A838983E0911A03F0911B0389819A81EC
:103960009383828320911E0330911F0389819A8162
:103970008217930770F480914E0390914F0320912A
:103980001A0330911B032E5F3F4FB9010E94BF0CF9
:103990001EC040914C0350914D0380911A039091A9
:1039A0001B039C012E5F3F4FCA01B9010E94BF0C4F
:1039B000209183003091840089819A818217930736
:1039C00030F489819A8190938400809383000F90D2
:1039D0000F90CF91DF910895DF93CF93CDB7DEB7EE
:1039E00028970FB6F894DEBF0FBECDBF9C838B83A4
:1039F0007E836D8381E290E00E9496099A83898399
:103A000089819A81009769F18D819E81009739F4AF
:103A10008B819C810E94960998878F8304C08D8139
:103A20009E8198878F83E981FA818F819885908F15
:103A3000878BE981FA818789908D009739F4898194
:103A40009A810E94DC091A8219820BC0E981FA81ED
:103A50008789908D2B813C8165EA70E0A9010E94E5
:103A6000921D89819A8128960FB6F894DEBF0FBE09
:103A7000CDBFCF91DF910895DF93CF9300D0CDB725
:103A8000DEB79A838983E981FA818789908D0E94C4
:103A9000DC0989819A810E94DC090F900F90CF91F7
:103AA000DF9108952F923F924F925F926F927F9293
:103AB0008F929F92AF92BF92CF92DF92EF92FF923E
:103AC0000F931F93CF93DF93CDB7DEB7CA1BDB0BEA
:103AD0000FB6F894DEBF0FBECDBF09942A8839888F
:103AE00048885F846E847D848C849B84AA84B98496
:103AF000C884DF80EE80FD800C811B81AA81B981A2
:103B0000CE0FD11D0FB6F894DEBF0FBECDBFED01B5
:103B10000895FB01DC0102C001900D92415050401C
:103B2000D8F70895DC0101C06D9341505040E0F793
:103B30000895FB01DC014150504048F001900D9286
:103B40000020C9F701C01D9241505040E0F7089590
:043B5000F894FFCF17
:103B54007461736B00427574746F6E207072657358
:103B64007365643A440049444C4500000000000079
:063B7400000000FFFF004D
:00000001FF
