:100000000C942A000C9434000C9434000C943400AA
:100010000C9434000C9434000C9434000C94340090
:100020000C9434000C9434000C9434000C94340080
:100030000C9434000C9434000C9434000C94340070
:100040000C9434000C9434000C9434000C94340060
:100050000C94340011241FBECFE5D8E0DEBFCDBF25
:100060000E945B000C946E000C940000DF93CF9311
:1000700000D000D000D0CDB7DEB79E838D831A822A
:10008000198206C0000089819A8101969A8389832A
:100090008D819E819C012150304089819A818217F7
:1000A000930780F326960FB6F894DEBF0FBECDBF40
:1000B000CF91DF910895DF93CF93CDB7DEB7E2E321
:1000C000F0E081E090E0918380838AE090E00E94FC
:1000D0003600E2E3F0E011821082F1CFF894FFCF16
:00000001FF
