:100000000C942A000C9447000C9447000C94470071
:100010000C9447000C9447000C9447000C94220861
:100020000C9447000C9447000C9447000C94470034
:100030000C9447000C9447000C9447000C94470024
:100040000C9447000C9447000C9447000C94470014
:100050000C94470011241FBECFE5D8E0DEBFCDBF12
:1000600010E0A0E6B0E0E4E6F7E202C005900D92F1
:10007000AC37B107D9F713E0ACE7B0E001C01D928F
:10008000A337B107E1F70E94A9000C94B0130C94B8
:100090000000DF93CF9300D0CDB7DEB79A8389837A
:1000A000AAE3B0E0EAE3F0E0808181608C93ABE307
:1000B000B0E0EBE3F0E0808181608C93F8CFDF93D8
:1000C000CF93CDB7DEB76D970FB6F894DEBF0FBEF6
:1000D000CDBF988F8F8BE1E3F0E08FEF8083CE016F
:1000E00003969A8F898FE7E6F0E0FC8FEB8FF4E1BF
:1000F000FD8FEB8DFC8D00808B8D9C8D01969C8FF0
:100100008B8FE98DFA8D0082898D9A8D01969A8F59
:10011000898F9D8D91509D8FED8DEE2351F7A2E338
:10012000B0E089819A819C01220F331FCE01019694
:10013000820F931FFC013296808191818C9389817B
:100140009A8101969A83898388EE93E00E946A0ED1
:10015000E6CFAF92BF92CF92DF92EF92FF920F93D2
:10016000DF93CF93CDB7DEB78FE590E060E070E02E
:1001700045E550E020E030E001E0EE24FF24CC240F
:10018000DD24AA24BB240E94A60C0E949F0E80E0BE
:1001900090E0CF91DF910F91FF90EF90DF90CF90A3
:1001A000BF90AF900895DF93CF93CDB7DEB7279779
:1001B0000FB6F894DEBF0FBECDBF9D838C836E83D8
:1001C0004F838AE190E00E94AB039A8389838981FF
:1001D0009A81009709F46FC080917C0090917D0016
:1001E000009741F489819A8190937D0080937C00EF
:1001F0000E943A038E81823010F081E08E83E98183
:10020000FA81118E108EE981FA818E81868BE981C7
:10021000FA818F81878BE981FA818C819D8191831D
:10022000808389819A8102960E94410489819A8102
:100230000C960E944104E981FA8189819A81918713
:100240008087E981FA8189819A81938B828B8E8163
:10025000282F30E085E090E0821B930BE981FA8142
:1002600095878487E981FA81968980917E00891734
:1002700028F4E981FA81868980937E00E981FA81F8
:100280008689282F30E0C901880F991F880F991F90
:10029000880F991F820F931FAC014B575F4F8981C5
:1002A0009A819C012E5F3F4FCA01B9010E945104FF
:1002B00081E08B8302C08FEF8B838B8127960FB6F3
:1002C000F894DEBF0FBECDBFCF91DF910895DF93CD
:1002D000CF9300D000D000D0CDB7DEB79C838B8306
:1002E0007E836D8320917F00309180008B819C8183
:1002F000820F931F9A83898380917C0090917D0067
:1003000002960E940905E0917C00F0917D008981B0
:100310009A819383828320917F003091800089812C
:100320009A818217930770F48091AB009091AC0092
:1003300020917C0030917D002E5F3F4FB9010E94DB
:100340009D040DC08091A9009091AA0020917C008D
:1003500030917D002E5F3F4FB9010E949D048D8139
:100360009E81009761F080917C0090917D009C01BE
:10037000245F3F4F8D819E81B9010E949D04269686
:100380000FB6F894DEBF0FBECDBFCF91DF910895B9
:10039000DF93CF9300D0CDB7DEB73AC0F894E091A9
:1003A000B200F091B300868197819A838983898115
:1003B0009A810C960E940905789489819A81029607
:1003C0000E940905E981FA81968980917E0089174A
:1003D00028F4E981FA81868980937E00E981FA8197
:1003E0008689282F30E0C901880F991F880F991F2F
:1003F000880F991F820F931FAC014B575F4F898164
:100400009A819C012E5F3F4FCA01B9010E9451049D
:100410008091AD00882309F0C1CF0F900F90CF914C
:10042000DF910895DF93CF9300D000D0CDB7DEB732
:100430000E94780F2091810030918200821B930BE3
:10044000909384008093830085C080917F00909179
:10045000800001969093800080937F0080918300BC
:100460009091840001979093840080938300809101
:100470007F0090918000009709F064C08091A900EE
:100480009091AA009A8389838091AB009091AC00EF
:100490009093AA008093A90089819A819093AC00DF
:1004A0008093AB004FC0E091A900F091AA000580B5
:1004B000F681E02D868197819C838B83EB81FC8183
:1004C0002281338180917F00909180008217930771
:1004D00008F440C0F8948B819C8102960E94090523
:1004E000EB81FC8184899589009729F08B819C811F
:1004F0000C960E9409057894EB81FC819689809185
:100500007E00891728F4EB81FC81868980937E0028
:10051000EB81FC818689282F30E0C901880F991F63
:10052000880F991F880F991F820F931FAC014B579B
:100530005F4F8B819C819C012E5F3F4FCA01B901A7
:100540000E945104E091A900F091AA0080818823C3
:1005500009F0A9CF8091830090918400009709F061
:1005600074CF80917F00909180009093820080935F
:1005700081000F900F900F900F90CF91DF91089511
:10058000DF93CF9300D0CDB7DEB70E94C8010E94A1
:1005900012020AC080917E00882309F466C080910F
:1005A0007E00815080937E0080917E00282F30E075
:1005B000C901880F991F880F991F880F991F820FF3
:1005C000931FFC01EB57FF4F8081882319F3809123
:1005D0007E00282F30E0C901880F991F880F991FCE
:1005E000880F991F820F931F8B579F4F9A83898380
:1005F000E981FA810180F281E02D82819381E98194
:10060000FA8192838183E981FA8121813281898112
:100610009A8103962817390759F4E981FA810180F4
:10062000F281E02D82819381E981FA819283818335
:10063000E981FA810180F281E02D86819781909392
:100640007D0080937C00E0917C00F0917D004081F2
:10065000518180917C0090917D00E0917C00F0912F
:100660007D002789622FFA0109950F900F90CF9195
:10067000DF910895DF93CF930F92CDB7DEB7198244
:1006800013C08981282F30E0C901880F991F880F76
:10069000991F880F991F820F931F8B579F4F0E949E
:1006A000170489818F5F89838981823050F387E9BC
:1006B00090E00E94170480EA90E00E9417048DEAFF
:1006C00090E00E94170487E990E09093AA0080933D
:1006D000A90080EA90E09093AC008093AB000F906B
:1006E000CF91DF910895DF93CF9300D000D00F9288
:1006F000CDB7DEB79D838C83EC81FD810580F681CB
:10070000E02D868197819B838A838A819B810C96C9
:100710000E9409058A819B819C01245F3F4F8DEADD
:1007200090E0B9010E945104EA81FB819689E09131
:100730007C00F0917D008689981718F081E089830C
:1007400001C0198289810F900F900F900F900F9028
:10075000CF91DF910895DF93CF9300D000D0CDB734
:10076000DEB79C838B831A8219820E94E20E8091ED
:10077000B6009091B7002B813C81820F931F22E03D
:100780008835920718F52091B6003091B7008B811B
:100790009C81280F391F8091B6009091B700821775
:1007A0009307A0F48091B6009091B70088549F4FB2
:1007B0009A8389832091B6003091B7008B819C8108
:1007C000820F931F9093B7008093B6000E94EE0EA5
:1007D00089819A810F900F900F900F90CF91DF91A8
:1007E0000895DF93CF9300D0CDB7DEB79A83898386
:1007F0000F900F90CF91DF910895DF93CF93CDB7F6
:10080000DEB71092B7001092B600CF91DF91089535
:10081000DF93CF93CDB7DEB72091B6003091B7000C
:1008200088E592E0821B930BCF91DF910895DF93CF
:10083000CF9300D0CDB7DEB79A83898389819A811F
:100840000396E981FA8192838183E981FA818FEFAE
:100850009FEF9483838389819A810396E981FA814A
:100860009683858389819A810396E981FA819087AD
:100870008783E981FA8110820F900F90CF91DF91E9
:100880000895DF93CF9300D0CDB7DEB79A838983E5
:10089000E981FA81118610860F900F90CF91DF9138
:1008A0000895DF93CF9300D000D000D0CDB7DEB74E
:1008B0009C838B837E836D83EB81FC81818192811C
:1008C0009A838983E981FA8182819381ED81FE8116
:1008D00093838283EB81FC8181819281ED81FE8112
:1008E00095838483E981FA810280F381E02D8D81F3
:1008F0009E81958384838D819E81E981FA81938392
:1009000082838D819E81EB81FC8192838183ED8145
:10091000FE818B819C8191878087EB81FC81808126
:100920008F5FEB81FC81808326960FB6F894DEBF43
:100930000FBECDBFCF91DF910895DF93CF93CDB799
:10094000DEB728970FB6F894DEBF0FBECDBF9E83EB
:100950008D8378876F83EF81F885808191819A8379
:10096000898389819A812FEF8F3F920739F4ED8136
:10097000FE81878190859C838B8318C08D819E81A9
:1009800003969C838B8306C0EB81FC8182819381DB
:100990009C838B83EB81FC810280F381E02D20819D
:1009A000318189819A818217930770F7EB81FC81ED
:1009B00082819381EF81F88593838283EF81F8852B
:1009C0000280F381E02D8F81988595838483EF8168
:1009D000F8858B819C81958384838F819885EB81B9
:1009E000FC8193838283EF81F8858D819E8191873D
:1009F0008087ED81FE8180818F5FED81FE81808324
:100A000028960FB6F894DEBF0FBECDBFCF91DF9111
:100A10000895DF93CF9300D000D0CDB7DEB79C838D
:100A20008B83EB81FC81A281B381EB81FC8184818A
:100A3000958115969C938E931497EB81FC81A481EC
:100A4000B581EB81FC818281938113969C938E9377
:100A50001297EB81FC81808591859A838983E98156
:100A6000FA81218132818B819C812817390741F4D9
:100A7000EB81FC8184819581E981FA819283818374
:100A8000EB81FC8111861086E981FA818081815099
:100A9000E981FA8180830F900F900F900F90CF9192
:100AA000DF910895DF93CF93CDB7DEB728970FB6C8
:100AB000F894DEBF0FBECDBF9C838B837E836D8396
:100AC00058874F83EB81FC8181E180838B819C81FE
:100AD00001979C838B83EB81FC8182E280838B81F5
:100AE0009C8101979C838B83EB81FC8183E38083D2
:100AF0008B819C8101979C838B838D819E819A83BE
:100B000089838981EB81FC8180838B819C81019722
:100B10009C838B8389819A81892F99279A838983E2
:100B20008981EB81FC8180838B819C8101979C83EF
:100B30008B83EB81FC8110828B819C8101979C834C
:100B40008B83EB81FC8180E880838B819C81019782
:100B50009C838B83EB81FC8110828B819C8101972C
:100B60009C838B83EB81FC8182E080838B819C81E1
:100B700001979C838B83EB81FC8183E080838B8155
:100B80009C8101979C838B83EB81FC8184E0808333
:100B90008B819C8101979C838B83EB81FC8185E019
:100BA00080838B819C8101979C838B83EB81FC816B
:100BB00086E080838B819C8101979C838B83EB8172
:100BC000FC8187E080838B819C8101979C838B8350
:100BD000EB81FC8188E080838B819C8101979C83E1
:100BE0008B83EB81FC8189E080838B819C810197E1
:100BF0009C838B83EB81FC8180E180838B819C8152
:100C000001979C838B83EB81FC8181E180838B81C5
:100C10009C8101979C838B83EB81FC8182E18083A3
:100C20008B819C8101979C838B83EB81FC8183E189
:100C300080838B819C8101979C838B83EB81FC81DA
:100C400084E180838B819C8101979C838B83EB81E2
:100C5000FC8185E180838B819C8101979C838B83C0
:100C6000EB81FC8186E180838B819C8101979C8351
:100C70008B83EB81FC8187E180838B819C81019751
:100C80009C838B83EB81FC8188E180838B819C81B9
:100C900001979C838B83EB81FC8189E180838B812D
:100CA0009C8101979C838B83EB81FC8180E2808314
:100CB0008B819C8101979C838B83EB81FC8181E2FA
:100CC00080838B819C8101979C838B83EB81FC814A
:100CD00082E280838B819C8101979C838B83EB8153
:100CE000FC8183E280838B819C8101979C838B8331
:100CF0008F8198859A8389838981EB81FC818083A8
:100D00008B819C8101979C838B8389819A81892F18
:100D100099279A8389838981EB81FC8180838B81E8
:100D20009C8101979C838B83EB81FC8186E280838D
:100D30008B819C8101979C838B83EB81FC8187E273
:100D400080838B819C8101979C838B83EB81FC81C9
:100D500088E280838B819C8101979C838B83EB81CC
:100D6000FC8189E280838B819C8101979C838B83AA
:100D7000EB81FC8180E380838B819C8101979C8344
:100D80008B83EB81FC8181E380838B819C81019744
:100D90009C838B838B819C8128960FB6F894DEBF51
:100DA0000FBECDBFCF91DF910895DF93CF93CDB725
:100DB000DEB70E94C507A0911003B0911103CD9139
:100DC000CDBFDD91DEBFFF91EF91DF91CF91BF915C
:100DD000AF919F918F917F916F915F914F913F91D3
:100DE0002F911F910F91FF90EF90DF90CF90BF90C8
:100DF000AF909F908F907F906F905F904F903F90BB
:100E00002F901F900F900FBE0F90089581E0CF910B
:100E1000DF910895DF93CF93CDB7DEB7CF91DF9108
:100E200008950F920FB6F8940F921F9211242F92EB
:100E30003F924F925F926F927F928F929F92AF926A
:100E4000BF92CF92DF92EF92FF920F931F932F9357
:100E50003F934F935F936F937F938F939F93AF9342
:100E6000BF93CF93DF93EF93FF93A0911003B091C3
:100E700011030DB60D920EB60D920E948210A09134
:100E80001003B0911103CD91CDBFDD91DEBFFF9175
:100E9000EF91DF91CF91BF91AF919F918F917F9112
:100EA0006F915F914F913F912F911F910F91FF9003
:100EB000EF90DF90CF90BF90AF909F908F907F90FA
:100EC0006F905F904F903F902F901F900F900FBEAC
:100ED0000F9008950F920FB6F8940F921F9211245D
:100EE0002F923F924F925F926F927F928F929F923A
:100EF000AF92BF92CF92DF92EF92FF920F931F9328
:100F00002F933F934F935F936F937F938F939F9311
:100F1000AF93BF93CF93DF93EF93FF93A091100311
:100F2000B09111030DB60D920EB60D920E94AD0F49
:100F30000E948210A0911003B0911103CD91CDBFFA
:100F4000DD91DEBFFF91EF91DF91CF91BF91AF9126
:100F50009F918F917F916F915F914F913F912F91D1
:100F60001F910F91FF90EF90DF90CF90BF90AF90C7
:100F70009F908F907F906F905F904F903F902F90B9
:100F80001F900F900FBE0F900895DF93CF9300D066
:100F900000D000D0CDB7DEB780E09BE1A7EBB0E09A
:100FA0008B839C83AD83BE838B819C81AD81BE810D
:100FB000072E7AE0B695A795979587957A95D1F7FC
:100FC000702D8B839C83AD83BE838B819C81AD818F
:100FD000BE810197A109B1098B839C83AD83BE8338
:100FE0008B8189838B819C81AD81BE81892F9A2FD2
:100FF000AB2FBB278B839C83AD83BE838B818A837E
:10100000EBE4F0E08A818083EAE4F0E08981808388
:101010008DE08983EEE4F0E089818083E9E5F0E00A
:1010200080818983898180618983E9E5F0E0898114
:10103000808326960FB6F894DEBF0FBECDBFCF914A
:10104000DF9108950E946A071895DF93CF93CDB77B
:10105000DEB728970FB6F894DEBF0FBECDBF8F83E3
:1010600068871A8219828F81882309F48CC08FE1E6
:1010700090E00E94AB039E838D838D819E810097BB
:1010800009F481C08F81282F30E08885882F90E077
:10109000AC01249FC001259F900D349F900D112419
:1010A00001969C838B838B819C810E94AB03ED8195
:1010B000FE8191838083ED81FE8180819181009703
:1010C00009F45DC0ED81FE81408151818F81282F1F
:1010D00030E08885882F90E0BC01269FC001279FC3
:1010E000900D369F900D1124840F951FED81FE8188
:1010F00093838283ED81FE81128EED81FE8180815A
:101100009181ED81FE8195838483ED81FE81408113
:1011100051818F81882F90E09C012150304088853B
:10112000882F90E0BC01269FC001279F900D369F1D
:10113000900D1124840F951FED81FE819783868386
:10114000ED81FE818F81838FED81FE818885848F83
:10115000ED81FE818FEF858FED81FE818FEF868F90
:101160008D819E8108960E9417048D819E814196F3
:101170000E9417048D819E819A83898304C08D818A
:101180009E810E94F10389819A8128960FB6F89476
:10119000DEBF0FBECDBFCF91DF910895DF93CF9318
:1011A000CDB7DEB72C970FB6F894DEBF0FBECDBF1C
:1011B0009E838D8378876F835A8749872B8719820F
:1011C0000FB6F8940F92ED81FE81928DED81FE8134
:1011D000838D9817D8F48D819E812F813885B90130
:1011E0004B850E94090BED81FE818189882349F09E
:1011F0008D819E8141960E941E11813011F40E94C2
:1012000011070F900FBE81E08C875CC089859A859D
:10121000009721F40F900FBE1C8654C0898188234B
:1012200031F4CE0102960E94861181E089830F90ED
:101230000FBE0E94E20E0FB6F8940F92ED81FE8170
:10124000858D8F3F19F4ED81FE81158EED81FE8134
:10125000868D8F3F19F4ED81FE81168E0F900FBEA3
:10126000CE0102969E01275F3F4FB9010E949F1158
:10127000882309F58D819E810E946D0C8823A1F041
:101280008D819E81089629853A85B9010E94E810D2
:101290008D819E810E94E60B0E94EE0E882309F04C
:1012A0008FCF0E9411078CCF8D819E810E94E60B0B
:1012B0000E94EE0E85CF8D819E810E94E60B0E94DA
:1012C000EE0E1C868C852C960FB6F894DEBF0FBEF2
:1012D000CDBFCF91DF910895DF93CF93CDB7DEB728
:1012E00029970FB6F894DEBF0FBECDBF9C838B83CA
:1012F0007E836D8358874F8329871982EB81FC8118
:10130000928DEB81FC81838D981740F58B819C81B8
:101310002D813E81B90149850E94090BEB81FC8139
:10132000868D8F3F89F4EB81FC818189882399F038
:101330008B819C8141960E941E11882361F0EF8170
:10134000F88581E0808307C0EB81FC81868D8F5F0B
:10135000EB81FC81868F81E08A8301C01A828A81B9
:1013600029960FB6F894DEBF0FBECDBFCF91DF91A7
:101370000895DF93CF93CDB7DEB72E970FB6F894CD
:10138000DEBF0FBECDBF98878F837A8769875C8762
:101390004B872D871B820FB6F8940F92EF81F8854B
:1013A000828D882309F43FC0EF81F885868197817B
:1013B0009A8389838F81988529853A85B9010E940E
:1013C0009E0B8D858823B1F4EF81F885828D815045
:1013D000EF81F885828FEF81F88580858823F1F091
:1013E0008F81988508960E941E118130B9F40E9461
:1013F000110714C0EF81F88589819A8197838683CC
:10140000EF81F8858189882349F08F8198854196FD
:101410000E941E11882311F00E9411070F900FBE29
:1014200081E08E875CC08B859C85009721F40F90AE
:101430000FBE1E8654C08B81882331F4CE010496E2
:101440000E94861181E08B830F900FBE0E94E20EF6
:101450000FB6F8940F92EF81F885858D8F3F19F4C0
:10146000EF81F885158EEF81F885868D8F3F19F411
:10147000EF81F885168E0F900FBECE0104969E0167
:10148000255F3F4FB9010E949F11882309F58F8185
:1014900098850E943A0C8823A1F08F819885419607
:1014A0002B853C85B9010E94E8108F8198850E94A8
:1014B000E60B0E94EE0E882309F06DCF0E94110703
:1014C0006ACF8F8198850E94E60B0E94EE0E63CF53
:1014D0008F8198850E94E60B0E94EE0E1E868E85F7
:1014E0002E960FB6F894DEBF0FBECDBFCF91DF9121
:1014F0000895DF93CF93CDB7DEB728970FB6F89452
:10150000DEBF0FBECDBF9C838B837E836D835887E8
:101510004F831982EB81FC81828D882371F18B814D
:101520009C812D813E81B9010E949E0BEB81FC8143
:10153000828D8150EB81FC81828FEB81FC81858DD6
:101540008F3F89F4EB81FC818085882399F08B8122
:101550009C8108960E941E11882361F0EF81F88516
:1015600081E0808307C0EB81FC81858D8F5FEB81FB
:10157000FC81858F81E08A8301C01A828A81289646
:101580000FB6F894DEBF0FBECDBFCF91DF910895A7
:10159000DF93CF9300D00F92CDB7DEB79B838A83C2
:1015A0000FB6F8940F92EA81FB81828D89830F90A8
:1015B0000FBE89810F900F900F90CF91DF9108950A
:1015C000DF93CF9300D00F92CDB7DEB79B838A8392
:1015D000EA81FB81828D898389810F900F900F9022
:1015E000CF91DF910895DF93CF9300D0CDB7DEB7D1
:1015F0009A838983E981FA81808191810E94F10334
:1016000089819A810E94F1030F900F90CF91DF9111
:101610000895DF93CF9300D000D00F92CDB7DEB7FF
:101620009A8389837C836B834D83E981FA81848DDE
:10163000882309F474C08D81882399F5E981FA81A2
:1016400064817581E981FA81848D482F50E02B8176
:101650003C81CB01B9010E949113E981FA81248177
:101660003581E981FA81848D882F90E0820F931F64
:10167000E981FA8195838483E981FA812481358126
:10168000E981FA81828193812817390708F447C0DC
:10169000E981FA8180819181E981FA81958384834E
:1016A0003EC0E981FA8166817781E981FA81848D82
:1016B000482F50E02B813C81CB01B9010E9491134E
:1016C000E981FA8126813781E981FA81848D882F29
:1016D00090E0909581959F4F820F931FE981FA8149
:1016E00097838683E981FA8126813781E981FA81AE
:1016F000808191812817390790F4E981FA8122814C
:101700003381E981FA81848D882F90E090958195CD
:101710009F4F820F931FE981FA8197838683E98126
:10172000FA81828D8F5FE981FA81828F0F900F900D
:101730000F900F900F90CF91DF910895DF93CF938B
:1017400000D000D0CDB7DEB79A8389837C836B83CA
:10175000E981FA8180819181009789F1E981FA819B
:1017600026813781E981FA81848D882F90E0820F6C
:10177000931FE981FA8197838683E981FA81268123
:101780003781E981FA81828193812817390740F0F6
:10179000E981FA8180819181E981FA819783868349
:1017A000E981FA8146815781E981FA81848D282F68
:1017B00030E08B819C81BA01A9010E9491130F90A6
:1017C0000F900F900F90CF91DF910895DF93CF93FB
:1017D00000D0CDB7DEB79A8389830FB6F8940F9205
:1017E00015C0E981FA8181898823A9F089819A81CC
:1017F00041960E941E11882311F00E94FC11E9817C
:10180000FA81868D8150E981FA81868FE981FA819A
:10181000868D181634F3E981FA818FEF868F0F9049
:101820000FBE0FB6F8940F9215C0E981FA8180853A
:101830008823A9F089819A8108960E941E11882325
:1018400011F00E94FC11E981FA81858D8150E981B6
:10185000FA81858FE981FA81858D181634F3E98143
:10186000FA818FEF858F0F900FBE0F900F90CF9161
:10187000DF910895DF93CF9300D00F92CDB7DEB7FD
:101880009B838A830FB6F8940F92EA81FB81828D45
:101890001982882311F481E089830F900FBE89811A
:1018A0000F900F900F90CF91DF910895DF93CF931A
:1018B00000D00F92CDB7DEB79B838A83EA81FB818C
:1018C000828D1982882311F481E0898389810F90A8
:1018D0000F900F90CF91DF910895DF93CF9300D0B9
:1018E0000F92CDB7DEB79B838A830FB6F8940F9221
:1018F000EA81FB81928DEA81FB81838D19829817A1
:1019000011F481E089830F900FBE89810F900F90B1
:101910000F90CF91DF910895DF93CF9300D00F9276
:10192000CDB7DEB79B838A83EA81FB81928DEA8102
:10193000FB81838D1982981711F481E08983898155
:101940000F900F900F90CF91DF910895AF92BF92BB
:10195000CF92DF92EF92FF920F931F93DF93CF937B
:10196000CDB7DEB764970FB6F894DEBF0FBECDBF1C
:101970009F838E83798768875B874A873D872C871B
:101980000E87F88AEF86DA8AC98ABC8AAB8A8A858A
:101990009B8529893A89B9010E942B139C838B83EB
:1019A0008B819C81009709F499C0EB81FC81278988
:1019B000308D8A859B850197820F931F9A83898337
:1019C0008B819C8128853985EB89FC89AA85BB851B
:1019D000B9014E859F018D010E94101289819A8163
:1019E0002E813F814C855D85B9010E945205EB81B6
:1019F000FC81918380838F859889009731F0EF85F2
:101A0000F8898B819C81918380830FB6F8940F9223
:101A1000809113038F5F8093130380911003909143
:101A20001103009769F48B819C819093110380933B
:101A30001003809113038130A9F40E94671212C031
:101A400080911803882371F4E0911003F091110341
:101A500096898E85891730F08B819C819093110334
:101A600080931003EB81FC8196898091160389177E
:101A700028F4EB81FC8186898093160380911D03F5
:101A80008F5F80931D03EB81FC8196898091170302
:101A9000891728F4EB81FC81868980931703EB81F9
:101AA000FC818689282F30E0C901880F991F880F93
:101AB000991F880F991F820F931FAC01425E5C4FE4
:101AC0008B819C819C012E5F3F4FCA01B9010E940E
:101AD000510481E08D830F900FBE02C08FEF8D8384
:101AE0008D81813071F480911803882351F0E09149
:101AF0001003F091110396898E85981710F40E94B7
:101B000011078D8164960FB6F894DEBF0FBECDBF6E
:101B1000CF91DF911F910F91FF90EF90DF90CF90C9
:101B2000BF90AF900895DF93CF9300D000D000D046
:101B3000CDB7DEB79C838B830FB6F8940F922091BC
:101B40001003309111038B819C818217930711F44C
:101B50001C821B828B819C81009739F48091100339
:101B6000909111039E838D8304C08B819C819E8301
:101B70008D838D819E819A83898389819A81029642
:101B80000E940905E981FA8184899589009729F0E5
:101B900089819A810C960E94090589819A819C010C
:101BA0002E5F3F4F8AE693E0B9010E945104809175
:101BB00012038F5F8093120380911D038F5F8093C8
:101BC0001D030F900FBE80911803882331F08B8185
:101BD0009C81009711F40E94110726960FB6F89485
:101BE000DEBF0FBECDBFCF91DF910895DF93CF93BE
:101BF000CDB7DEB728970FB6F894DEBF0FBECDBFC6
:101C00009E838D8378876F8319820E94E20EED8117
:101C1000FE81208131818F819885820F931F9C8363
:101C20008B83ED81FE81208131818091140390911D
:101C3000150382179307A8F4ED81FE81208131817D
:101C40008B819C818217930700F5209114033091BA
:101C500015038B819C8128173907B8F481E08983AB
:101C600014C0ED81FE81208131818B819C8182179E
:101C7000930748F020911403309115038B819C81C8
:101C80002817390710F481E08983ED81FE818B816B
:101C90009C81918380838981882359F080911003EE
:101CA0009091110302960E9409058B819C810E94EC
:101CB000E2120E94EE0E8A838A81882311F40E9428
:101CC000110728960FB6F894DEBF0FBECDBFCF9197
:101CD000DF910895DF93CF9300D000D00F92CDB75E
:101CE000DEB79D838C8319828C819D810097D1F012
:101CF0000E94E20E20911403309115038C819D8186
:101D0000820F931F9B838A8380911003909111030C
:101D100002960E9409058A819B810E94E2120E941C
:101D2000EE0E89838981882311F40E9411070F9098
:101D30000F900F900F900F90CF91DF910895AF9279
:101D4000BF92CF92DF92EF92FF920F93DF93CF93E8
:101D50000F92CDB7DEB720E630E086E092E1B90120
:101D600045E550E020E030E000E0EE24FF24CC2404
:101D7000DD24AA24BB240E94A60C8983898181309A
:101D800051F4F89481E08093180310921503109297
:101D900014030E94D5060F90CF91DF910F91FF9011
:101DA000EF90DF90CF90BF90AF900895DF93CF93E7
:101DB000CDB7DEB7F894109218030E940A07CF91AE
:101DC000DF910895DF93CF93CDB7DEB780911903EC
:101DD0008F5F80931903CF91DF910895DF93CF93A5
:101DE00000D000D0CDB7DEB71A820FB6F8940F92AC
:101DF00080911903815080931903809119038823DE
:101E000009F06CC080911303882309F467C019821C
:101E100041C0E0916603F0916703868197819C83BE
:101E20008B838B819C810C960E9409058B819C8100
:101E300002960E940905EB81FC8196898091170327
:101E4000891728F4EB81FC81868980931703EB8145
:101E5000FC818689282F30E0C901880F991F880FDF
:101E6000991F880F991F820F931F825E9C4F2B81B1
:101E70003C812E5F3F4FB9010E945104EB81FC81F0
:101E80009689E0911003F09111038689981710F05C
:101E900081E0898380916103882309F0BACF809122
:101EA0001A03882371F007C00E94AD0F80911A03B6
:101EB000815080931A0380911A038823A9F781E047
:101EC00089838981813021F080911B03813031F435
:101ED00081E08A8310921B030E9411070F900FBEAE
:101EE0008A810F900F900F900F90CF91DF910895FE
:101EF000DF93CF9300D0CDB7DEB70FB6F8940F9233
:101F000080911403909115039A8389830F900FBEDB
:101F100089819A810F900F90CF91DF910895DF937F
:101F2000CF9300D00F92CDB7DEB719828091140302
:101F3000909115039B838A838A819B810F900F90D8
:101F40000F90CF91DF910895DF93CF93CDB7DEB798
:101F500080911303CF91DF910895DF93CF9300D049
:101F600000D000D0CDB7DEB780911903882309F0E7
:101F7000BBC08091140390911503019690931503B3
:101F80008093140380911403909115030097D1F569
:101F900080915D0390915E039C838B8380915F03AE
:101FA0009091600390935E0380935D038B819C818D
:101FB0009093600380935F0380911C038F5F8093F5
:101FC0001C03E0915D03F0915E038081882339F466
:101FD0008FEF9FEF909366008093650013C0E091B0
:101FE0005D03F0915E030580F681E02D8681978187
:101FF0009E838D83ED81FE81828193819093660023
:102000008093650020911403309115038091650041
:10201000909166002817390708F46BC0E0915D03C2
:10202000F0915E038081882339F48FEF9FEF9093C6
:102030006600809365005DC0E0915D03F0915E03F2
:102040000580F681E02D868197819E838D83ED81C9
:10205000FE81828193819A83898320911403309138
:10206000150389819A812817390738F489819A8163
:1020700090936600809365003CC08D819E8102969E
:102080000E940905ED81FE8184899589009729F0D8
:102090008D819E810C960E940905ED81FE819689B5
:1020A00080911703891728F4ED81FE81868980933A
:1020B0001703ED81FE818689282F30E0C901880F42
:1020C000991F880F991F880F991F820F931FAC01CA
:1020D000425E5C4F8D819E819C012E5F3F4FCA0105
:1020E000B9010E9451049ACF80911A038F5F8093A7
:1020F0001A0326960FB6F894DEBF0FBECDBFCF9160
:10210000DF910895DF93CF9300D0CDB7DEB78091F4
:102110001903882349F081E080931B0354C0809108
:10212000170381508093170380911703282F30E005
:10213000C901880F991F880F991F880F991F820F57
:10214000931FFC01E25EFC4F8081882341F3809164
:102150001703282F30E0C901880F991F880F991F96
:10216000880F991F820F931F825E9C4F9A838983E9
:10217000E981FA810180F281E02D82819381E981F8
:10218000FA8192838183E981FA8121813281898177
:102190009A8103962817390759F4E981FA81018059
:1021A000F281E02D82819381E981FA81928381839A
:1021B000E981FA810180F281E02D868197819093F7
:1021C0001103809310030F900F90CF91DF9108952A
:1021D000DF93CF9300D000D000D0CDB7DEB79C8383
:1021E0008B837E836D834B815C8180911003909102
:1021F00011039C01245F3F4FCA01B9010E949D0455
:10220000809110039091110302960E94090520917C
:102210001403309115038D819E81820F931F9A8341
:10222000898389819A810E94E21226960FB6F894DA
:10223000DEBF0FBECDBFCF91DF910895DF93CF9367
:1022400000D000D00F92CDB7DEB79D838C83EC8198
:10225000FD810580F681E02D868197819B838A83AD
:102260008A819B810C960E9409058091190388231D
:1022700061F58A819B8102960E940905EA81FB81B2
:10228000968980911703891728F4EA81FB81868952
:1022900080931703EA81FB818689282F30E0C901EA
:1022A000880F991F880F991F880F991F820F931FFE
:1022B000AC01425E5C4F8A819B819C012E5F3F4F47
:1022C000CA01B9010E9451040AC08A819B819C0104
:1022D000245F3F4F81E693E0B9010E945104EA81F7
:1022E000FB819689E0911003F0911103868998177C
:1022F00018F081E0898301C0198289810F900F90C5
:102300000F900F900F90CF91DF910895DF93CF93AF
:1023100000D0CDB7DEB79A83898380911C03E98111
:10232000FA8180838091140390911503E981FA81E9
:10233000928381830F900F90CF91DF910895DF9367
:10234000CF9300D000D00F92CDB7DEB79B838A83A6
:102350007D836C830FB6F8940F92EA81FB819081A4
:1023600080911C03981771F0EA81FB8121813281F1
:1023700080911403909115038217930718F081E060
:1023800089832FC02091140330911503EA81FB81CA
:1023900081819281281B390BEC81FD8180819181A3
:1023A00028173907E0F4EC81FD8140815181EA81F1
:1023B000FB81218132818091140390911503B90131
:1023C000681B790BCB01840F951FEC81FD819183F4
:1023D00080838A819B810E948611198202C081E0DC
:1023E00089830F900FBE89810F900F900F900F90EF
:1023F0000F90CF91DF910895DF93CF93CDB7DEB7E4
:1024000081E080931B03CF91DF910895DF93CF93F9
:1024100000D0CDB7DEB79A8389830E94A412FDCF86
:102420000F931F93DF93CF93CDB7DEB729970FB6E6
:10243000F894DEBF0FBECDBF9A8389837C836B8304
:102440004D833F832E831987088789819A81499616
:102450002B813C81B90148E050E00E94A113E98141
:10246000FA8110A28D81853010F084E08D83E9819E
:10247000FA818D81868B89819A8102960E9441041E
:1024800089819A810C960E944104E981FA818981AF
:102490009A81918780878D81282F30E085E090E0B8
:1024A000821B930BE981FA8195878487E981FA8100
:1024B00089819A81938B828B29960FB6F894DEBF1F
:1024C0000FBECDBFCF91DF911F910F910895DF9384
:1024D000CF930F92CDB7DEB7198213C08981282F11
:1024E00030E0C901880F991F880F991F880F991F25
:1024F000820F931F825E9C4F0E94170489818F5F19
:1025000089838981853050F38BE493E00E9417041E
:1025100084E593E00E94170481E693E00E9417048B
:102520008AE693E00E9417048BE493E090935E03A5
:1025300080935D0384E593E09093600380935F0351
:102540000F90CF91DF910895DF93CF9300D00F923A
:10255000CDB7DEB780911203882371F10E94E20E9D
:1025600080916A031B82882311F481E08B830E948F
:10257000EE0E8B81882301F50FB6F8940F92E0914F
:102580006F03F0917003868197819A838983898193
:102590009A8102960E9409058091130381508093CD
:1025A0001303809112038150809312030F900FBE8A
:1025B00089819A810E947B130F900F900F90CF9189
:1025C000DF910895DF93CF9300D0CDB7DEB79A8324
:1025D0008983E0911003F091110389819A8193839B
:1025E0008283209114033091150389819A81821787
:1025F000930770F480915F03909160032091100322
:10260000309111032E5F3F4FB9010E949D041EC0FF
:1026100040915D0350915E038091100390911103EE
:102620009C012E5F3F4FCA01B9010E949D04209179
:1026300065003091660089819A818217930730F492
:1026400089819A8190936600809365000F900F9026
:10265000CF91DF910895DF93CF93CDB7DEB7289761
:102660000FB6F894DEBF0FBECDBF9C838B837E83F5
:102670006D8381E290E00E94AB039A838983898114
:102680009A81009769F18D819E81009739F48B8141
:102690009C810E94AB0398878F8304C08D819E81AB
:1026A00098878F83E981FA818F819885908F878BB6
:1026B000E981FA818789908D009739F489819A811F
:1026C0000E94F1031A8219820BC0E981FA8187897D
:1026D000908D2B813C8165EA70E0A9010E949A13DC
:1026E00089819A8128960FB6F894DEBF0FBECDBFC0
:1026F000CF91DF910895DF93CF9300D0CDB7DEB7B0
:102700009A838983E981FA818789908D0E94F103F8
:1027100089819A810E94F1030F900F90CF91DF91F0
:102720000895FB01DC0102C001900D924150504020
:10273000D8F70895DC0101C06D9341505040E0F797
:102740000895FB01DC014150504048F001900D928A
:102750000020C9F701C01D9241505040E0F7089594
:04276000F894FFCF1B
:1027640049444C4500FFFF3F0006005B004F0066F4
:0C277400006D007D0007007F006F00007A
:00000001FF
