:100000000C942A000C9447000C9447000C94470071
:100010000C9447000C9447000C9447000C94470044
:100020000C9447000C9447000C9447000C94470034
:100030000C9447000C9447000C9447000C94470024
:100040000C9447000C9447000C9447000C94470014
:100050000C94470011241FBECFE5D8E0DEBFCDBF12
:1000600010E0A0E6B0E0E4E8F4E202C005900D92F2
:10007000AE36B107D9F710E0AEE6B0E001C01D9290
:10008000A037B107E1F70E9433100C9440120C9492
:100090000000EF92FF920F931F937B018C0120E0F1
:1000A00030E040E05FE40E94490388238CF0C801FF
:1000B000B70120E030E040E05FE40E94C1010E940F
:1000C000A9039B01AC01205030404040504806C07D
:1000D000C801B7010E94A9039B01AC01B901CA0183
:1000E0001F910F91FF90EF900895A0E0B0E0EBE733
:1000F000F0E00C940912DC012B01FA019C91923082
:1001000008F439C1EB018881823008F433C194309E
:1001100069F4843009F02FC111969C91119789815F
:10012000981709F428C1A0E6B0E025C1843009F48D
:1001300021C18230A9F4923009F01DC19A01AD01AC
:1001400088E0EA010990AE01E90109929E0181501F
:10015000C1F7E201898111969C918923818308C1AD
:10016000923009F407C112962D903C901397EB0141
:100170008A819B811496AD90BD90CD90DC901797AD
:10018000EC80FD800E811F819101281B390BB90184
:1001900037FF04C066277727621B730B6032710537
:1001A0000CF061C0121613066CF537014801062EDB
:1001B00004C096948794779467940A94D2F721E0C8
:1001C00030E040E050E004C0220F331F441F551FB1
:1001D0006A95D2F721503040404050402E213F21B7
:1001E00040235123211531054105510521F021E01E
:1001F00030E040E050E079018A01E628F72808293C
:1002000019293CC0232BD1F1260E371E350146019A
:10021000062E04C096948794779467940A94D2F734
:1002200021E030E040E050E004C0220F331F441FC3
:10023000551F6A95D2F721503040404050402A2146
:100240003B214C215D21211531054105510521F04E
:1002500021E030E040E050E059016A01A628B728CB
:10026000C828D9280BC0821593052CF01C01AA249C
:10027000BB24650103C0EE24FF24870111969C91E5
:10028000D20111968C91981709F445C0992339F041
:10029000A80197012A193B094C095D0906C0A6016E
:1002A00095012E193F09400B510B57FD08C01182D3
:1002B0003382228224833583468357831DC081E0A5
:1002C00081833382228288279927DC01821B930B4A
:1002D000A40BB50B84839583A683B7830DC0220F2F
:1002E000331F441F551F24833583468357838281E0
:1002F000938101979383828324813581468157813D
:10030000DA01C9010197A109B1098F5F9F4FAF4F72
:10031000BF4328F30BC0918333822282EA0CFB1C7B
:100320000C1D1D1DE482F5820683178383E0808304
:10033000248135814681578157FF1AC0C901AA27F8
:1003400097FDA095BA2F81709070A070B0705695EF
:10035000479537952795822B932BA42BB52B848318
:100360009583A683B7838281938101969383828349
:10037000DF0101C0D201CD01CDB7DEB7E2E10C94BF
:100380002512A0E2B0E0E7ECF1E00C9415126983CD
:100390007A838B839C832D833E834F835887E9E048
:1003A000EE2EF12CEC0EFD1ECE010196B7010E943F
:1003B000D2048E010F5E1F4FCE010596B8010E9438
:1003C000D2048A8991E089278A8BC701B801AE01DE
:1003D000475E5F4F0E9475000E94FD03A096E6E015
:1003E0000C943112A0E2B0E0E8EFF1E00C941512A9
:1003F00069837A838B839C832D833E834F835887C5
:10040000F9E0EF2EF12CEC0EFD1ECE010196B701A6
:100410000E94D2048E010F5E1F4FCE010596B801D7
:100420000E94D204C701B801AE01475E5F4F0E942F
:1004300075000E94FD03A096E6E00C943112A0E244
:10044000B0E0E5E2F2E00C94091269837A838B83D1
:100450009C832D833E834F835887CE010196BE0136
:10046000675F7F4F0E94D204CE010596BE016F5E8A
:100470007F4F0E94D2049985923088F0898982301A
:10048000C8F0943019F4823051F404C0843029F457
:10049000923081F480E690E0C6C0923049F420E0CA
:1004A0009A858A89981321E02A87CE010996BBC0D4
:1004B000823049F420E09A858A89981321E02A8BBA
:1004C000CE014196B0C02D843E844F8458886D88FB
:1004D0007E888F88988CEE24FF248701AA24BB2471
:1004E000650140E050E060E070E0E0E0F0E0C10174
:1004F00081709070892BE9F0E60CF71C081D191D1E
:100500009A01AB012A0D3B1D4C1D5D1D80E090E062
:10051000A0E0B0E0E614F7040805190520F481E036
:1005200090E0A0E0B0E0BA01A901480F591F6A1F8E
:100530007B1FAA0CBB1CCC1CDD1C97FE08C081E0F5
:1005400090E0A0E0B0E0A82AB92ACA2ADB2A3196B6
:10055000E032F10549F0660C771C881C991C569412
:10056000479437942794C3CFFA85EA892B893C892D
:100570008B859C85280F391F2E5F3F4F17C0CA01FE
:1005800081709070892B61F016950795F794E79428
:1005900080E090E0A0E0B0E8E82AF92A0A2B1B2BC3
:1005A00076956795579547952F5F3F4F77FDE7CF36
:1005B0000CC0440F551F661F771F17FD4160EE0CDE
:1005C000FF1C001F111F21503040403090E05907A0
:1005D00090E0690790E4790760F32B8F3C8FDB0193
:1005E000CA018F779070A070B07080349105A1051A
:1005F000B10561F447FD0AC0E114F10401051105DC
:1006000029F0405C5F4F6F4F7F4F40781A8EFE1786
:1006100011F081E08A8F4D8F5E8F6F8F78A383E01A
:10062000898FCE0149960E94FD03A096E2E10C94C9
:100630002512A8E1B0E0EFE1F3E00C941512698314
:100640007A838B839C832D833E834F83588789E0F5
:10065000E82EF12CEC0EFD1ECE010196B7010E9492
:10066000D2048E010F5E1F4FCE010596B8010E9485
:10067000D2048985823040F08989823028F0C70110
:10068000B8010E944A0501C08FEF6896E6E00C941D
:100690003112A8E1B0E0EFE4F3E00C9415126983A5
:1006A0007A838B839C832D833E834F83588789E095
:1006B000E82EF12CEC0EFD1ECE010196B7010E9432
:1006C000D2048E010F5E1F4FCE010596B8010E9425
:1006D000D2048985823040F08989823028F0C701B0
:1006E000B8010E944A0501C08FEF6896E6E00C94BD
:1006F0003112A8E1B0E0EFE7F3E00C941512698342
:100700007A838B839C832D833E834F83588789E034
:10071000E82EF12CEC0EFD1ECE010196B7010E94D1
:10072000D2048E010F5E1F4FCE010596B8010E94C4
:10073000D2048985823040F08989823028F0C7014F
:10074000B8010E944A0501C081E06896E6E00C9479
:100750003112ACE0B0E0EFEAF3E00C9419126983D7
:100760007A838B839C83CE010196BE016B5F7F4FA2
:100770000E94D2048D81823061F1823050F1843048
:1007800021F48E81882351F12EC02F81388537FDC9
:1007900020C06E812F3131051CF06623F9F023C093
:1007A0008EE190E0821B930B29853A854B855C8511
:1007B00004C056954795379527958A95D2F76623B5
:1007C000B1F050954095309521953F4F4F4F5F4F79
:1007D0000EC020E030E040E050E009C02FEF3FEFD6
:1007E0004FEF5FE704C020E030E040E050E8B9019F
:1007F000CA012C96E2E00C943512DF92EF92FF9240
:100800000F931F93FC01E480F58006811781D1804E
:100810008081823048F480E090E0A0E1B0E0E82AF6
:10082000F92A0A2B1B2BA5C0843009F49FC0823003
:1008300021F4EE24FF24870105C0E114F104010531
:10084000110519F4E0E0F0E096C0628173819FEF3A
:10085000623879070CF05BC022E83FEF261B370BAC
:100860002A3131052CF020E030E040E050E02AC091
:10087000B801A701022E04C0769567955795479554
:100880000A94D2F781E090E0A0E0B0E004C0880FC5
:10089000991FAA1FBB1F2A95D2F70197A109B10979
:1008A0008E219F21A023B1230097A105B10521F03E
:1008B00081E090E0A0E0B0E09A01AB01282B392B59
:1008C0004A2B5B2BDA01C9018F779070A070B07052
:1008D00080349105A105B10539F427FF09C0205CDA
:1008E0003F4F4F4F5F4F04C0215C3F4F4F4F5F4F13
:1008F000E0E0F0E02030A0E03A07A0E04A07A0E402
:100900005A0710F0E1E0F0E079018A0127C0603871
:10091000710564F5FB01E158FF4FD801C7018F77DE
:100920009070A070B07080349105A105B10539F4C4
:10093000E7FE0DC080E490E0A0E0B0E004C08FE3EB
:1009400090E0A0E0B0E0E80EF91E0A1F1B1F17FFA1
:1009500005C016950795F794E794319687E01695AC
:100960000795F794E7948A95D1F705C0EE24FF2404
:100970008701EFEFF0E06E2F679566276795902F60
:100980009F77D794DD24D7948E2F8695492F462BB9
:10099000582F5D29B701CA011F910F91FF90EF9069
:1009A000DF900895FC01DB01408151812281622F9B
:1009B0006F7770E0221F2227221F9381892F880FD3
:1009C000822B282F30E0991F9927991F11969C930D
:1009D000119721153105A9F54115510561057105DD
:1009E00011F482E037C082E89FEF13969C938E93B8
:1009F00012979A01AB0167E0220F331F441F551F66
:100A00006A95D1F783E08C930DC0220F331F441FEA
:100A1000551F12968D919C911397019713969C9355
:100A20008E931297203080E0380780E0480780E4FA
:100A3000580758F314962D933D934D935C93179755
:100A400008952F3F310579F4411551056105710570
:100A500019F484E08C93089564FF03C081E08C93C3
:100A600012C01C9210C02F57304013963C932E9307
:100A7000129783E08C9387E0440F551F661F771F02
:100A80008A95D1F7706414964D935D936D937C9322
:100A9000179708951F93DC01FB019C91923008F495
:100AA00047C08081823008F443C0943051F41196DD
:100AB0001C91843099F58181682F70E0611B710968
:100AC0003FC0843021F0923031F48230B9F181811D
:100AD000882389F12DC011961C9111978230F1F075
:100AE00081811817D9F412962D913C911397828128
:100AF00093818217930794F028173907BCF0149656
:100B00008D919D910D90BC91A02D248135814681C0
:100B10005781281739074A075B0718F4112341F05A
:100B20000AC082179307A407B50740F4112319F0F0
:100B300061E070E005C06FEF7FEF02C060E070E041
:100B4000CB011F910895DF93CF9300D000D0CDB794
:100B5000DEB789836A838981282F30E03C832B8329
:100B60008B819C8181309105D1F02B813C81223099
:100B700031052CF48B819C81009761F01EC02B8184
:100B80003C812230310581F08B819C81833091053D
:100B900081F013C0EAE3F0E08A8180830EC0E7E3CE
:100BA000F0E08A81808309C0E4E3F0E08A818083F9
:100BB00004C0E1E3F0E08A8180830F900F900F90F2
:100BC0000F90CF91DF910895DF93CF9300D000D0A5
:100BD000CDB7DEB789836A838981282F30E03C83D3
:100BE0002B838B819C8181309105D1F02B813C81BD
:100BF000223031052CF48B819C81009761F01EC05E
:100C00002B813C812230310581F08B819C818330A6
:100C1000910581F013C0EBE3F0E08A8180830EC080
:100C2000E8E3F0E08A81808309C0E5E3F0E08A81AF
:100C3000808304C0E2E3F0E08A8180830F900F900C
:100C40000F900F90CF91DF910895DF93CF9300D055
:100C500000D00F92CDB7DEB789836A834B83898139
:100C6000282F30E03D832C838C819D81813091053C
:100C700009F447C02C813D81223031052CF48C8150
:100C80009D81009771F0CBC02C813D8122303105D0
:100C900009F467C08C819D818330910509F491C06E
:100CA000BEC08B818130A1F4AAE3B0E0EAE3F0E0BA
:100CB0008081482F8A81282F30E081E090E0022E49
:100CC00002C0880F991F0A94E2F7842B8C93A7C067
:100CD0008B81882309F0A3C0AAE3B0E0EAE3F0E047
:100CE0008081482F8A81282F30E081E090E0022E19
:100CF00002C0880F991F0A94E2F7809584238C9391
:100D00008EC08B818130A1F4A7E3B0E0E7E3F0E08F
:100D10008081482F8A81282F30E081E090E0022EE8
:100D200002C0880F991F0A94E2F7842B8C9377C036
:100D30008B81882309F073C0A7E3B0E0E7E3F0E01C
:100D40008081482F8A81282F30E081E090E0022EB8
:100D500002C0880F991F0A94E2F7809584238C9330
:100D60005EC08B818130A1F4A4E3B0E0E4E3F0E065
:100D70008081482F8A81282F30E081E090E0022E88
:100D800002C0880F991F0A94E2F7842B8C9347C006
:100D90008B81882309F043C0A4E3B0E0E4E3F0E0F2
:100DA0008081482F8A81282F30E081E090E0022E58
:100DB00002C0880F991F0A94E2F7809584238C93D0
:100DC0002EC08B818130A1F4A1E3B0E0E1E3F0E03B
:100DD0008081482F8A81282F30E081E090E0022E28
:100DE00002C0880F991F0A94E2F7842B8C9317C0D6
:100DF0008B818823A1F4A1E3B0E0E1E3F0E08081FE
:100E0000482F8A81282F30E081E090E0022E02C036
:100E1000880F991F0A94E2F7809584238C930F9092
:100E20000F900F900F900F90CF91DF910895DF9367
:100E3000CF9300D000D00F92CDB7DEB789836A83FD
:100E40004B838981282F30E03D832C838C819D81C9
:100E50008130910509F447C02C813D812230310554
:100E60002CF48C819D81009771F0CBC02C813D8149
:100E70002230310509F467C08C819D818330910552
:100E800009F491C0BEC08B818130A1F4ABE3B0E026
:100E9000EBE3F0E08081482F8A81282F30E081E069
:100EA00090E0022E02C0880F991F0A94E2F7842B6B
:100EB0008C93A7C08B81882309F0A3C0ABE3B0E07B
:100EC000EBE3F0E08081482F8A81282F30E081E039
:100ED00090E0022E02C0880F991F0A94E2F78095D5
:100EE00084238C938EC08B818130A1F4A8E3B0E081
:100EF000E8E3F0E08081482F8A81282F30E081E00C
:100F000090E0022E02C0880F991F0A94E2F7842B0A
:100F10008C9377C08B81882309F073C0A8E3B0E07D
:100F2000E8E3F0E08081482F8A81282F30E081E0DB
:100F300090E0022E02C0880F991F0A94E2F7809574
:100F400084238C935EC08B818130A1F4A5E3B0E053
:100F5000E5E3F0E08081482F8A81282F30E081E0AE
:100F600090E0022E02C0880F991F0A94E2F7842BAA
:100F70008C9347C08B81882309F043C0A5E3B0E080
:100F8000E5E3F0E08081482F8A81282F30E081E07E
:100F900090E0022E02C0880F991F0A94E2F7809514
:100FA00084238C932EC08B818130A1F4A2E3B0E026
:100FB000E2E3F0E08081482F8A81282F30E081E051
:100FC00090E0022E02C0880F991F0A94E2F7842B4A
:100FD0008C9317C08B818823A1F4A2E3B0E0E2E3F5
:100FE000F0E08081482F8A81282F30E081E090E076
:100FF000022E02C0880F991F0A94E2F7809584237D
:101000008C930F900F900F900F900F90CF91DF91D6
:101010000895DF93CF9300D000D0CDB7DEB78A8399
:101020008A81282F30E03C832B838B819C81813007
:101030009105D1F02B813C81223031052CF48B813C
:101040009C81009761F01EC02B813C8122303105CC
:1010500081F08B819C818330910581F013C0E9E39D
:10106000F0E0808189830EC0E6E3F0E0808189832F
:1010700009C0E3E3F0E08081898304C0E0E3F0E0AD
:101080008081898389810F900F900F900F90CF916D
:10109000DF910895DF93CF9300D000D00F92CDB7AA
:1010A000DEB78A836B838A81282F30E03D832C83CF
:1010B0004C815D814130510541F18C819D818230AF
:1010C000910534F42C813D812115310561F052C028
:1010D0004C815D814230510551F18C819D8183307D
:1010E0009105B9F147C0E9E3F0E08081282F30E0B5
:1010F0008B81882F90E0A90102C0559547958A956C
:10110000E2F7CA018170898335C0E6E3F0E08081AF
:10111000282F30E08B81882F90E0A90102C05595DF
:1011200047958A95E2F7CA018170898323C0E3E37A
:10113000F0E08081282F30E08B81882F90E0A9019A
:1011400002C0559547958A95E2F7CA018170898357
:1011500011C0E0E3F0E08081282F30E08B81882F00
:1011600090E0A90102C0559547958A95E2F7CA011A
:101170008170898389810F900F900F900F900F904D
:10118000CF91DF910895DF93CF93CDB7DEB7E0E243
:10119000F0E084E08083A1E2B0E0E1E2F0E0808171
:1011A0008C7F8C93E6E5F0E084E08083CF91DF9143
:1011B0000895DF93CF93CDB7DEB7E2E2F0E082E0AF
:1011C0008083E6E5F0E084E08083CF91DF910895AD
:1011D000DF93CF93CDB7DEB7E6E5F0E084EA808316
:1011E000E6E5F0E080818823DCF7E1E2F0E0808151
:1011F000882F90E0887F907088309105B1F7CF916B
:10120000DF910895DF93CF93CDB7DEB7E6E5F0E049
:1012100084EA8083E6E5F0E080818823DCF7E1E280
:10122000F0E08081882F90E0887F90708031910578
:10123000B1F7CF91DF910895DF93CF930F92CDB7A0
:10124000DEB78983E3E2F0E08981880F8083E6E5F9
:10125000F0E084E88083E6E5F0E080818823DCF735
:10126000E1E2F0E08081882F90E0887F9070883103
:101270009105B1F70F90CF91DF910895DF93CF9350
:101280000F92CDB7DEB78983E3E2F0E08981880F62
:101290008083A3E2B0E0E3E2F0E0808181608C93A0
:1012A000E6E5F0E084E88083E6E5F0E080818823ED
:1012B000DCF7E1E2F0E08081882F90E0887F907099
:1012C00080349105B1F70F90CF91DF910895DF93AE
:1012D000CF930F92CDB7DEB78983E3E2F0E0898147
:1012E0008083E6E5F0E084E88083E6E5F0E0808155
:1012F0008823DCF7E1E2F0E08081882F90E0887FAE
:10130000907088329105B1F70F90CF91DF910895D9
:10131000DF93CF93CDB7DEB7E6E5F0E084E88083D6
:10132000E6E5F0E080818823DCF7E1E2F0E080810F
:10133000882F90E0887F907088359105B1F7E3E2BF
:10134000F0E08081CF91DF910895DF93CF93CDB707
:10135000DEB7E6E5F0E084E98083CF91DF91089580
:10136000DF93CF93CDB7DEB7E6E5F0E084EC808382
:10137000E6E5F0E080818823DCF7E1E2F0E08081BF
:10138000882F90E0887F907080369105B1F7CF91DB
:10139000DF910895DF93CF93CDB7DEB7E6E5F0E0B8
:1013A00084EC8083E6E5F0E080818823DCF7E1E2ED
:1013B000F0E08081882F90E0887F9070883A9105D6
:1013C000B1F7CF91DF910895DF93CF93CDB7DEB71B
:1013D000E6E5F0E084EC8083E6E5F0E080818823B8
:1013E000DCF7E1E2F0E08081882F90E0887F907068
:1013F00080389105B1F7E3E2F0E08081CF91DF9191
:101400000895DF93CF930F92CDB7DEB78983E3E2E0
:10141000F0E089818083E6E5F0E084EC8083E6E516
:10142000F0E080818823DCF7E1E2F0E08081882F22
:1014300090E0887F9070803C9105B1F70F90CF913C
:10144000DF910895DF93CF93CDB7DEB781E063E0FE
:1014500040E00E94250681E063E041E00E9417071A
:1014600081E062E040E00E94250681E062E041E028
:101470000E94170781E061E040E00E94250681E0BC
:1014800061E041E00E94170781E060E040E00E94D7
:10149000250681E060E041E00E94170781E064E0FA
:1014A00041E00E94250681E065E041E00E942506BA
:1014B00081E066E041E00E94250681E067E041E0CE
:1014C0000E942506CF91DF910895DF93CF93CDB78A
:1014D000DEB76B970FB6F894DEBF0FBECDBF8B8F14
:1014E0001A8A8B8D86958695898B8B8D8370888BD8
:1014F00083E08B8B82E08C8B81E08D8B1E8A84E075
:101500008F8B85E0888F86E0898F87E08A8F81E0E6
:1015100064E041E00E94170781E065E041E00E943D
:10152000170781E066E041E00E94170781E067E06D
:1015300041E00E9417078889282F30E0CE014796A6
:10154000FC01E20FF31F908181E0692F40E00E94CF
:1015500017078989282F30E0CE014396FC01E20F5E
:10156000F31F908181E0692F0E944A088F878F8541
:10157000882309F085C080E090E0A8ECB1E48B8777
:101580009C87AD87BE876B857C858D859E8520E099
:1015900030E84BE355E40E941F02DC01CB018F834E
:1015A0009887A987BA876F81788589859A8520E091
:1015B00030E040E85FE30E94790388232CF481E067
:1015C00090E09E838D833FC06F81788589859A8561
:1015D00020E03FEF4FE757E40E94190318164CF53F
:1015E0006B857C858D859E8520E030E040E251E46E
:1015F0000E941F02DC01CB01BC01CD010E94490009
:10160000DC01CB019E838D830FC08CE291E09C8333
:101610008B838B819C810197F1F79C838B838D81D8
:101620009E8101979E838D838D819E81009769F7AE
:1016300014C06F81788589859A850E944900DC01F4
:10164000CB019E838D838D819E819A83898389813D
:101650009A810197F1F79A8389838989282F30E04D
:10166000CE014396FC01E20FF31F908181E0692FC8
:101670000E944A088F878F85882311F481E08A8B26
:101680008A896B960FB6F894DEBF0FBECDBFCF919F
:10169000DF910895DF93CF93CDB7DEB76D970FB687
:1016A000F894DEBF0FBECDBF8D8F82E065E041E0D4
:1016B0000E94170782E066E040E00E94170783E07F
:1016C0006D8D0E94E40582E067E041E00E9417070B
:1016D00080E090E0A0E8BFE3898F9A8FAB8FBC8F4A
:1016E000698D7A8D8B8D9C8D20E030E84BE355E43D
:1016F0000E941F02DC01CB018D8B9E8BAF8BB88FBC
:101700006D897E898F89988D20E030E040E85FE325
:101710000E94790388232CF481E090E09C8B8B8BD2
:101720003FC06D897E898F89988D20E03FEF4FE71C
:1017300057E40E94190318164CF5698D7A8D8B8D2C
:101740009C8D20E030E040E251E40E941F02DC0169
:10175000CB01BC01CD010E944900DC01CB019C8B77
:101760008B8B0FC08CE291E09A8B898B89899A8947
:101770000197F1F79A8B898B8B899C8901979C8BB8
:101780008B8B8B899C89009769F714C06D897E8942
:101790008F89988D0E944900DC01CB019C8B8B8B3B
:1017A0008B899C89988B8F878F8598890197F1F712
:1017B000988B8F8782E067E040E00E94170780E007
:1017C00090E0A0E8BFE38B879C87AD87BE876B85E1
:1017D0007C858D859E8520E030E84BE355E40E94B2
:1017E0001F02DC01CB018F839887A987BA876F819D
:1017F000788589859A8520E030E040E85FE30E94A3
:10180000790388232CF481E090E09E838D833FC090
:101810006F81788589859A8520E03FEF4FE757E40F
:101820000E94190318164CF56B857C858D859E8565
:1018300020E030E040E251E40E941F02DC01CB01D5
:10184000BC01CD010E944900DC01CB019E838D8348
:101850000FC08CE291E09C838B838B819C810197EC
:10186000F1F79C838B838D819E8101979E838D836D
:101870008D819E81009769F714C06F817885898575
:101880009A850E944900DC01CB019E838D838D8166
:101890009E819A83898389819A810197F1F79A833E
:1018A00089836D960FB6F894DEBF0FBECDBFCF9182
:1018B000DF910895DF93CF93CDB7DEB76D970FB665
:1018C000F894DEBF0FBECDBF8D8F82E065E040E0B3
:1018D0000E94170782E066E040E00E94170783E05D
:1018E0006D8D0E94E40582E067E041E00E941707E9
:1018F00080E090E0A0E8BFE3898F9A8FAB8FBC8F28
:10190000698D7A8D8B8D9C8D20E030E84BE355E41A
:101910000E941F02DC01CB018D8B9E8BAF8BB88F99
:101920006D897E898F89988D20E030E040E85FE303
:101930000E94790388232CF481E090E09C8B8B8BB0
:101940003FC06D897E898F89988D20E03FEF4FE7FA
:1019500057E40E94190318164CF5698D7A8D8B8D0A
:101960009C8D20E030E040E251E40E941F02DC0147
:10197000CB01BC01CD010E944900DC01CB019C8B55
:101980008B8B0FC08CE291E09A8B898B89899A8925
:101990000197F1F79A8B898B8B899C8901979C8B96
:1019A0008B8B8B899C89009769F714C06D897E8920
:1019B0008F89988D0E944900DC01CB019C8B8B8B19
:1019C0008B899C89988B8F878F8598890197F1F7F0
:1019D000988B8F8782E067E040E00E94170780E0E5
:1019E00090E0A0E8BFE38B879C87AD87BE876B85BF
:1019F0007C858D859E8520E030E84BE355E40E9490
:101A00001F02DC01CB018F839887A987BA876F817A
:101A1000788589859A8520E030E040E85FE30E9480
:101A2000790388232CF481E090E09E838D833FC06E
:101A30006F81788589859A8520E03FEF4FE757E4ED
:101A40000E94190318164CF56B857C858D859E8543
:101A500020E030E040E251E40E941F02DC01CB01B3
:101A6000BC01CD010E944900DC01CB019E838D8326
:101A70000FC08CE291E09C838B838B819C810197CA
:101A8000F1F79C838B838D819E8101979E838D834B
:101A90008D819E81009769F714C06F817885898553
:101AA0009A850E944900DC01CB019E838D838D8144
:101AB0009E819A83898389819A810197F1F79A831C
:101AC00089836D960FB6F894DEBF0FBECDBFCF9160
:101AD000DF910895DF93CF93CDB7DEB7AA970FB606
:101AE000F894DEBF0FBECDBF83E06FEF0E94A30569
:101AF00082E065E041E00E94250682E066E041E088
:101B00000E94250682E067E041E00E94250680E011
:101B100090E0A8E4B2E48FA398A7A9A7BAA76FA101
:101B200078A589A59AA520E030E84BE355E40E940A
:101B30001F02DC01CB018BA39CA3ADA3BEA36BA1B1
:101B40007CA18DA19EA120E030E040E85FE30E94EF
:101B5000790388232CF481E090E09AA389A33FC005
:101B60006BA17CA18DA19EA120E03FEF4FE757E440
:101B70000E94190318164CF56FA178A589A59AA59E
:101B800020E030E040E251E40E941F02DC01CB0182
:101B9000BC01CD010E944900DC01CB019AA389A3BD
:101BA0000FC08CE291E098A38F8F8F8D98A1019741
:101BB000F1F798A38F8F89A19AA101979AA389A37E
:101BC00089A19AA1009769F714C06BA17CA18DA18E
:101BD0009EA10E944900DC01CB019AA389A389A19F
:101BE0009AA19E8F8D8F8D8D9E8D0197F1F79E8F7F
:101BF0008D8F88E30E945A0C80E090E0A0E8BFE35C
:101C0000898F9A8FAB8FBC8F698D7A8D8B8D9C8DD0
:101C100020E030E84BE355E40E941F02DC01CB01D9
:101C20008D8B9E8BAF8BB88F6D897E898F89988DB8
:101C300020E030E040E85FE30E94790388232CF441
:101C400081E090E09C8B8B8B3FC06D897E898F8972
:101C5000988D20E03FEF4FE757E40E9419031816D4
:101C60004CF5698D7A8D8B8D9C8D20E030E040E2C3
:101C700051E40E941F02DC01CB01BC01CD010E9496
:101C80004900DC01CB019C8B8B8B0FC08CE291E077
:101C90009A8B898B89899A890197F1F79A8B898B1D
:101CA0008B899C8901979C8B8B8B8B899C89009756
:101CB00069F714C06D897E898F89988D0E944900CB
:101CC000DC01CB019C8B8B8B8B899C89988B8F87BC
:101CD0008F8598890197F1F7988B8F878CE00E9408
:101CE0005A0C80E090E0A0E8BFE38B879C87AD872B
:101CF000BE876B857C858D859E8520E030E84BE333
:101D000055E40E941F02DC01CB018F839887A987CD
:101D1000BA876F81788589859A8520E030E040E830
:101D20005FE30E94790388232CF481E090E09E8396
:101D30008D833FC06F81788589859A8520E03FEF4C
:101D40004FE757E40E94190318164CF56B857C8504
:101D50008D859E8520E030E040E251E40E941F0224
:101D6000DC01CB01BC01CD010E944900DC01CB01AB
:101D70009E838D830FC08CE291E09C838B838B814B
:101D80009C810197F1F79C838B838D819E810197C4
:101D90009E838D838D819E81009769F714C06F812A
:101DA000788589859A850E944900DC01CB019E8354
:101DB0008D838D819E819A83898389819A81019700
:101DC000F1F79A83898381E00E945A0CAA960FB694
:101DD000F894DEBF0FBECDBFCF91DF910895DF93A2
:101DE000CF9300D00F92CDB7DEB79B838A83198241
:101DF0000EC08981282F30E08A819B81FC01E20F8F
:101E0000F31F80810E944A0B89818F5F89838981BA
:101E1000282F30E08A819B81FC01E20FF31F808133
:101E2000882339F70F900F900F90CF91DF9108958D
:101E3000DF93CF9300D000D0CDB7DEB789836A831C
:101E40008981882329F48A8180580E945A0C07C00E
:101E50008981813021F48A8180540E945A0C0F902C
:101E60000F900F900F90CF91DF910895EF92FF9216
:101E70000F931F93DF93CF93CDB7DEB728970FB69D
:101E8000F894DEBF0FBECDBF6D837E838F839887AE
:101E900081E090E0A0E0B0E089839A83AB83BC83CB
:101EA0008D819E81AF81B8850097A105B10519F498
:101EB00080E30E944A0B8D819E81AF81B885BB2350
:101EC0000CF049C08DE20E944A0B8D819E81AF814A
:101ED000B885B095A095909581959F4FAF4FBF4F16
:101EE0008D839E83AF83B88736C089819A81AB8109
:101EF000BC812AE030E040E050E0BC01CD010E940E
:101F0000AD117B018C018D819E81AF81B8852AE066
:101F100030E040E050E0BC01CD010E94CC11DC017A
:101F2000CB018E0D9F1DA01FB11F89839A83AB83A8
:101F3000BC838D819E81AF81B8852AE030E040E08E
:101F400050E0BC01CD010E94CC11DA01C9018D83A2
:101F50009E83AF83B8878D819E81AF81B8850097BE
:101F6000A105B10511F623C089819A81AB81BC819D
:101F70002AE030E040E050E0BC01CD010E94CC11ED
:101F8000DC01CB01805D0E944A0B89819A81AB8183
:101F9000BC812AE030E040E050E0BC01CD010E946D
:101FA000CC11DA01C90189839A83AB83BC8389810F
:101FB0009A81AB81BC8181309105A105B105A1F663
:101FC00028960FB6F894DEBF0FBECDBFCF91DF913C
:101FD0001F910F91FF90EF900895DF93CF93CDB7AE
:101FE000DEB70E94C308CF91DF910895DF93CF93AE
:101FF00000D00F92CDB7DEB79A8389836B830E949E
:10200000E80880E50E941C0989810E9467098B818C
:102010000E9467090E94A5090F900F900F90CF9121
:10202000DF910895DF93CF9300D00F92CDB7DEB745
:102030009B838A830E94E80880E50E941C098A81AC
:102040000E9467090E94020980E50E943E090E94E1
:10205000880989830E94A50989810F900F900F90AC
:10206000CF91DF910895DF93CF93CDB7DEB7AA97D5
:102070000FB6F894DEBF0FBECDBF0E946A0D0E945E
:10208000ED0F80E090E0AAEFB3E48FA398A7A9A793
:10209000BAA76FA178A589A59AA520E030E84BE3FF
:1020A00055E40E941F02DC01CB018BA39CA3ADA3CE
:1020B000BEA36BA17CA18DA19EA120E030E040E8F1
:1020C0005FE30E94790388232CF481E090E09AA3D7
:1020D00089A33FC06BA17CA18DA19EA120E03FEF11
:1020E0004FE757E40E94190318164CF56FA178A525
:1020F00089A59AA520E030E040E251E40E941F0249
:10210000DC01CB01BC01CD010E944900DC01CB0107
:102110009AA389A30FC08CE291E098A38F8F8F8D33
:1021200098A10197F1F798A38F8F89A19AA10197A0
:102130009AA389A389A19AA1009769F714C06BA1FA
:102140007CA18DA19EA10E944900DC01CB019AA334
:1021500089A389A19AA19E8F8D8F8D8D9E8D0197C8
:10216000F1F79E8F8D8F81E090E062E30E94F60F81
:1021700080E090E0AAEFB3E4898F9A8FAB8FBC8F99
:10218000698D7A8D8B8D9C8D20E030E84BE355E492
:102190000E941F02DC01CB018D8B9E8BAF8BB88F11
:1021A0006D897E898F89988D20E030E040E85FE37B
:1021B0000E94790388232CF481E090E09C8B8B8B28
:1021C0003FC06D897E898F89988D20E03FEF4FE772
:1021D00057E40E94190318164CF5698D7A8D8B8D82
:1021E0009C8D20E030E040E251E40E941F02DC01BF
:1021F000CB01BC01CD010E944900DC01CB019C8BCD
:102200008B8B0FC08CE291E09A8B898B89899A899C
:102210000197F1F79A8B898B8B899C8901979C8B0D
:102220008B8B8B899C89009769F714C06D897E8997
:102230008F89988D0E944900DC01CB019C8B8B8B90
:102240008B899C89988B8F878F8598890197F1F767
:10225000988B8F8781E090E00E94121080936E002F
:1022600080E090E0AAEFB3E48B879C87AD87BE87C0
:102270006B857C858D859E8520E030E84BE355E4B9
:102280000E941F02DC01CB018F839887A987BA8740
:102290006F81788589859A8520E030E040E85FE3AA
:1022A0000E94790388232CF481E090E09E838D8343
:1022B0003FC06F81788589859A8520E03FEF4FE7A1
:1022C00057E40E94190318164CF56B857C858D85A3
:1022D0009E8520E030E040E251E40E941F02DC01D4
:1022E000CB01BC01CD010E944900DC01CB019E83E2
:1022F0008D830FC08CE291E09C838B838B819C81CA
:102300000197F1F79C838B838D819E8101979E833A
:102310008D838D819E81009769F714C06F817885C8
:1023200089859A850E944900DC01CB019E838D83BB
:102330008D819E819A83898389819A810197F1F7A2
:102340009A83898380916E00882F90E0A0E0B0E0AE
:10235000BC01CD010E94360FFFCF629FD001739F59
:10236000F001829FE00DF11D649FE00DF11D929F31
:10237000F00D839FF00D749FF00D659FF00D992770
:10238000729FB00DE11DF91F639FB00DE11DF91F94
:10239000BD01CF011124089597FB092E05260ED00B
:1023A00057FD04D014D00AD0001C38F45095409545
:1023B000309521953F4F4F4F5F4F0895F6F7909519
:1023C0008095709561957F4F8F4F9F4F0895A1E243
:1023D0001A2EAA1BBB1BFD010DC0AA1FBB1FEE1F9F
:1023E000FF1FA217B307E407F50720F0A21BB30BEA
:1023F000E40BF50B661F771F881F991F1A9469F766
:1024000060957095809590959B01AC01BD01CF01C1
:1024100008952F923F924F925F926F927F928F9288
:102420009F92AF92BF92CF92DF92EF92FF920F9363
:102430001F93CF93DF93CDB7DEB7CA1BDB0B0FB66D
:10244000F894DEBF0FBECDBF09942A88398848882A
:102450005F846E847D848C849B84AA84B984C884C0
:10246000DF80EE80FD800C811B81AA81B981CE0FB7
:10247000D11D0FB6F894DEBF0FBECDBFED0108959C
:04248000F894FFCFFE
:0E248400000000000000000068616E6E610044
:00000001FF
