:100000000C942A000C9436000C9434000C943400A8
:100010000C9434000C9434000C9434000C94340090
:100020000C9434000C9434000C9434000C94340080
:100030000C9434000C9434000C9434000C94340070
:100040000C9434000C9434000C9434000C94340060
:100050000C94340011241FBECFE5D8E0DEBFCDBF25
:100060000E9457000C9494000C9400001F920F9271
:100070000FB60F9211248F93AF93BF93EF93FF931B
:10008000DF93CF93CDB7DEB7ABE3B0E0EBE3F0E0C7
:1000900080818E7F8C93CF91DF91FF91EF91BF9103
:1000A000AF918F910F900FBE0F901F901895DF9317
:1000B000CF93CDB7DEB7AAE3B0E0EAE3F0E080810A
:1000C00081608C93A1E3B0E0E1E3F0E080818B7F7D
:1000D0008C93A2E3B0E0E2E3F0E0808184608C9353
:1000E000A5E5B0E0E5E5F0E080818E7F8C93A5E5A5
:1000F000B0E0E5E5F0E080818D7F8C93ABE5B0E08A
:10010000EBE5F0E0808180648C93AFE5B0E0EFE553
:10011000F0E0808180688C93ABE3B0E0EBE3F0E04B
:0C012000808181608C93F8CFF894FFCFB1
:00000001FF
