:100000000C942A000C943F000C943F000C943F0089
:100010000C943F000C943F000C943F000C943F0064
:100020000C943F000C943F000C943F000C943F0054
:100030000C943F000C943F000C943F000C943F0044
:100040000C943F000C943F000C943F000C943F0034
:100050000C943F0011241FBECFE5D8E0DEBFCDBF1A
:1000600011E0A0E6B0E0EEE8F7E402C005900D92E2
:10007000AC39B107D9F70E9476220C94C5230C94B1
:100080000000EF92FF920F93DF93CF93CDB7DEB7CF
:1000900060970FB6F894DEBF0FBECDBFA82F002328
:1000A00009F461C07E010894E11CF11C88E0F701AD
:1000B00011928A95E9F729833A834B835C836D8398
:1000C0007E83AF83988780E2801BE82FFF27E7FDC0
:1000D000F09549815A816B817C81181684F01986CC
:1000E0001A861B861C86882799278E1B9F0B04C0A7
:1000F000440F551F661F771F8A95D2F728C0202FFF
:10010000332727FD3095DB01CA01022E04C0880F7A
:10011000991FAA1FBB1F0A94D2F789879A87AB87BA
:10012000BC8704C07695679557954795EA95D2F7B1
:100130008D819E81AF81B88504C0880F991FAA1F49
:10014000BB1F2A95D2F7482B592B6A2B7B2B4D8747
:100150005E876F87788B29853A854B855C856D85B1
:100160007E85AF8598898A2F60960FB6F894DEBF9A
:100170000FBECDBFCF91DF910F91FF90EF9008950B
:10018000EF92FF920F931F937B018C0120E030E0F0
:1001900040E05FE40E94A51088238CF0C801B701FD
:1001A00020E030E040E05FE40E941D0F0E94051156
:1001B0009B01AC01205030404040504806C0C8016F
:1001C000B7010E9405119B01AC01B901CA011F9141
:1001D0000F91FF90EF900895AEE5B0E0E2EFF0E010
:1001E0000C948E23A8E04E010894811C911CF4010C
:1001F0006A2E11926A94E9F729833A834B835C83D0
:100200006D837E838F839887CE010996FC011192BE
:10021000AA95E9F7A986BA86CB86DC86ED86FE86A6
:100220000F87188B29843A844B845C84ED84FE8488
:100230000F85188969807A808B809C806DA67EA648
:100240008FA698AA6D807E808F809884E114F10437
:100250000105110509F0B3C3621473048404950405
:1002600008F03DC100E0201600E0300601E0400645
:1002700000E0500688F41FEF2116310441045104B8
:1002800039F030F048E0E42EF12C012D112D18C08A
:10029000EE24FF24870114C020E0221620E032065D
:1002A00020E0420621E0520630F038E1E32EF12C46
:1002B000012D112D05C020E1E22EF12C012D112D73
:1002C000D201C1010E2C04C0B695A79597958795CC
:1002D0000A94D2F784569F4FDC012C9180E290E083
:1002E000A0E0B0E08E199F09A00BB10B7C018D013D
:1002F000E21AF10801091109E114F10401051105DF
:10030000A1F10E2C04C0220C331C441C551C0A9471
:10031000D2F7A40193010E2C04C0220F331F441FF7
:10032000551F0A94D2F780E290E08E199F096DA4C0
:100330007EA48FA498A804C0969487947794679419
:100340008A95D2F7622A732A842A952AADA4BEA47C
:10035000CFA4D8A804C0AA0CBB1CCC1CDD1CEA94FA
:10036000D2F7ADA6BEA6CFA6D8AA6201EE24FF247E
:10037000CDAADEAAEFAAF8AE9201810120703070FA
:1003800009AF1AAF2BAF3CAFC401B301A70196016F
:100390000E946C237B018C01C401B3012DA93EA9ED
:1003A0004FA958AD0E946C23C901DA013C014D01EF
:1003B000C401B30129AD3AAD4BAD5CAD0E944D23F4
:1003C0009B01AC018701FF24EE24ADA4BEA4CFA401
:1003D000D8A8C601AA27BB2757016801A82AB92AAD
:1003E000CA2ADB2AA216B306C406D506E0F408948E
:1003F0006108710881089108A20CB31CC41CD51CAB
:10040000A214B304C404D50470F0A216B306C40643
:10041000D50648F408946108710881089108A20C77
:10042000B31CC41CD51CA21AB30AC40AD50AC6013F
:10043000B5012DA93EA94FA958AD0E946C237B019F
:100440008C01C601B5012DA93EA94FA958AD0E9446
:100450006C23C901DA015C016D01C601B50129AD4A
:100460003AAD4BAD5CAD0E944D239B01AC018701C1
:10047000FF24EE248DA59EA5AFA5B8A9A070B070ED
:10048000E82AF92A0A2B1B2BE216F30604071507A4
:10049000C0F40894A108B108C108D108E20CF31C0B
:1004A000041D151DE214F3040405150550F0E216B1
:1004B000F3060407150728F40894A108B108C10839
:1004C000D108D3019927882786017501E82AF92ADE
:1004D0000A2B1B2BE9AAFAAA0BAB1CABCFC4211425
:1004E00031044104510471F461E070E080E090E077
:1004F00020E030E040E050E00E946C23C901DA01C6
:100500001C012D0100E0201600E0300601E040064D
:1005100000E0500688F41FEF211631044104510415
:1005200031F028F048E050E060E070E017C040E0B3
:1005300050E060E070E012C020E0221620E03206B9
:1005400020E0420621E0520628F048E150E060E059
:1005500070E004C040E150E060E070E0D201C10111
:10056000042E04C0B695A795979587950A94D2F75F
:1005700084569F4FDC012C91E0E2EE2EF12C012DF0
:10058000112DD801C701841B950BA60BB70B821B3D
:100590009109A109B1090097A105B10561F46401B0
:1005A0005301A218B308C408D50831E0632E712C9A
:1005B000812C912C1EC16F968FAF6F97082E04C0AF
:1005C000220C331C441C551C0A94D2F7EE2DE81B58
:1005D000640153010E2E04C0D694C794B794A79417
:1005E0000A94D2F7A40193016F960FAC6F9704C0E1
:1005F000220F331F441F551F0A94D2F76DA47EA407
:100600008FA498A80E2E04C096948794779467942C
:100610000A94D2F784017301E22AF32A042B152BE2
:10062000E9A6FAA60BA71CA73201882499249201F7
:1006300081012070307021960CAF1DAF2EAF3FAFFF
:100640002197C601B501A40193010E946C237B018F
:100650008C01C601B501A40193010E946C23C9015C
:10066000DA0125968CAF9DAFAEAFBFAF2597BC0129
:10067000CD0121962CAD3DAD4EAD5FAD21970E94D1
:100680004D239B01AC018701FF24EE24A9A4BAA449
:10069000CBA4DCA4C601AA27BB275C016D01AE2850
:1006A000BF28C02AD12AA216B306C406D50660F513
:1006B00025966CAD7DAD8EAD9FAD25976150704098
:1006C0008040904025966CAF7DAF8EAF9FAF259751
:1006D000A20CB31CC41CD51CA214B304C404D504BE
:1006E00098F0A216B306C406D50670F461507040A7
:1006F0008040904025966CAF7DAF8EAF9FAF259721
:10070000A20CB31CC41CD51CA21AB30AC40AD50A75
:10071000C601B501A40193010E946C237B018C01E9
:10072000C601B501A40193010E946C23C901DA013D
:100730003C014D01C401B30121962CAD3DAD4EAD40
:100740005FAD21970E944D239B01AC018701FF24DF
:10075000EE2489A59AA5ABA5BCA5A070B0705701E1
:100760006801A82AB92ACA2ADB2AA216B306C40637
:10077000D506E0F408946108710881089108A20C7C
:10078000B31CC41CD51CA214B304C404D50470F05B
:10079000A216B306C406D50648F408946108710889
:1007A00081089108A20CB31CC41CD51C8DA59EA564
:1007B000AFA5B8A96F960FAC6F9704C0880F991FAB
:1007C000AA1FBB1F0A94D2F78DA79EA7AFA7B8ABED
:1007D000A21AB30AC40AD50A2596ECACFDAC0EAD3C
:1007E0001FAD2597D70199278827682A792A8A2A51
:1007F0009B2A82012227332729960CAF1DAF2EAFEB
:100800003FAF2997A2019101407050702D962CAFF7
:100810003DAF4EAF5FAF2D97C601B50129962CAD08
:100820003DAD4EAD5FAD29970E946C237B018C01DD
:10083000C601B50129962CAD3DAD4EAD5FAD2997F2
:100840000E946C23C901DA0161968CAF9DAFAEAFF7
:10085000BFAF6197BC01CD012D962CAD3DAD4EAD26
:100860005FAD2D970E944D239B01AC018701FF24B2
:10087000EE24ADA4BEA4CFA4D8A8C601AA27BB2746
:1008800057016801A82AB92ACA2ADB2AA216B30688
:10089000C406D50660F561966CAD7DAD8EAD9FAD9D
:1008A0006197615070408040904061966CAF7DAF21
:1008B0008EAF9FAF6197A20CB31CC41CD51CA214B1
:1008C000B304C404D50498F0A216B306C406D50632
:1008D00070F4615070408040904061966CAF7DAF85
:1008E0008EAF9FAF6197A20CB31CC41CD51CA21A7B
:1008F000B30AC40AD50AC601B50129962CAD3DAD8F
:100900004EAD5FAD29970E946C237B018C01C6011F
:10091000B50129962CAD3DAD4EAD5FAD29970E9436
:100920006C23C901DA015C016D01C601B5012D9688
:100930002CAD3DAD4EAD5FAD2D970E944D239B017B
:10094000AC018701FF24EE248DA59EA5AFA5B8A913
:10095000A070B070E82AF92A0A2B1B2BE216F306C6
:1009600004071507C0F40894A108B108C108D1080C
:10097000E20CF31C041D151DE214F3040405150517
:1009800050F0E216F3060407150728F40894A108AE
:10099000B108C108D1086196ECACFDAC0EAD1FAD3D
:1009A0006197D7019927882796018501082B192B74
:1009B0002A2B3B2B09AB1AAB2BAB3CAB62C26E14A0
:1009C0007F048006910608F451C220E0E21620E080
:1009D000F20621E0020720E0120788F43FEFE31659
:1009E000F1040105110531F028F048E050E060E025
:1009F00070E017C040E050E060E070E012C040E0FE
:100A0000E41640E0F40640E0040741E0140728F053
:100A100048E150E060E070E004C040E150E060E098
:100A200070E0D801C701042E04C0B695A79597952C
:100A300087950A94D2F784569F4FDC012C9130E2BF
:100A4000A32EB12CC12CD12CD601C501841B950B32
:100A5000A60BB70B821B9109A109B1090097A1054B
:100A6000B10589F4E614F7040805190508F4F2C184
:100A70006DA47EA48FA498A86214730484049504C2
:100A800008F0E8C1F3C16E968FAF6E97082E04C0D0
:100A9000EE0CFF1C001F111F0A94D2F76A2D681B71
:100AA000D201C101062E04C0B695A79597958795EA
:100AB0000A94D2F75C016D01AE28BF28C02AD12A62
:100AC000ADA2BEA2CFA2D8A6720161016E960FACF4
:100AD0006E9704C0CC0CDD1CEE1CFF1C0A94D2F7F0
:100AE000C9A2DAA2EBA2FCA264015301062E04C043
:100AF000D694C794B794A7940A94D2F7D401C301AB
:100B00006E960FAC6E9704C0880F991FAA1FBB1F6B
:100B10000A94D2F7EDA4FEA40FA518A904C0169557
:100B20000795F794E7946A95D2F737014801682A48
:100B3000792A8A2A9B2A6D8E7E8E8F8E98A2EDA0AE
:100B4000FEA00FA118A538018824992498018701D7
:100B50002070307065960CAF1DAF2EAF3FAF65971C
:100B6000C601B501A40193010E946C237B018C0195
:100B7000C601B501A40193010E946C23C901DA01E9
:100B80001C012D01C201B10165962CAD3DAD4EADEC
:100B90005FAD65970E944D239B01AC018701FF2447
:100BA000EE24AD8CBE8CCF8CD8A0C601AA27BB2763
:100BB00057016801A82AB92ACA2ADB2AA216B30655
:100BC000C406D50600F508942108310841085108EB
:100BD000EDA0FEA00FA118A5AE0CBF1CC01ED11E1B
:100BE000AE14BF04C006D10670F0A216B306C40648
:100BF000D50648F408942108310841085108AE0C84
:100C0000BF1CC01ED11EA21AB30AC40AD50AC6014F
:100C1000B501A40193010E946C237B018C01C601E4
:100C2000B501A40193010E946C23C901DA013C01C2
:100C30004D01C401B30165962CAD3DAD4EAD5FAD28
:100C400065970E944D239B01AC018701FF24EE2490
:100C50008D8D9E8DAF8DB8A1A070B07057016801C9
:100C6000A82AB92ACA2ADB2AA216B306C406D506C0
:100C700000F5089461087108810891086DA17EA1B2
:100C80008FA198A5A60EB71EC81ED91EA616B70618
:100C9000C806D90670F0A216B306C406D50648F4F5
:100CA00008946108710881089108A60EB71EC81E35
:100CB000D91ED601C501821B930BA40BB50B898FDE
:100CC0009A8FAB8FBC8FD10199278827640153017C
:100CD000A82AB92ACA2ADB2AA9AABAAACBAADCAAB4
:100CE000860175012FEF3FEF40E050E0E222F32252
:100CF00004231523A601662777276D964CAF5DAFB9
:100D00006EAF7FAF6D97A9A0BAA0CBA0DCA06FEFAC
:100D10007FEF80E090E0A622B722C822D92289A1E5
:100D20009AA1ABA1BCA11D0144245524C801B7015F
:100D3000A60195010E944D2369966CAF7DAF8EAFE1
:100D40009FAF6997C801B701A20191010E944D238D
:100D50003B014C016D966CAD7DAD8EAD9FAD6D9739
:100D6000A60195010E944D237B018C016D966CAD0F
:100D70007DAD8EAD9FAD6D97A20191010E944D2377
:100D80005B016C01A8019701260D371D481D591DF7
:100D900069966CAC7DAC8EAC9FAC6997C401AA27F8
:100DA000BB27280F391F4A1F5B1F2E153F05400721
:100DB000510748F4E12CF12C61E0062F112DAE0C07
:100DC000BF1CC01ED11ECA01AA27BB27BC01CD0172
:100DD0006A0D7B1D8C1D9D1D698C7A8C8B8C9C8C67
:100DE000661677068806990640F166157705880528
:100DF000990509F043C0D9019927882769962CAD38
:100E00003DAD4EAD5FAD699740705070820F931F3E
:100E1000A41FB51F2DA53EA54FA558A96E960FACD2
:100E20006E9704C0220F331F441F551F0A94D2F738
:100E3000281739074A075B0708F509A91AA92BA93A
:100E40003CA9015010402040304009AB1AAB2BABFD
:100E50003CAB14C066247724430121E030E040E03D
:100E600050E029AB3AAB4BAB5CAB0BC066247724AC
:100E7000430119AA1AAA1BAA1CAA03C06624772434
:100E80004301FE01719688E0DF011D928A95E9F722
:100E9000A9A8BAA8CBA8DCA8A98ABA8ACB8ADC8A76
:100EA0006D8A7E8A8F8A988E29A93A894B895C89B6
:100EB000662D7E898F89988DC25ADF4FE2E10C94AE
:100EC000AA23ABE5B0E0E7E6F7E00C948E23A8E0B8
:100ED0004E010894811C911CF4016A2E11926A94AF
:100EE000E9F729833A834B835C836D837E838F8309
:100EF0009887CE010996FC011192AA95E9F7A98677
:100F0000BA86CB86DC86ED86FE860F87188B298411
:100F10003A844B845C84AD84BE84CF84D888298194
:100F20003A814B815C8169962FAF69976A963FAF92
:100F30006A976B964FAF6B976C965FAF6C976C969A
:100F40006CAC7DAC8EAC9FAC6C9769AA7AAA8BAA6C
:100F50009CAA6D817E818F8198853B014C016DAA91
:100F60007EAA8FAA98AEA114B104C104D10409F0DD
:100F700004C3621473048404950408F000C100E003
:100F8000201600E0300601E0400600E0500688F43C
:100F90001FEF211631044104510439F030F088E08C
:100FA000E82EF12C012D112D18C0EE24FF2487010D
:100FB00014C040E0241640E0340640E0440641E01E
:100FC000540630F0B8E1EB2EF12C012D112D05C0A7
:100FD000A0E1EA2EF12C012D112DD201C1010E2C20
:100FE00004C0B695A795979587950A94D2F784562D
:100FF0009F4FDC012C9180E290E0A0E0B0E08E19E0
:101000009F09A00BB10B5C016D01A21AB108C108C8
:10101000D108A9AEBAAECBAEDCAEA114B104C10406
:10102000D10409F43FC069AD062E04C0220C331C64
:10103000441C551C0A94D2F7A4019301062E04C047
:10104000220F331F441F551F0A94D2F780E290E00D
:101050008A199B096C96CCACDDACEEACFFAC6C97FE
:1010600004C0F694E794D794C7948A95D2F7870181
:101070007601E22AF32A042B152BEDAAFEAA0FAB68
:1010800018AF6C968CAD9DADAEADBFAD6C9704C086
:10109000880F991FAA1FBB1F6A95D2F789AB9AAB1D
:1010A000ABABBCAB320188249924B201A1016070C2
:1010B000707021964CAF5DAF6EAF7FAF21976DA979
:1010C0007EA98FA998ADA40193010E946C237B0196
:1010D0008C016DA97EA98FA998ADA40193010E94EE
:1010E0006C23CA01B90121962CAD3DAD4EAD5FAD6B
:1010F00021970E944D239B01AC018701FF24EE2420
:10110000A9A8BAA8CBA8DCA8C601AA27BB27570163
:101110006801A82AB92ACA2ADB2AA216B306C4067D
:10112000D50690F4A20CB31CC41CD51CA214B304A5
:10113000C404D50448F0A216B306C406D50620F4AC
:10114000A20CB31CC41CD51CA21AB30AC40AD50A2B
:10115000C601B501A40193010E946C237B018C019F
:10116000C601B501A40193010E946C23CA01B90113
:1011700021962CAD3DAD4EAD5FAD2197BAC1211486
:1011800031044104510471F461E070E080E090E0CA
:1011900020E030E040E050E00E946C23C901DA0119
:1011A0001C012D0100E0201600E0300601E04006A1
:1011B00000E0500688F41FEF211631044104510469
:1011C00039F030F068E0E62EF12C012D112D18C019
:1011D000EE24FF24870114C040E0241640E03406CA
:1011E00040E0440641E0540630F058E1E52EF12C91
:1011F000012D112D05C040E1E42EF12C012D112D02
:10120000D201C1010E2C04C0B695A795979587957C
:101210000A94D2F784569F4FDC012C9130E2A32E22
:10122000B12CC12CD12CD601C5018E199F09A00B60
:10123000B10B7C018D01E21AF10801091109E9AE37
:10124000FAAE0BAF1CAFE114F1040105110539F43E
:1012500064015301A218B308C408D508E2C0F9AC70
:101260006896FFAE68970F2C04C0220C331C441CF8
:10127000551C0A94D2F78A2D8F1964015301082E48
:1012800004C0D694C794B794A7940A94D2F7A40143
:10129000930104C0220F331F441F551FFA94D2F745
:1012A0006C966CAC7DAC8EAC9FAC6C9704C0969485
:1012B0008794779467948A95D2F784017301E22A20
:1012C000F32A042B152BEDA6FEA60FA718AB3201AF
:1012D00088249924B201A1016070707025964CAFEA
:1012E0005DAF6EAF7FAF2597C601B501A401930135
:1012F0000E946C237B018C01C601B501A4019301FE
:101300000E946C23CA01B90125962CAD3DAD4EADAE
:101310005FAD25970E944D239B01AC018701FF24FF
:10132000EE24ADA4BEA4CFA4D8A8C601AA27BB278B
:101330005C016D01AE28BF28C02AD12AA216B306CF
:10134000C406D50690F4A20CB31CC41CD51CA21470
:10135000B304C404D50448F0A216B306C406D506E7
:1013600020F4A20CB31CC41CD51CA21AB30AC40AD4
:10137000D50AC601B501A40193010E946C237B012B
:101380008C01C601B501A40193010E946C23CA011E
:10139000B90125962CAD3DAD4EAD5FAD25970E94B0
:1013A0004D239B01AC018701FF24EE248DA59EA552
:1013B000AFA5B8A9A070B07057016801A82AB92AD2
:1013C000CA2ADB2AA216B306C406D50690F4A20CDC
:1013D000B31CC41CD51CA214B304C404D50448F027
:1013E000A216B306C406D50620F4A20CB31CC41C76
:1013F000D51C6C96ECACFDAC0EAD1FAD6C97689631
:101400000FAC689704C0EE0CFF1C001F111F0A945C
:10141000D2F7E9AAFAAA0BAB1CABA21AB30AC40A08
:10142000D50A320188249924B201A101607070703C
:1014300029964CAF5DAF6EAF7FAF2997C601B5015E
:10144000A40193010E946C237B018C01C601B501AC
:10145000A40193010E946C23CA01B90129962CAD05
:101460003DAD4EAD5FAD29970E944D239B01AC0170
:101470008701FF24EE24A9A8BAA8CBA8DCA8C6013E
:10148000AA27BB2757016801A82AB92ACA2ADB2A3A
:10149000A216B306C406D50690F4A20CB31CC41C55
:1014A000D51CA214B304C404D50448F0A216B30694
:1014B000C406D50620F4A20CB31CC41CD51CA21A69
:1014C000B30AC40AD50AC601B501A40193010E945A
:1014D0006C237B018C01C601B501A40193010E941C
:1014E0006C23CA01B90129962CAD3DAD4EAD5FAD5F
:1014F00029970E944D239B01AC018701FF24EE2414
:1015000089A99AA9ABA9BCA9A070B070E82AF92A48
:101510000A2B1B2BE216F3060407150790F4E20CC6
:10152000F31C041D151DE214F3040405150548F011
:10153000E216F3060407150720F4E20CF31C041D61
:10154000151DE21AF30A040B150BD801C70109ACEB
:1015500004C0B695A795979587950A94D2F7898B7D
:101560009A8BAB8BBC8B1D8A1E8A1F8A188E282FE4
:101570003A894B895C896D890CC36A147B048C049D
:101580009D0408F409C300E0A01600E0B00601E0E5
:10159000C00600E0D00688F41FEFA116B104C10414
:1015A000D10439F030F028E0E22EF12C012D112D7C
:1015B00018C0EE24FF24870114C040E0A41640E0C8
:1015C000B40640E0C40641E0D40630F098E1E92ECC
:1015D000F12C012D112D05C080E1E82EF12C012DFB
:1015E000112DD601C5010E2C04C0B695A79597956F
:1015F00087950A94D2F784569F4FDC012C9180E2A4
:1016000090E0A0E0B0E08E199F09A00BB10B821B07
:101610009109A109B1090097A105B10509F04FC0D1
:10162000A614B704C804D90458F06C96ECACFDAC11
:101630000EAD1FAD6C97E214F3040405150568F1B7
:101640006C96ECACFDAC0EAD1FAD6C97E218F308D8
:1016500004091509A40193012A193B094C095D09E4
:10166000AA24BB2465016C966CAD7DAD8EAD9FAD9B
:101670006C976E157F058007910728F4B1E0AB2EBB
:10168000B12CC12CD12CDA01C9018A199B09AC09F2
:10169000BD098DAB9EABAFABB8AFE98AFA8A0B8BB5
:1016A0001C8B6DA87EA88FA898AC6D8A7E8A8F8AC5
:1016B000988E2E2D3A894B895C896DA96AC26796EE
:1016C0008FAF6797A6019501082E04C0220F331F24
:1016D000441F551F0A94D2F7A0E2AA2EA81A6696B4
:1016E000AFAE6697D201C10104C0B695A795979594
:1016F0008795AA94D2F76C017D01C22AD32AE42AE5
:10170000F52AC9A6DAA6EBA6FCA6820171016796A6
:101710000FAC679704C0EE0CFF1C001F111F0A944A
:10172000D2F7EDA2FEA20FA318A76401530166969B
:101730000FAC669704C0D694C794B794A7940A9444
:10174000D2F7A401930167960FAC679704C0220FEC
:10175000331F441F551F0A94D2F76C968CAD9DAD74
:10176000AEADBFAD6C9766960FAC669704C0B695EC
:10177000A795979587950A94D2F73C014D01622A67
:10178000732A842A952A69A27AA28BA29CA26C96BB
:10179000ECACFDAC0EAD1FAD6C9767960FAC6797C8
:1017A00004C0EE0CFF1C001F111F0A94D2F7ED8E2F
:1017B000FE8E0F8F18A349A55AA56BA57CA53B01EA
:1017C00088249924607070702D964CAF5DAF6EAF19
:1017D0007FAF2D97C601B501A40193010E946C2330
:1017E0007B018C01C601B501A40193010E946C2309
:1017F000C901DA011C012D01C201B1012D962CADE8
:101800003DAD4EAD5FAD2D970E944D239B01AC01C8
:101810008701FF24EE24A9A0BAA0CBA0DCA0C601BA
:10182000AA27BB2757016801A82AB92ACA2ADB2A96
:10183000A216B306C406D50600F50894210831089F
:1018400041085108E9A4FAA40BA51CA5AE0CBF1CC5
:10185000C01ED11EAE14BF04C006D10670F0A21681
:10186000B306C406D50648F4089421083108410897
:101870005108AE0CBF1CC01ED11EA21AB30AC40A66
:10188000D50AC601B501A40193010E946C237B0116
:101890008C01C601B501A40193010E946C23C9010A
:1018A000DA013C014D01C401B3012D962CAD3DADD3
:1018B0004EAD5FAD2D970E944D239B01AC0187017A
:1018C000FF24EE2489A19AA1ABA1BCA1A070B070A5
:1018D00057016801A82AB92ACA2ADB2AA216B30628
:1018E000C406D50600F508946108710881089108BE
:1018F00069A57AA58BA59CA5A60EB71EC81ED91EE4
:10190000A616B706C806D90670F0A216B306C40616
:10191000D50648F408946108710881089108A60E5C
:10192000B71EC81ED91ED601C501821B930BA40B7E
:10193000B50B898F9A8FAB8FBC8FD10199278827E0
:1019400084017301E82AF92A0A2B1B2B4FEFA42EDE
:101950004FEFB42EC12CD12CAE20BF20C022D122FB
:101960007801002711276DA07EA08FA098A44FEFCB
:101970005FEF60E070E064227522862297228DA1DD
:101980009EA1AFA1B8A5BD018827992765966CAF28
:101990007DAF8EAF9FAF6597C601B501A4019301DE
:1019A0000E944D2361966CAF7DAF8EAF9FAF619764
:1019B000C601B50165962CAD3DAD4EAD5FAD6597E9
:1019C0000E944D231B012C01C801B701A401930102
:1019D0000E944D235B016C01C801B70165962CADD7
:1019E0003DAD4EAD5FAD65970E944D237B018C01EF
:1019F000A6019501220D331D441D551D61966CAC49
:101A00007DAC8EAC9FAC6197C401AA27BB27280F81
:101A1000391F4A1F5B1F2A153B054C055D0548F41D
:101A2000812C912CE1E0AE2EB12CE80CF91C0A1DA2
:101A30001B1DCA01AA27BB2757016801A80EB91EA2
:101A4000CA1EDB1EA9013327222761968CAD9DADEE
:101A5000AEADBFAD6197A070B070280F391F4A1F9F
:101A60005B1FE98CFA8C0B8D1C8DEA14FB040C05B2
:101A70001D0570F0AE14BF04C006D10669F56D8D6A
:101A80007E8D8F8D98A1621773078407950720F5C7
:101A9000DA01C9016DA07EA08FA098A486199709CC
:101AA000A809B909E9A4FAA40BA51CA5AE18BF089A
:101AB000C00AD10AEE24FF248701281739074A07F4
:101AC0005B0728F421E0E22EF12C012D112DAE1838
:101AD000BF08C00AD10A02C0DA01C9016D8C7E8C30
:101AE0008F8C98A0681A790A8A0A9B0A498D5A8DA8
:101AF0006B8D7C8D4A195B096C097D095A016B015C
:101B00002224332421016D8D7E8D8F8D98A1661541
:101B100077058805990528F481E0282E312C412C81
:101B2000512C86017501E218F30804091509A80172
:101B3000970166960FAC669704C0220F331F441FAF
:101B4000551F0A94D2F7D401C30167960FAC67976B
:101B500004C0B695A795979587950A94D2F7282B38
:101B6000392B4A2B5B2B298B3A8B4B8B5C8B6796E3
:101B70000FAC679704C016950795F794E7940A94FD
:101B8000D2F7ED8AFE8A0F8B188F3A894B895C89D0
:101B90006E2D7E898F89988DC55ADF4FE2E10C94B6
:101BA000AA23A0E0B0E0E7EDFDE00C948E23DC0179
:101BB0002B01FA019C91923008F439C1EB01888124
:101BC000823008F433C1943069F4843009F02FC1B5
:101BD00011969C9111978981981709F428C1A4E95D
:101BE000B0E025C1843009F421C18230A9F49230DB
:101BF00009F01DC19A01AD0188E0EA010990AE012A
:101C0000E90109929E018150C1F7E2018981119693
:101C10009C918923818308C1923009F407C11296EF
:101C20002D903C901397EB018A819B811496AD9087
:101C3000BD90CD90DC901797EC80FD800E811F81C8
:101C40009101281B390BB90137FF04C0662777279C
:101C5000621B730B603271050CF061C01216130623
:101C60006CF537014801062E04C09694879477944A
:101C700067940A94D2F721E030E040E050E004C0DD
:101C8000220F331F441F551F6A95D2F72150304051
:101C9000404050402E213F21402351232115310542
:101CA0004105510521F021E030E040E050E07901AC
:101CB0008A01E628F728082919293CC0232BD1F1ED
:101CC000260E371E35014601062E04C096948794D1
:101CD000779467940A94D2F721E030E040E050E036
:101CE00004C0220F331F441F551F6A95D2F721509D
:101CF0003040404050402A213B214C215D2121159C
:101D000031054105510521F021E030E040E050E08F
:101D100059016A01A628B728C828D9280BC08215FE
:101D200093052CF01C01AA24BB24650103C0EE24FA
:101D3000FF24870111969C91D20111968C919817DE
:101D400009F445C0992339F0A80197012A193B09E4
:101D50004C095D0906C0A60195012E193F09400BEB
:101D6000510B57FD08C011823382228224833583B0
:101D7000468357831DC081E0818333822282882776
:101D80009927DC01821B930BA40BB50B84839583ED
:101D9000A683B7830DC0220F331F441F551F248312
:101DA000358346835783828193810197938382830E
:101DB0002481358146815781DA01C9010197A10942
:101DC000B1098F5F9F4FAF4FBF4328F30BC0918383
:101DD00033822282EA0CFB1C0C1D1D1DE482F5825D
:101DE0000683178383E08083248135814681578170
:101DF00057FF1AC0C901AA2797FDA095BA2F817075
:101E00009070A070B0705695479537952795822BA6
:101E1000932BA42BB52B84839583A683B7838281D0
:101E20009381019693838283DF0101C0D201CD01AA
:101E3000CDB7DEB7E2E10C94AA23A0E2B0E0E3E282
:101E4000FFE00C949A2369837A838B839C832D8390
:101E50003E834F835887E9E0EE2EF12CEC0EFD1EF9
:101E6000CE010196B7010E942E128E010F5E1F4F08
:101E7000CE010596B8010E942E128A8991E0892729
:101E80008A8BC701B801AE01475E5F4F0E94D10D3A
:101E90000E945911A096E6E00C94B623A0E2B0E0AF
:101EA000E4E5FFE00C949A2369837A838B839C8317
:101EB0002D833E834F835887F9E0EF2EF12CEC0EF3
:101EC000FD1ECE010196B7010E942E128E010F5EFB
:101ED0001F4FCE010596B8010E942E12C701B8010E
:101EE000AE01475E5F4F0E94D10D0E945911A0962E
:101EF000E6E00C94B623A0E2B0E0E1E8FFE00C9449
:101F00008E2369837A838B839C832D833E834F83C7
:101F10005887CE010196BE01675F7F4F0E942E1247
:101F2000CE010596BE016F5E7F4F0E942E129985ED
:101F3000923088F089898230C8F0943019F4823068
:101F400051F404C0843029F4923081F484E990E0A3
:101F5000C6C0923049F420E09A858A89981321E01E
:101F60002A87CE010996BBC0823049F420E09A85C9
:101F70008A89981321E02A8BCE014196B0C02D8426
:101F80003E844F8458886D887E888F88988CEE2494
:101F9000FF248701AA24BB24650140E050E060E0F3
:101FA00070E0E0E0F0E0C10181709070892BE9F011
:101FB000E60CF71C081D191D9A01AB012A0D3B1DEB
:101FC0004C1D5D1D80E090E0A0E0B0E0E614F70459
:101FD0000805190520F481E090E0A0E0B0E0BA0126
:101FE000A901480F591F6A1F7B1FAA0CBB1CCC1CE0
:101FF000DD1C97FE08C081E090E0A0E0B0E0A82AD8
:10200000B92ACA2ADB2A3196E032F10549F0660C7A
:10201000771C881C991C5694479437942794C3CFF7
:10202000FA85EA892B893C898B859C85280F391F85
:102030002E5F3F4F17C0CA0181709070892B61F0ED
:1020400016950795F794E79480E090E0A0E0B0E85B
:10205000E82AF92A0A2B1B2B769567955795479501
:102060002F5F3F4F77FDE7CF0CC0440F551F661F12
:10207000771F17FD4160EE0CFF1C001F111F215040
:102080003040403090E0590790E0690790E47907CC
:1020900060F32B8F3C8FDB01CA018F779070A070AB
:1020A000B07080349105A105B10561F447FD0AC007
:1020B000E114F1040105110529F0405C5F4F6F4FF9
:1020C0007F4F40781A8EFE1711F081E08A8F4D8F76
:1020D0005E8F6F8F78A383E0898FCE0149960E942F
:1020E0005911A096E2E10C94AA23A8E1B0E0EBE735
:1020F000F0E10C949A2369837A838B839C832D83EC
:102100003E834F83588789E0E82EF12CEC0EFD1EAC
:10211000CE010196B7010E942E128E010F5E1F4F55
:10212000CE010596B8010E942E128985823040F0BA
:102130008989823028F0C701B8010E94A61201C027
:102140008FEF6896E6E00C94B623A8E1B0E0EBEAE6
:10215000F0E10C949A2369837A838B839C832D838B
:102160003E834F83588789E0E82EF12CEC0EFD1E4C
:10217000CE010196B7010E942E128E010F5E1F4FF5
:10218000CE010596B8010E942E128985823040F05A
:102190008989823028F0C701B8010E94A61201C0C7
:1021A0008FEF6896E6E00C94B623A8E1B0E0EBED83
:1021B000F0E10C949A2369837A838B839C832D832B
:1021C0003E834F83588789E0E82EF12CEC0EFD1EEC
:1021D000CE010196B7010E942E128E010F5E1F4F95
:1021E000CE010596B8010E942E128985823040F0FA
:1021F0008989823028F0C701B8010E94A61201C067
:1022000081E06896E6E00C94B623ACE0B0E0EBE049
:10221000F1E10C949E2369837A838B839C83CE01A6
:102220000196BE016B5F7F4F0E942E128D8182301E
:1022300061F1823050F1843021F48E81882351F194
:102240002EC02F81388537FD20C06E812F3131059A
:102250001CF06623F9F023C08EE190E0821B930B03
:1022600029853A854B855C8504C0569547953795F9
:1022700027958A95D2F76623B1F050954095309511
:1022800021953F4F4F4F5F4F0EC020E030E040E0C0
:1022900050E009C02FEF3FEF4FEF5FE704C020E0B1
:1022A00030E040E050E8B901CA012C96E2E00C941D
:1022B000BA23DF92EF92FF920F931F93FC01E48009
:1022C000F58006811781D1808081823048F480E0DA
:1022D00090E0A0E1B0E0E82AF92A0A2B1B2BA5C068
:1022E000843009F49FC0823021F4EE24FF2487015A
:1022F00005C0E114F1040105110519F4E0E0F0E076
:1023000096C0628173819FEF623879070CF05BC0E1
:1023100022E83FEF261B370B2A3131052CF020E055
:1023200030E040E050E02AC0B801A701022E04C00E
:1023300076956795579547950A94D2F781E090E096
:10234000A0E0B0E004C0880F991FAA1FBB1F2A9508
:10235000D2F70197A109B1098E219F21A023B123B2
:102360000097A105B10521F081E090E0A0E0B0E088
:102370009A01AB01282B392B4A2B5B2BDA01C901BF
:102380008F779070A070B07080349105A105B10571
:1023900039F427FF09C0205C3F4F4F4F5F4F04C007
:1023A000215C3F4F4F4F5F4FE0E0F0E02030A0E076
:1023B0003A07A0E04A07A0E45A0710F0E1E0F0E095
:1023C00079018A0127C06038710564F5FB01E15885
:1023D000FF4FD801C7018F779070A070B070803424
:1023E0009105A105B10539F4E7FE0DC080E490E048
:1023F000A0E0B0E004C08FE390E0A0E0B0E0E80E21
:10240000F91E0A1F1B1F17FF05C016950795F794A5
:10241000E794319687E016950795F794E7948A95A7
:10242000D1F705C0EE24FF248701EFEFF0E06E2F17
:10243000679566276795902F9F77D794DD24D7946B
:102440008E2F8695492F462B582F5D29B701CA013B
:102450001F910F91FF90EF90DF900895FC01DB0139
:10246000408151812281622F6F7770E0221F2227E5
:10247000221F9381892F880F822B282F30E0991FEC
:102480009927991F11969C93119721153105A9F54C
:10249000411551056105710511F482E037C082E8EC
:1024A0009FEF13969C938E9312979A01AB0167E06E
:1024B000220F331F441F551F6A95D1F783E08C9379
:1024C0000DC0220F331F441F551F12968D919C91F2
:1024D0001397019713969C938E931297203080E068
:1024E000380780E0480780E4580758F314962D9386
:1024F0003D934D935C93179708952F3F310579F4E1
:10250000411551056105710519F484E08C93089516
:1025100064FF03C081E08C9312C01C9210C02F573F
:10252000304013963C932E93129783E08C9387E070
:10253000440F551F661F771F8A95D1F77064149654
:102540004D935D936D937C93179708951F93DC01D2
:10255000FB019C91923008F447C08081823008F4DE
:1025600043C0943051F411961C91843099F58181C7
:10257000682F70E0611B71093FC0843021F09230F8
:1025800031F48230B9F18181882389F12DC011960F
:102590001C9111978230F1F081811817D9F41296AD
:1025A0002D913C911397828193818217930794F028
:1025B00028173907BCF014968D919D910D90BC9110
:1025C000A02D2481358146815781281739074A0774
:1025D0005B0718F4112341F00AC082179307A40780
:1025E000B50740F4112319F061E070E005C06FEF0A
:1025F0007FEF02C060E070E0CB011F910895DF9390
:10260000CF9300D000D0CDB7DEB789836A838981AC
:10261000282F30E03C832B838B819C818234910571
:10262000D9F02B813C812334310534F48B819C819A
:102630008134910561F01EC02B813C81233431052A
:1026400081F08B819C818434910581F013C0EAE391
:10265000F0E08A8180830EC0E7E3F0E08A81808326
:1026600009C0E4E3F0E08A81808304C0E1E3F0E0A4
:102670008A8180830F900F900F900F90CF91DF9100
:102680000895DF93CF9300D000D0CDB7DEB7898314
:102690006A838981282F30E03C832B838B819C8146
:1026A00082349105D9F02B813C812334310534F4F7
:1026B0008B819C818134910561F01EC02B813C810E
:1026C0002334310581F08B819C818434910581F024
:1026D00013C0EBE3F0E08A8180830EC0E8E3F0E012
:1026E0008A81808309C0E5E3F0E08A81808304C0A9
:1026F000E2E3F0E08A8180830F900F900F900F90BB
:10270000CF91DF910895DF93CF9300D000D00F9247
:10271000CDB7DEB789836A834B838981282F30E068
:102720003D832C838C819D818234910509F448C0BE
:102730002C813D812334310534F48C819D81813499
:10274000910571F0CBC02C813D812334310509F412
:1027500067C08C819D818434910509F491C0BEC00D
:102760008B818130A1F4AAE3B0E0EAE3F0E080815C
:10277000482F8A81282F30E081E090E0022E02C0AD
:10278000880F991F0A94E2F7842B8C93A7C08B8142
:10279000882309F0A3C0AAE3B0E0EAE3F0E0808177
:1027A000482F8A81282F30E081E090E0022E02C07D
:1027B000880F991F0A94E2F7809584238C938EC02A
:1027C0008B818130A1F4A7E3B0E0E7E3F0E0808102
:1027D000482F8A81282F30E081E090E0022E02C04D
:1027E000880F991F0A94E2F7842B8C9377C08B8112
:1027F000882309F073C0A7E3B0E0E7E3F0E080814D
:10280000482F8A81282F30E081E090E0022E02C01C
:10281000880F991F0A94E2F7809584238C935EC0F9
:102820008B818130A1F4A4E3B0E0E4E3F0E08081A7
:10283000482F8A81282F30E081E090E0022E02C0EC
:10284000880F991F0A94E2F7842B8C9347C08B81E1
:10285000882309F043C0A4E3B0E0E4E3F0E0808122
:10286000482F8A81282F30E081E090E0022E02C0BC
:10287000880F991F0A94E2F7809584238C932EC0C9
:102880008B818130A1F4A1E3B0E0E1E3F0E080814D
:10289000482F8A81282F30E081E090E0022E02C08C
:1028A000880F991F0A94E2F7842B8C9317C08B81B1
:1028B0008823A1F4A1E3B0E0E1E3F0E08081482FB8
:1028C0008A81282F30E081E090E0022E02C0880F3C
:1028D000991F0A94E2F7809584238C930F900F90B0
:1028E0000F900F900F90CF91DF910895DF93CF93CA
:1028F00000D000D00F92CDB7DEB789836A834B83B7
:102900008981282F30E03D832C838C819D81823406
:10291000910509F448C02C813D812334310534F4FC
:102920008C819D818134910571F0CBC02C813D81DA
:102930002334310509F467C08C819D81843491056D
:1029400009F491C0BEC08B818130A1F4ABE3B0E04B
:10295000EBE3F0E08081482F8A81282F30E081E08E
:1029600090E0022E02C0880F991F0A94E2F7842B90
:102970008C93A7C08B81882309F0A3C0ABE3B0E0A0
:10298000EBE3F0E08081482F8A81282F30E081E05E
:1029900090E0022E02C0880F991F0A94E2F78095FA
:1029A00084238C938EC08B818130A1F4A8E3B0E0A6
:1029B000E8E3F0E08081482F8A81282F30E081E031
:1029C00090E0022E02C0880F991F0A94E2F7842B30
:1029D0008C9377C08B81882309F073C0A8E3B0E0A3
:1029E000E8E3F0E08081482F8A81282F30E081E001
:1029F00090E0022E02C0880F991F0A94E2F780959A
:102A000084238C935EC08B818130A1F4A5E3B0E078
:102A1000E5E3F0E08081482F8A81282F30E081E0D3
:102A200090E0022E02C0880F991F0A94E2F7842BCF
:102A30008C9347C08B81882309F043C0A5E3B0E0A5
:102A4000E5E3F0E08081482F8A81282F30E081E0A3
:102A500090E0022E02C0880F991F0A94E2F7809539
:102A600084238C932EC08B818130A1F4A2E3B0E04B
:102A7000E2E3F0E08081482F8A81282F30E081E076
:102A800090E0022E02C0880F991F0A94E2F7842B6F
:102A90008C9317C08B818823A1F4A2E3B0E0E2E31A
:102AA000F0E08081482F8A81282F30E081E090E09B
:102AB000022E02C0880F991F0A94E2F780958423A2
:102AC0008C930F900F900F900F900F90CF91DF91FC
:102AD0000895DF93CF9300D000D0CDB7DEB78A83BF
:102AE0008A81282F30E03C832B838B819C81823428
:102AF0009105D9F02B813C812334310534F48B814D
:102B00009C818134910561F01EC02B813C8123346E
:102B1000310581F08B819C818434910581F013C053
:102B2000E9E3F0E0808189830EC0E6E3F0E0808194
:102B3000898309C0E3E3F0E08081898304C0E0E396
:102B4000F0E08081898389810F900F900F900F9022
:102B5000CF91DF910895DF93CF9300D000D00F92F3
:102B6000CDB7DEB78A836B838A81282F30E03D831F
:102B70002C834C815D814234510541F18C819D81D2
:102B80008334910534F42C813D812134310561F089
:102B900052C04C815D814334510551F18C819D813E
:102BA00084349105B9F147C0E9E3F0E08081282F32
:102BB00030E08B81882F90E0A90102C055954795A0
:102BC0008A95E2F7CA018170898335C0E6E3F0E0B7
:102BD0008081282F30E08B81882F90E0A90102C0EE
:102BE000559547958A95E2F7CA018170898323C07C
:102BF000E3E3F0E08081282F30E08B81882F90E0A4
:102C0000A90102C0559547958A95E2F7CA018170DE
:102C1000898311C0E0E3F0E08081282F30E08B81D0
:102C2000882F90E0A90102C0559547958A95E2F753
:102C3000CA018170898389810F900F900F900F9046
:102C40000F90CF91DF910895DF93CF93CDB7DEB78B
:102C50006D970FB6F894DEBF0FBECDBF8D8F82E4A7
:102C60006D8D0E94411383E460E041E00E94761480
:102C700083E461E040E00E94761483E462E041E096
:102C80000E94761480E090E0A0E8BFE3898F9A8FDD
:102C9000AB8FBC8F698D7A8D8B8D9C8D20E030E859
:102CA0004BE355E40E947B0FDC01CB018D8B9E8BA7
:102CB000AF8BB88F6D897E898F89988D20E030E049
:102CC00040E85FE30E94D51088232CF481E090E077
:102CD0009C8B8B8B3FC06D897E898F89988D20E07E
:102CE0003FEF4FE757E40E94751018164CF5698DB9
:102CF0007A8D8B8D9C8D20E030E040E251E40E9483
:102D00007B0FDC01CB01BC01CD010E94C000DC01C6
:102D1000CB019C8B8B8B0FC08CE291E09A8B898BC3
:102D200089899A890197F1F79A8B898B8B899C897C
:102D300001979C8B8B8B8B899C89009769F714C0BA
:102D40006D897E898F89988D0E94C000DC01CB013E
:102D50009C8B8B8B8B899C89988B8F878F8598898F
:102D60000197F1F7988B8F8783E462E040E00E943F
:102D7000761480E090E0A0E0B0E48B879C87AD877C
:102D8000BE876B857C858D859E8520E030E84BE392
:102D900055E40E947B0FDC01CB018F839887A987C4
:102DA000BA876F81788589859A8520E030E040E890
:102DB0005FE30E94D51088232CF481E090E09E838D
:102DC0008D833FC06F81788589859A8520E03FEFAC
:102DD0004FE757E40E94751018164CF56B857C85FB
:102DE0008D859E8520E030E040E251E40E947B0F1B
:102DF000DC01CB01BC01CD010E94C000DC01CB0194
:102E00009E838D830FC08CE291E09C838B838B81AA
:102E10009C810197F1F79C838B838D819E81019723
:102E20009E838D838D819E81009769F714C06F8189
:102E3000788589859A850E94C000DC01CB019E833C
:102E40008D838D819E819A83898389819A8101975F
:102E5000F1F79A8389836D960FB6F894DEBF0FBEA3
:102E6000CDBFCF91DF910895DF93CF93CDB7DEB77C
:102E70006D970FB6F894DEBF0FBECDBF8D8F82E485
:102E80006D8D0E94411383E460E040E00E9476145F
:102E900083E461E040E00E94761483E462E041E074
:102EA0000E94761480E090E0A0E8BFE3898F9A8FBB
:102EB000AB8FBC8F698D7A8D8B8D9C8D20E030E837
:102EC0004BE355E40E947B0FDC01CB018D8B9E8B85
:102ED000AF8BB88F6D897E898F89988D20E030E027
:102EE00040E85FE30E94D51088232CF481E090E055
:102EF0009C8B8B8B3FC06D897E898F89988D20E05C
:102F00003FEF4FE757E40E94751018164CF5698D96
:102F10007A8D8B8D9C8D20E030E040E251E40E9460
:102F20007B0FDC01CB01BC01CD010E94C000DC01A4
:102F3000CB019C8B8B8B0FC08CE291E09A8B898BA1
:102F400089899A890197F1F79A8B898B8B899C895A
:102F500001979C8B8B8B8B899C89009769F714C098
:102F60006D897E898F89988D0E94C000DC01CB011C
:102F70009C8B8B8B8B899C89988B8F878F8598896D
:102F80000197F1F7988B8F8783E462E040E00E941D
:102F9000761480E090E0A0E0B0E48B879C87AD875A
:102FA000BE876B857C858D859E8520E030E84BE370
:102FB00055E40E947B0FDC01CB018F839887A987A2
:102FC000BA876F81788589859A8520E030E040E86E
:102FD0005FE30E94D51088232CF481E090E09E836B
:102FE0008D833FC06F81788589859A8520E03FEF8A
:102FF0004FE757E40E94751018164CF56B857C85D9
:103000008D859E8520E030E040E251E40E947B0FF8
:10301000DC01CB01BC01CD010E94C000DC01CB0171
:103020009E838D830FC08CE291E09C838B838B8188
:103030009C810197F1F79C838B838D819E81019701
:103040009E838D838D819E81009769F714C06F8167
:10305000788589859A850E94C000DC01CB019E831A
:103060008D838D819E819A83898389819A8101973D
:10307000F1F79A8389836D960FB6F894DEBF0FBE81
:10308000CDBFCF91DF910895DF93CF93CDB7DEB75A
:10309000E8970FB6F894DEBF0FBECDBF82E46FEFA6
:1030A0000E94FF1283E460E041E00E94831383E406
:1030B00061E041E00E94831383E462E041E00E940A
:1030C000831380E090E0A8E4B2E48DAB9EABAFAB9D
:1030D000B8AF6DA97EA98FA998AD20E030E84BE389
:1030E00055E40E947B0FDC01CB0189AB9AABABAB03
:1030F000BCAB69A97AA98BA99CA920E030E040E883
:103100005FE30E94D51088232CF481E090E098AB17
:103110008FA73FC069A97AA98BA99CA920E03FEF9E
:103120004FE757E40E94751018164CF56DA97EA95B
:103130008FA998AD20E030E040E251E40E947B0F7F
:10314000DC01CB01BC01CD010E94C000DC01CB0140
:1031500098AB8FA70FC08CE291E09EA78DA78DA59D
:103160009EA50197F1F79EA78DA78FA598A9019716
:1031700098AB8FA78FA598A9009769F714C069A984
:103180007AA98BA99CA90E94C000DC01CB0198AB55
:103190008FA78FA598A99CA78BA78BA59CA5019706
:1031A000F1F79CA78BA788E30E94341780E090E09A
:1031B000A0E8BFE38FA398A7A9A7BAA76FA178A596
:1031C00089A59AA520E030E84BE355E40E947B0FE7
:1031D000DC01CB018BA39CA3ADA3BEA36BA17CA1FF
:1031E0008DA19EA120E030E040E85FE30E94D51071
:1031F00088232CF481E090E09AA389A33FC06BA1BF
:103200007CA18DA19EA120E03FEF4FE757E40E94F3
:10321000751018164CF56FA178A589A59AA520E020
:1032200030E040E251E40E947B0FDC01CB01BC01A5
:10323000CD010E94C000DC01CB019AA389A30FC07D
:103240008CE291E098A38F8F8F8D98A10197F1F771
:1032500098A38F8F89A19AA101979AA389A389A185
:103260009AA1009769F714C06BA17CA18DA19EA1C2
:103270000E94C000DC01CB019AA389A389A19AA175
:103280009E8F8D8F8D8D9E8D0197F1F79E8F8D8FE7
:103290008CE00E94341780E090E0A0E8BFE3898FC3
:1032A0009A8FAB8FBC8F698D7A8D8B8D9C8D20E032
:1032B00030E84BE355E40E947B0FDC01CB018D8BA2
:1032C0009E8BAF8BB88F6D897E898F89988D20E01A
:1032D00030E040E85FE30E94D51088232CF481E0C1
:1032E00090E09C8B8B8B3FC06D897E898F89988DF8
:1032F00020E03FEF4FE757E40E94751018164CF599
:10330000698D7A8D8B8D9C8D20E030E040E251E418
:103310000E947B0FDC01CB01BC01CD010E94C000EB
:10332000DC01CB019C8B8B8B0FC08CE291E09A8BE4
:10333000898B89899A890197F1F79A8B898B8B8977
:103340009C8901979C8B8B8B8B899C89009769F753
:1033500014C06D897E898F89988D0E94C000DC0120
:10336000CB019C8B8B8B8B899C89988B8F878F85CE
:1033700098890197F1F7988B8F8781E00E94341725
:1033800080E090E0A0E0B0E48B879C87AD87BE87AB
:103390006B857C858D859E8520E030E84BE355E488
:1033A0000E947B0FDC01CB018F839887A987BA87A6
:1033B0006F81788589859A8520E030E040E85FE379
:1033C0000E94D51088232CF481E090E09E838D83A9
:1033D0003FC06F81788589859A8520E03FEF4FE770
:1033E00057E40E94751018164CF56B857C858D8509
:1033F0009E8520E030E040E251E40E947B0FDC013A
:10340000CB01BC01CD010E94C000DC01CB019E8339
:103410008D830FC08CE291E09C838B838B819C8198
:103420000197F1F79C838B838D819E8101979E8309
:103430008D838D819E81009769F714C06F81788597
:1034400089859A850E94C000DC01CB019E838D8313
:103450008D819E819A83898389819A810197F1F771
:103460009A838983E8960FB6F894DEBF0FBECDBF6E
:10347000CF91DF910895DF93CF9300D00F92CDB716
:10348000DEB79B838A8319820EC08981282F30E0A2
:103490008A819B81FC01E20FF31F80810E94241628
:1034A00089818F5F89838981282F30E08A819B8180
:1034B000FC01E20FF31F8081882339F70F900F90F2
:1034C0000F90CF91DF910895DF93CF9300D0CDB7C8
:1034D000DEB789836A838A81883290F48981833058
:1034E00078F48981882329F48A8180580E943417CE
:1034F00007C08981813021F48A8180540E94341769
:103500000F900F90CF91DF910895AF92BF92CF921D
:10351000DF92EF92FF920F931F93DF93CF93CDB77C
:10352000DEB7C756D0400FB6F894DEBF0FBECDBF92
:103530002A873B874C875D876E877F87888B998B2F
:1035400081E08A831B821C821D821E821F82188654
:10355000198619828A859B85892B9C85892B9D8557
:10356000892B9E85892B9F85892B9889892B998901
:10357000892B882309F07AC380E30E94241676C33E
:10358000AA84BB84CC84DD84EE84FF8408891989F5
:103590002A2D3B2D4C2D5D2D6E2D7F2D802F912FB3
:1035A0000F2EFAE0AF2EF02DBB24CC24DD24EE2428
:1035B000FF2400E010E00E946107A22EB32EC42E6B
:1035C000D52EE62EF72E082F192F2A2D3B2D4C2D08
:1035D0005D2D6E2D7F2D802F912F2983AA84BB8492
:1035E000CC84DD84EE84FF84088919892A2D3B2D43
:1035F0004C2D5D2D6E2D7F2D802F912F0F2EFAE0FB
:10360000AF2EF02DBB24CC24DD24EE24FF2400E0DB
:1036100010E00E94EC00A22EB32EC42ED52EE62E72
:10362000F72E082F192FAA86BB86CC86DD86EE865C
:10363000FF86088B198B2A813B814C815D816E81CD
:103640007F8188859985A22EB32EC42ED52EE62E95
:10365000F72E082F192F2A2D3B2D4C2D5D2D6E2D69
:103660007F2D802F912F01E00E9441002AA33BA3D0
:103670004CA35DA36EA37FA388A799A72AA13BA112
:103680004CA15DA16EA17FA188A599A502E00E9431
:1036900041002AA73BA74CA75DA76EA77FA788ABD1
:1036A00099AB0AA11AA5010F0AAB21E02AAF3AA9EA
:1036B0004AA1341708F01AAE5BA16BA5560F5BAB9D
:1036C00071E07BAF8BA99BA1891708F01BAE0AADF7
:1036D0001BA9010F0CAF21E02DAF3CAD4BA9341756
:1036E00008F01DAE5BAD6DAD562B5BAF7CAD7BAB1B
:1036F0008CA19CA5890F8CAB01E00EAF1CA92CA15D
:10370000121708F01EAE3BAD4CA9340F3FAF51E08D
:1037100021965FAF21976FAD7CA9671718F02196AE
:103720001FAE21978EAD21969FAD2197892B8EAF2D
:103730000FAD0CAB1DA12DA5120F1DAB31E02296D4
:103740003FAF22974DA95DA1451718F022961FAEF5
:1037500022976EAD7DA9670F23966FAF239781E007
:1037600024968FAF249723969FAD23970DA990178A
:1037700018F024961FAE249722961FAD2297249608
:103780002FAD2497122B22961FAF229723963FAD81
:1037900023973DAB4EA15EA5450F4EAB61E025964C
:1037A0006FAF25977EA98EA1781718F025961FAECA
:1037B000259722969FAD22970EA9900F26969FAF30
:1037C000269711E027961FAF279726962FAD2697AD
:1037D0003EA9231718F027961FAE279725964FADC1
:1037E000259727965FAD2797452B25964FAF2597B1
:1037F00026966FAD26976EAB7FA18FA5780F7FAB16
:1038000091E028969FAF28970FA91FA1011718F0E4
:1038100028961FAE289725962FAD25973FA9230FF1
:1038200029962FAF299741E02A964FAF2A972996DC
:103830005FAD29976FA9561718F02A961FAE2A97E1
:1038400028967FAD28972A968FAD2A97782B2896B1
:103850007FAF289729969FAD29979FAB08A518A9F8
:10386000010F08AF21E02B962FAF2B9738AD48A55D
:10387000341718F02B961FAE2B9728965FAD28971C
:1038800068AD560F2C965FAF2C9771E02D967FAFE9
:103890002D972C968FAD2C9798AD891718F02D96F3
:1038A0001FAE2D972B960FAD2B972D961FAD2D97F5
:1038B000012B2B960FAF2B972C962FAD2C9728AF63
:1038C00039A549A9340F39AF2B968FAD2B9759AD38
:1038D000850F89AF6AA96A8F7BA97B8F8CA98C8F92
:1038E0009DA99D8F0EA90E8F1FA91F8F28AD28A3FC
:1038F00039AD39A38981082F10E020E030E040E0A5
:1039000050E060E070E00A8B1B8B2C8B3D8B4E8B64
:103910005F8B688F798F1A8D2A89120F2E961FAFB1
:103920002E9731E066963FAF66972E964FAD2E9755
:103930005A8D451718F066961FAE66976B8D7B897A
:10394000670F2F966FAF2F9781E067968FAF6797BE
:103950002F969FAD2F970B8D901718F067961FAE7F
:10396000679766961FAD66972F962FAD2F97120F0C
:1039700068961FAF689731E069963FAF6997689680
:103980004FAD68972F965FAD2F97451718F0699642
:103990001FAE699767966FAD679769967FAD699718
:1039A000672B67966FAF679768968FAD68972F966E
:1039B0008FAF2F979C8D0C89900F60969FAF60976B
:1039C00011E06A961FAF6A9760962FAD60973C8DA5
:1039D000231718F06A961FAE6A9767964FAD6797E0
:1039E00060965FAD6097450F6B964FAF6B9761E048
:1039F0006C966FAF6C976B967FAD6B9760968FAD43
:103A00006097781718F06C961FAE6C976A969FAD0A
:103A10006A976C960FAD6C97902B6A969FAF6A97DA
:103A20006B961FAD6B9760961FAF60972D8D3D898C
:103A3000230F61962FAF619741E06D964FAF6D9761
:103A400061965FAD61976D8D561718F06D961FAE3C
:103A50006D976A967FAD6A9761968FAD6197780F83
:103A60006E967FAF6E9791E06F969FAF6F976E9651
:103A70000FAD6E9761961FAD6197011718F06F96A5
:103A80001FAE6F976D962FAD6D976F963FAD6F9789
:103A9000232B6D962FAF6D976E964FAD6E976196F7
:103AA0004FAF61975E8D6E89560F62965FAF6297DA
:103AB00071E0A0967FAFA09762968FAD62979E8DC2
:103AC000891718F0A0961FAEA0976D960FAD6D9751
:103AD00062961FAD6297010FA1960FAFA19721E0EB
:103AE000A2962FAFA297A1963FADA19762964FAD38
:103AF0006297341718F0A2961FAEA297A0965FADFA
:103B0000A097A2966FADA297562BA0965FAFA097F5
:103B1000A1967FADA19762967FAF62978F8D9F89A7
:103B2000890F63968FAF639701E0A3960FAFA397BA
:103B300063961FAD63972F8D121718F0A3961FAED3
:103B4000A397A0963FADA09763964FAD6397340FB0
:103B5000A4963FAFA49751E0A5965FAFA597A49612
:103B60006FADA49763967FAD6397671718F0A5961E
:103B70001FAEA597A3968FADA397A5969FADA597CA
:103B8000892BA3968FAFA397A4960FADA4976396A6
:103B90000FAF639718A1288D120F64961FAF64971B
:103BA00031E0A6963FAFA69764964FAD649758A1B3
:103BB000451718F0A6961FAEA697A3966FADA397CC
:103BC00064967FAD6497670FA7966FAFA79781E064
:103BD000A8968FAFA897A7969FADA79764960FADAD
:103BE0006497901718F0A8961FAEA897A6961FADD9
:103BF000A697A8962FADA897122BA6961FAFA697AB
:103C0000A7963FADA79764963FAF649749A1598D9A
:103C1000450F65964FAF6597A6968FADA6976596AB
:103C20006FAD6597860F65968FAF65972E967FADC2
:103C30002E977A832F968FAD2F978B8360969FADAB
:103C400060979C8361960FAD61970D8362961FAD5F
:103C500062971E8363962FAD63972F8364963FAD63
:103C60006497388765964FAD659749878A859B85A8
:103C7000892B9C85892B9D85892B9E85892B9F85EA
:103C8000892B9889892B9989892B882309F078CCED
:103C90005FC0AA80BB80CC80DD80EE80FF8008857D
:103CA00019852A2D3B2D4C2D5D2D6E2D7F2D802FBE
:103CB000912F0F2EFAE0AF2EF02DBB24CC24DD2463
:103CC000EE24FF2400E010E00E946107A22EB32E34
:103CD000C42ED52EE62EF72E082F192F2A2D3B2D78
:103CE0004C2D5D2D6E2D7F2D802F912F2983AA8045
:103CF000BB80CC80DD80EE80FF80088519852A2D71
:103D00003B2D4C2D5D2D6E2D7F2D802F912F0F2E55
:103D1000FAE0AF2EF02DBB24CC24DD24EE24FF24CA
:103D200000E010E00E94EC00A22EB32EC42ED52E8F
:103D3000E62EF72E082F192FAA82BB82CC82DD82B5
:103D4000EE82FF82088719878981805D0E94241690
:103D50008A81813009F09DCF8B81882309F099CF2A
:103D60008C81882309F095CF8D81882309F091CF2C
:103D70008E81882309F08DCF8F81882309F089CF28
:103D80008885882309F085CF8985882309F081CF2C
:103D9000C959DF4F0FB6F894DEBF0FBECDBFCF912C
:103DA000DF911F910F91FF90EF90DF90CF90BF9028
:103DB000AF900895DF93CF93CDB7DEB7E4970FB6FA
:103DC000F894DEBF0FBECDBF8DE08E8F1D8EB3C0C9
:103DD0000E946E209E8D81E0692F0E94641A82E00D
:103DE0000E94241681E00E94241680E00E9424167E
:103DF0009D8D80E0692F0E94641ACE014F969CA78A
:103E00008BA7E0E6F0E0FEA7EDA7F6E0FFA7EDA5A3
:103E1000FEA500808DA59EA501969EA78DA7EBA56A
:103E2000FCA500828BA59CA501969CA78BA79FA5AE
:103E300091509FA7EFA5EE2351F7CE014F960E9418
:103E40003B1A80E090E0A6E9B3E4898F9A8FAB8FAC
:103E5000BC8F698D7A8D8B8D9C8D20E030E84BE393
:103E600055E40E947B0FDC01CB018D8B9E8BAF8BC9
:103E7000B88F6D897E898F89988D20E030E040E889
:103E80005FE30E94D51088232CF481E090E09C8BA6
:103E90008B8B3FC06D897E898F89988D20E03FEFA5
:103EA0004FE757E40E94751018164CF5698D7A8D0E
:103EB0008B8D9C8D20E030E040E251E40E947B0F2E
:103EC000DC01CB01BC01CD010E94C000DC01CB01B3
:103ED0009C8B8B8B0FC08CE291E09A8B898B8989AC
:103EE0009A890197F1F79A8B898B8B899C89019725
:103EF0009C8B8B8B8B899C89009769F714C06D898B
:103F00007E898F89988D0E94C000DC01CB019C8B3B
:103F10008B8B8B899C89988B8F878F85988901974C
:103F2000F1F7988B8F870E9464208E8D81508E8F41
:103F30008D8D8F5F8D8F8D8D80310CF449CF83E017
:103F40008E8F8EE08D8FB3C00E946E209E8D81E09B
:103F5000692F0E94641A82E00E94241681E00E9468
:103F6000241680E00E9424169D8D80E0692F0E9417
:103F7000641ACE01859699AB88ABE0E6F0E0FBAB26
:103F8000EAABF6E0FCABEAA9FBA900808AA99BA9F1
:103F900001969BAB8AABE8A9F9A9008288A999A9E7
:103FA000019699AB88AB9CA991509CABECA9EE23F0
:103FB00051F7CE0185960E943B1A80E090E0A6E979
:103FC000B3E48B879C87AD87BE876B857C858D85A9
:103FD0009E8520E030E84BE355E40E947B0FDC0136
:103FE000CB018F839887A987BA876F817885898568
:103FF0009A8520E030E040E85FE30E94D5108823F6
:104000002CF481E090E09E838D833FC06F817885A2
:1040100089859A8520E03FEF4FE757E40E947510AD
:1040200018164CF56B857C858D859E8520E030E0EB
:1040300040E251E40E947B0FDC01CB01BC01CD01C9
:104040000E94C000DC01CB019E838D830FC08CE2F7
:1040500091E09C838B838B819C810197F1F79C83FA
:104060008B838D819E8101979E838D838D819E811F
:10407000009769F714C06F81788589859A850E94B9
:10408000C000DC01CB019E838D838D819E819A834C
:10409000898389819A810197F1F79A8389830E94A4
:1040A00064208E8D8F5F8E8F8D8D81508D8F8D8D45
:1040B00088230CF049CFE4960FB6F894DEBF0FBE0C
:1040C000CDBFCF91DF910895DF93CF93CDB7DEB70A
:1040D00081E00E943417CF91DF910895DF93CF9351
:1040E000CDB7DEB780E40E94341780E00E9424162A
:1040F00080E00E94241680E00E94241680E00E9446
:10410000241688E00E94241684E10E94241682E08E
:104110000E9424168FE10E94241680E00E9424163B
:1041200080E00E94241680E00E94241680E00E9415
:10413000241680E00E94241680E10E94241680E16B
:104140000E9424168FE10E94241680E00E9424160B
:1041500080E10E94241680E10E94241680E10E94E2
:10416000241682E10E94241680E10E94241680E138
:104170000E9424168FE10E942416CF91DF910895AA
:10418000DF93CF93CDB7DEB7CA54D0400FB6F894C3
:10419000DEBF0FBECDBF81E460E00E94AB1588A3F7
:1041A00081E461E00E94AB158F8F81E462E00E94A0
:1041B000AB158E8F81E463E00E94AB158D8F88A1D3
:1041C000882309F0CBC08F8D882309F0C7C08E8D5E
:1041D000882309F0C3C08D8D882309F0BFC0CE01AC
:1041E000819623969FAF8EAF2397E6E6F0E0259663
:1041F000FFAFEEAF2597F1E12696FFAF2697259604
:10420000EEADFFAD2597008025968EAD9FAD25972D
:10421000019625969FAF8EAF25972396EEADFFAD05
:104220002397008223968EAD9FAD23970196239608
:104230009FAF8EAF239726969FAD269791502696D7
:104240009FAF26972696EFAD2697EE23C1F60E94E4
:10425000642080E060E00E94641ACE0181960E9492
:104260003B1A84E461E040E00E94761484E460E05C
:1042700041E00E94761480E090E0A1E6B4E4898FEA
:104280009A8FAB8FBC8F698D7A8D8B8D9C8D20E042
:1042900030E84BE355E40E947B0FDC01CB018D8BB2
:1042A0009E8BAF8BB88F6D897E898F89988D20E02A
:1042B00030E040E85FE30E94D51088232CF481E0D1
:1042C00090E09C8B8B8B3FC06D897E898F89988D08
:1042D00020E03FEF4FE757E40E94751018164CF5A9
:1042E000698D7A8D8B8D9C8D20E030E040E251E429
:1042F0000E947B0FDC01CB01BC01CD010E94C000FC
:10430000DC01CB019C8B8B8B0FC08CE291E09A8BF4
:10431000898B89899A890197F1F79A8B898B8B8987
:104320009C8901979C8B8B8B8B899C89009769F763
:10433000D3C06D897E898F89988D0E94C000DC0171
:10434000CB019C8B8B8B8B899C89988B8F878F85DE
:1043500098890197F1F7988B8F87BEC0CE01C296DE
:1043600028969FAF8EAF2897E7E7F0E02A96FFAF39
:10437000EEAF2A97FFE02B96FFAF2B972A96EEAD74
:10438000FFAD2A9700802A968EAD9FAD2A970196A1
:104390002A969FAF8EAF2A972896EEADFFAD28974D
:1043A000008228968EAD9FAD2897019628969FAFE4
:1043B0008EAF28972B969FAD2B9791502B969FAF42
:1043C0002B972B96EFAD2B97EE23C1F60E9464201E
:1043D00080E060E00E94641ACE01C2960E943B1AFF
:1043E00084E460E040E00E94761484E461E041E00F
:1043F0000E94761480E090E0A1E6B4E48B879C876D
:10440000AD87BE876B857C858D859E8520E030E8F5
:104410004BE355E40E947B0FDC01CB018F8398872F
:10442000A987BA876F81788589859A8520E030E0F1
:1044300040E85FE30E94D51088232CF481E090E0EF
:104440009E838D833FC06F81788589859A8520E022
:104450003FEF4FE757E40E94751018164CF56B8537
:104460007C858D859E8520E030E040E251E40E940D
:104470007B0FDC01CB01BC01CD010E94C000DC013F
:10448000CB019E838D830FC08CE291E09C838B8354
:104490008B819C810197F1F79C838B838D819E8119
:1044A00001979E838D838D819E81009769F714C04B
:1044B0006F81788589859A850E94C000DC01CB01D7
:1044C0009E838D838D819E819A83898389819A8140
:1044D0000197F1F79A838983C65BDF4F0FB6F89493
:1044E000DEBF0FBECDBFCF91DF910895DF93CF9395
:1044F000CDB7DEB7A1970FB6F894DEBF0FBECDBF24
:1045000081E460E040E00E94831381E461E040E0E8
:104510000E94831381E462E040E00E94831381E4FF
:1045200063E040E00E94831381E460E041E00E9488
:10453000761481E461E041E00E94761481E462E057
:1045400041E00E94761481E463E041E00E94761429
:1045500084E460E041E00E94831384E461E041E090
:104560000E9483130E944418CE010F969E8F8D8F58
:10457000E6E8F0E0F8A3EF8FFEE0F9A3EF8DF8A1F5
:1045800000808F8D98A1019698A38F8FED8DFE8D61
:1045900000828D8D9E8D01969E8F8D8F99A1915059
:1045A00099A3E9A1EE2351F7CE010F960E943B1A81
:1045B00080E090E8ABEBB5E48B879C87AD87BE8746
:1045C0006B857C858D859E8520E030E84BE355E446
:1045D0000E947B0FDC01CB018F839887A987BA8764
:1045E0006F81788589859A8520E030E040E85FE337
:1045F0000E94D51088232CF481E090E09E838D8367
:104600003FC06F81788589859A8520E03FEF4FE72D
:1046100057E40E94751018164CF56B857C858D85C6
:104620009E8520E030E040E251E40E947B0FDC01F7
:10463000CB01BC01CD010E94C000DC01CB019E83F7
:104640008D830FC08CE291E09C838B838B819C8156
:104650000197F1F79C838B838D819E8101979E83C7
:104660008D838D819E81009769F714C06F81788555
:1046700089859A850E94C000DC01CB019E838D83D1
:104680008D819E819A83898389819A810197F1F72F
:104690009A8389830E94C020FDCF629FD001739FBF
:1046A000F001829FE00DF11D649FE00DF11D929FCE
:1046B000F00D839FF00D749FF00D659FF00D99270D
:1046C000729FB00DE11DF91F639FB00DE11DF91F31
:1046D000BD01CF0111240895A1E21A2EAA1BBB1B14
:1046E000FD010DC0AA1FBB1FEE1FFF1FA217B307BE
:1046F000E407F50720F0A21BB30BE40BF50B661FD4
:10470000771F881F991F1A9469F760957095809597
:1047100090959B01AC01BD01CF0108952F923F926E
:104720004F925F926F927F928F929F92AF92BF92C1
:10473000CF92DF92EF92FF920F931F93CF93DF936D
:10474000CDB7DEB7CA1BDB0B0FB6F894DEBF0FBECA
:10475000CDBF09942A88398848885F846E847D8417
:104760008C849B84AA84B984C884DF80EE80FD8019
:104770000C811B81AA81B981CE0FD11D0FB6F8948F
:0E478000DEBF0FBECDBFED010895F894FFCF50
:10478E0048414E4E410050617373776F72642043FF
:10479E006F727265637400496E636F7272656374D3
:1047AE0020506173730057656C636F6D65204861AF
:1047BE006E6E6100000000000000000000010202A9
:1047CE00030303030404040404040404050505059B
:1047DE000505050505050505050505050606060677
:1047EE00060606060606060606060606060606065B
:1047FE000606060606060606060606060707070747
:10480E00070707070707070707070707070707072A
:10481E00070707070707070707070707070707071A
:10482E00070707070707070707070707070707070A
:10483E0007070707070707070707070708080808F6
:10484E0008080808080808080808080808080808DA
:10485E0008080808080808080808080808080808CA
:10486E0008080808080808080808080808080808BA
:10487E0008080808080808080808080808080808AA
:10488E00080808080808080808080808080808089A
:10489E00080808080808080808080808080808088A
:1048AE00080808080808080808080808080808087A
:0C48BE000808080808080808080808088E
:00000001FF
