:100000000C942A000C9434000C9434000C943400AA
:100010000C9434000C9434000C9434000C94340090
:100020000C9434000C9434000C9434000C94340080
:100030000C9434000C9434000C9434000C94340070
:100040000C9434000C9434000C9434000C94340060
:100050000C94340011241FBECFE5D8E0DEBFCDBF25
:100060000E94F9040C9455050C940000DF93CF9383
:10007000CDB7DEB7EAE3F0E081E08083E7E3F0E0CC
:100080001082E4E3F0E01082E1E3F0E01082CF912F
:10009000DF910895DF93CF93CDB7DEB727970FB6E3
:1000A000F894DEBF0FBECDBF8C836D831B828C8125
:1000B000803218F081E08B83BBC08D81882331F0C2
:1000C0008D81813019F081E08B83B2C01B828C81DD
:1000D0008695869586958A838C81877089838A81A7
:1000E000282F30E03F832E836E817F816130710540
:1000F000D1F18E819F818230910534F42E813F8130
:100100002115310571F094C06E817F8162307105D7
:1001100009F44BC08E819F818330910509F467C03B
:1001200087C0AAE3B0E0EAE3F0E08081482F89814C
:10013000282F30E081E090E002C0880F991F2A95B7
:10014000E2F7809548238D81282F30E08981882F20
:1001500090E0B90102C0660F771F8A95E2F7CB01E4
:10016000842B8C9365C0A7E3B0E0E7E3F0E08081E7
:10017000482F8981282F30E081E090E002C0880F6D
:10018000991F2A95E2F7809548238D81282F30E02A
:100190008981882F90E0B90102C0660F771F8A9588
:1001A000E2F7CB01842B8C9343C0A4E3B0E0E4E3FB
:1001B000F0E08081482F8981282F30E081E090E0B5
:1001C00002C0880F991F2A95E2F7809548238D81F8
:1001D000282F30E08981882F90E0B90102C0660F96
:1001E000771F8A95E2F7CB01842B8C9321C0A1E382
:1001F000B0E0E1E3F0E08081482F8981282F30E0F2
:1002000081E090E002C0880F991F2A95E2F780955F
:1002100048238D81282F30E08981882F90E0B90113
:1002200002C0660F771F8A95E2F7CB01842B8C936F
:100230008B8127960FB6F894DEBF0FBECDBFCF914E
:10024000DF910895DF93CF93CDB7DEB727970FB631
:10025000F894DEBF0FBECDBF8C836D831B828C8173
:10026000803218F081E08B83BBC08D81813031F00A
:100270008D81882319F081E08B83B2C01B828C8131
:100280008695869586958A838C81877089838A81F5
:10029000282F30E03F832E836E817F81613071058E
:1002A000D1F18E819F818230910534F42E813F817E
:1002B0002115310571F094C06E817F816230710526
:1002C00009F44BC08E819F818330910509F467C08A
:1002D00087C0ABE3B0E0EBE3F0E08081482F898199
:1002E000282F30E081E090E002C0880F991F2A9506
:1002F000E2F7809548238D81282F30E08981882F6F
:1003000090E0B90102C0660F771F8A95E2F7CB0132
:10031000842B8C9365C0A8E3B0E0E8E3F0E0808133
:10032000482F8981282F30E081E090E002C0880FBB
:10033000991F2A95E2F7809548238D81282F30E078
:100340008981882F90E0B90102C0660F771F8A95D6
:10035000E2F7CB01842B8C9343C0A5E3B0E0E5E347
:10036000F0E08081482F8981282F30E081E090E003
:1003700002C0880F991F2A95E2F7809548238D8146
:10038000282F30E08981882F90E0B90102C0660FE4
:10039000771F8A95E2F7CB01842B8C9321C0A2E3CF
:1003A000B0E0E2E3F0E08081482F8981282F30E03F
:1003B00081E090E002C0880F991F2A95E2F78095AE
:1003C00048238D81282F30E08981882F90E0B90162
:1003D00002C0660F771F8A95E2F7CB01842B8C93BE
:1003E0008B8127960FB6F894DEBF0FBECDBFCF919D
:1003F000DF910895DF93CF93CDB7DEB728970FB67F
:10040000F894DEBF0FBECDBF8C837E836D831B82CD
:100410008C81803218F081E08B8379C01B828C81C3
:100420008695869586958A838C81877089838A8153
:10043000282F30E038872F834F8158854130510570
:1004400059F18F8198858230910534F42F81388558
:100450002115310569F05BC04F8158854230510547
:1004600079F18F8198858330910509F43DC04FC0A3
:10047000E9E3F0E08081282F30E08981882F90E047
:10048000A90102C0559547958A95E2F7CA01817086
:10049000ED81FE8180833BC0E6E3F0E08081282F80
:1004A00030E08981882F90E0A90102C055954795D9
:1004B0008A95E2F7CA018170ED81FE81808327C0B1
:1004C000E3E3F0E08081282F30E08981882F90E0FD
:1004D000A90102C0559547958A95E2F7CA01817036
:1004E000ED81FE81808313C0E0E3F0E08081282F5E
:1004F00030E08981882F90E0A90102C05595479589
:100500008A95E2F7CA018170ED81FE8180838B813B
:1005100028960FB6F894DEBF0FBECDBFCF91DF9106
:100520000895DF93CF9300D000D00F92CDB7DEB700
:100530008A836B8319828A81843018F081E08983F1
:1005400033C019828A81282F30E03D832C838C812F
:100550009D8181309105D1F02C813D812230310582
:100560002CF48C819D81009761F01EC02C813D810F
:100570002230310581F08C819D818330910581F09D
:1005800013C0EAE3F0E08B8180830EC0E7E3F0E084
:100590008B81808309C0E4E3F0E08B81808304C019
:1005A000E1E3F0E08B81808389810F900F900F90C1
:1005B0000F900F90CF91DF910895DF93CF9300D0EC
:1005C00000D00F92CDB7DEB78A836B8319828A8100
:1005D000843018F081E0898333C019828A81282F02
:1005E00030E03D832C838C819D8181309105D1F059
:1005F0002C813D81223031052CF48C819D81009726
:1006000061F01EC02C813D812230310581F08C814A
:100610009D818330910581F013C0EBE3F0E08B8185
:1006200080830EC0E8E3F0E08B81808309C0E5E3BE
:10063000F0E08B81808304C0E2E3F0E08B81808373
:1006400089810F900F900F900F900F90CF91DF91B5
:100650000895DF93CF9300D000D000D0CDB7DEB7A0
:100660008A837C836B8319828A81843018F081E0CD
:1006700089833BC019828A81282F30E03E832D83F5
:100680008D819E8181309105E1F02D813E81223066
:1006900031052CF48D819E81009761F026C02D815B
:1006A0003E8122303105A1F08D819E8183309105FC
:1006B000B1F01BC0E9E3F0E08081EB81FC81808335
:1006C00014C0E6E3F0E08081EB81FC8180830DC003
:1006D000E3E3F0E08081EB81FC81808306C0E0E30E
:1006E000F0E08081EB81FC818083898126960FB6C2
:1006F000F894DEBF0FBECDBFCF91DF910895DF9399
:10070000CF9300D000D00F92CDB7DEB78A836B8332
:1007100019828A81843018F081E0898343C019826C
:100720008A81282F30E03D832C838C819D8181300C
:100730009105F1F02C813D81223031052CF48C8122
:100740009D81009761F02EC02C813D8122303105C2
:10075000C1F08C819D8183309105E1F023C08BE352
:100760006B810E949102EBE3F0E08B8180831AC0E1
:1007700088E36B810E949102E8E3F0E08B81808343
:1007800011C085E36B810E949102E5E3F0E08B816B
:10079000808308C082E36B810E949102E2E3F0E073
:1007A0008B81808389810F900F900F900F900F9015
:1007B000CF91DF910895DF93CF9300D000D000D088
:1007C000CDB7DEB78C831B828C81803218F081E03C
:1007D0008B83C6C01B828C818695869586958A837D
:1007E0008C81877089838A81282F30E03E832D8316
:1007F0008D819E818130910509F43EC02D813E811D
:10080000223031052CF48D819E81009771F0A8C0B3
:100810002D813E812230310509F455C08D819E81A4
:100820008330910509F476C09BC0A9E3B0E0E9E309
:10083000F0E08081482F8981282F30E081E090E02E
:1008400002C0880F991F2A95E2F7809584238C9324
:10085000ABE3B0E0EBE3F0E08081482F8981282F03
:1008600030E081E090E0022E02C0880F991F0A94C8
:10087000E2F7842B8C9374C0A6E3B0E0E6E3F0E0EB
:100880008081482F8981282F30E081E090E002C0EC
:10089000880F991F2A95E2F7809584238C93A8E30B
:1008A000B0E0E8E3F0E08081482F8981282F30E034
:1008B00081E090E0022E02C0880F991F0A94E2F7AF
:1008C000842B8C934DC0A3E3B0E0E3E3F0E08081A0
:1008D000482F8981282F30E081E090E002C0880F06
:1008E000991F2A95E2F7809584238C93A5E3B0E0C5
:1008F000E5E3F0E08081482F8981282F30E081E016
:1009000090E0022E02C0880F991F0A94E2F7842B10
:100910008C9326C0A0E3B0E0E0E3F0E08081482FB4
:100920008981282F30E081E090E002C0880F991F74
:100930002A95E2F7809584238C93A2E3B0E0E2E36A
:10094000F0E08081482F8981282F30E081E090E01D
:10095000022E02C0880F991F0A94E2F7842B8C9311
:100960008B8126960FB6F894DEBF0FBECDBFCF9118
:10097000DF910895DF93CF93CDB7DEB728970FB6F9
:10098000F894DEBF0FBECDBF6D837E838F839887C3
:1009900019821A821B821C820CC0000089819A81F4
:1009A000AB81BC810196A11DB11D89839A83AB8364
:1009B000BC838D819E81AF81B88526E930E040E01F
:1009C00050E0BC01CD010E9436059B01AC0189813C
:1009D0009A81AB81BC8182179307A407B507E8F21F
:1009E00028960FB6F894DEBF0FBECDBFCF91DF9132
:1009F0000895DF93CF93CDB7DEB780E061E00E942A
:100A00004A0081E061E00E944A0083E06FEF0E94AB
:100A1000910280E060E00E94220181E061E00E949A
:100A2000220181E060E00E94220183E06FEE0E94DB
:100A3000DD0280E060E00E94220164E670E080E078
:100A400090E00E94BA0480E061E00E94220183E00D
:100A500062E10E94DD0281E061E00E94220164E621
:100A600070E080E090E00E94BA04DBCF629FD0018A
:100A7000739FF001829FE00DF11D649FE00DF11D59
:100A8000929FF00D839FF00D749FF00D659FF00D08
:100A90009927729FB00DE11DF91F639FB00DE11DF5
:0E0AA000F91FBD01CF0111240895F894FFCF76
:00000001FF
